{
  "_format": "hh-sol-artifact-1",
  "contractName": "Manager",
  "sourceName": "contracts/Manager.sol",
  "abi": [
    {
      "anonymous": false,
      "inputs": [
        {
          "indexed": false,
          "internalType": "address",
          "name": "userAddress",
          "type": "address"
        },
        {
          "indexed": false,
          "internalType": "address payable",
          "name": "relayerAddress",
          "type": "address"
        },
        {
          "indexed": false,
          "internalType": "bytes",
          "name": "functionSignature",
          "type": "bytes"
        }
      ],
      "name": "MetaTransactionExecuted",
      "type": "event"
    },
    {
      "anonymous": false,
      "inputs": [
        {
          "indexed": true,
          "internalType": "address",
          "name": "previousOwner",
          "type": "address"
        },
        {
          "indexed": true,
          "internalType": "address",
          "name": "newOwner",
          "type": "address"
        }
      ],
      "name": "OwnershipTransferred",
      "type": "event"
    },
    {
      "anonymous": false,
      "inputs": [
        {
          "indexed": true,
          "internalType": "address",
          "name": "contractAddress",
          "type": "address"
        },
        {
          "indexed": true,
          "internalType": "string",
          "name": "communityName",
          "type": "string"
        }
      ],
      "name": "ProxyDeployed",
      "type": "event"
    },
    {
      "inputs": [
        {
          "internalType": "string",
          "name": "_name",
          "type": "string"
        },
        {
          "internalType": "string",
          "name": "_symbol",
          "type": "string"
        },
        {
          "internalType": "address[]",
          "name": "_approvers",
          "type": "address[]"
        },
        {
          "internalType": "address",
          "name": "upgradeableBeacon",
          "type": "address"
        },
        {
          "internalType": "address",
          "name": "_trustedForwarder",
          "type": "address"
        }
      ],
      "name": "deployREP3TokenProxy",
      "outputs": [],
      "stateMutability": "nonpayable",
      "type": "function"
    },
    {
      "inputs": [
        {
          "internalType": "address",
          "name": "userAddress",
          "type": "address"
        },
        {
          "internalType": "bytes",
          "name": "functionSignature",
          "type": "bytes"
        },
        {
          "internalType": "bytes32",
          "name": "sigR",
          "type": "bytes32"
        },
        {
          "internalType": "bytes32",
          "name": "sigS",
          "type": "bytes32"
        },
        {
          "internalType": "uint8",
          "name": "sigV",
          "type": "uint8"
        }
      ],
      "name": "executeMetaTransaction",
      "outputs": [
        {
          "internalType": "bytes",
          "name": "",
          "type": "bytes"
        }
      ],
      "stateMutability": "payable",
      "type": "function"
    },
    {
      "inputs": [
        {
          "internalType": "address",
          "name": "user",
          "type": "address"
        }
      ],
      "name": "getNonce",
      "outputs": [
        {
          "internalType": "uint256",
          "name": "nonce",
          "type": "uint256"
        }
      ],
      "stateMutability": "view",
      "type": "function"
    },
    {
      "inputs": [
        {
          "internalType": "address",
          "name": "proxyAddress",
          "type": "address"
        }
      ],
      "name": "isInitialized",
      "outputs": [
        {
          "internalType": "bool",
          "name": "",
          "type": "bool"
        }
      ],
      "stateMutability": "view",
      "type": "function"
    },
    {
      "inputs": [],
      "name": "owner",
      "outputs": [
        {
          "internalType": "address",
          "name": "",
          "type": "address"
        }
      ],
      "stateMutability": "view",
      "type": "function"
    },
    {
      "inputs": [],
      "name": "renounceOwnership",
      "outputs": [],
      "stateMutability": "nonpayable",
      "type": "function"
    },
    {
      "inputs": [
        {
          "internalType": "address",
          "name": "newOwner",
          "type": "address"
        }
      ],
      "name": "transferOwnership",
      "outputs": [],
      "stateMutability": "nonpayable",
      "type": "function"
    }
  ],
  "bytecode": "0x608060405234801561001057600080fd5b506040518060400160405280600781526020016626b0b730b3b2b960c91b815250604051806040016040528060018152602001603160f81b815250818161006361005e6100f760201b60201c565b6100fb565b6040518060800160405280604f8152602001611902604f91398051906020012082805190602001208280519060200120306100a261014b60201b60201c565b60408051602081019690965285019390935260608401919091526001600160a01b0316608083015260a082015260c001604051602081830303815290604052805190602001206001819055505050505061014f565b3390565b600080546001600160a01b038381166001600160a01b0319831681178455604051919092169283917f8be0079c531659141344cd1fd0a4f28419497f9722a3daafe3b4186f6b6457e09190a35050565b4690565b6117a48061015e6000396000f3fe608060405260043610620000795760003560e01c80638da5cb5b11620000545780638da5cb5b1462000110578063c4f6e5a8146200013a578063d60b347f146200015f578063f2fde38b14620001ad57600080fd5b80630c53c51c146200007e5780632d0335ab14620000ad578063715018a614620000f6575b600080fd5b620000956200008f36600462000997565b620001d2565b604051620000a4919062000c42565b60405180910390f35b348015620000ba57600080fd5b50620000e7620000cc3660046200097a565b6001600160a01b031660009081526002602052604090205490565b604051908152602001620000a4565b3480156200010357600080fd5b506200010e62000461565b005b3480156200011d57600080fd5b506000546040516001600160a01b039091168152602001620000a4565b3480156200014757600080fd5b506200010e6200015936600462000a2b565b620004cb565b3480156200016c57600080fd5b506200019c6200017e3660046200097a565b6001600160a01b031660009081526003602052604090205460ff1690565b6040519015158152602001620000a4565b348015620001ba57600080fd5b506200010e620001cc3660046200097a565b620005e8565b60606000620001e186620006b9565b90506000356001600160e01b031990811690821614156200026f5760405162461bcd60e51b815260206004820152603d60248201527f66756e6374696f6e5369676e61747572652063616e206e6f74206265206f662060448201527f657865637574654d6574615472616e73616374696f6e206d6574686f6400000060648201526084015b60405180910390fd5b604080516060810182526001600160a01b03891660008181526002602090815290849020548352820152908101879052620002ae8882888888620006d6565b620003065760405162461bcd60e51b815260206004820152602160248201527f5369676e657220616e64207369676e617475726520646f206e6f74206d6174636044820152600d60fb1b606482015260840162000266565b6001600160a01b0388166000908152600260205260409020546200032c906001620007b9565b6001600160a01b038916600090815260026020908152604080832093909355915190918291309162000363918c918e910162000ba4565b60408051601f19818403018152908290526200037f9162000b86565b6000604051808303816000865af19150503d8060008114620003be576040519150601f19603f3d011682016040523d82523d6000602084013e620003c3565b606091505b509150915081620004175760405162461bcd60e51b815260206004820152601c60248201527f46756e6374696f6e2063616c6c206e6f74207375636365737366756c00000000604482015260640162000266565b7f5845892132946850460bff5a0083f71031bc5bf9aadcd40f1de79423eac9b10b8a338b6040516200044c9392919062000bdd565b60405180910390a19998505050505050505050565b6000546001600160a01b03163314620004bd5760405162461bcd60e51b815260206004820181905260248201527f4f776e61626c653a2063616c6c6572206973206e6f7420746865206f776e6572604482015260640162000266565b620004c96000620007ce565b565b606060008382604051620004df90620008cf565b620004ec92919062000c14565b604051809103906000f08015801562000509573d6000803e3d6000fd5b506001600160a01b03811660008181526003602052604090819020805460ff1916600117905551631206923b60e21b8152919250829182919063481a48ec906200055e908c908c908c908b9060040162000c57565b600060405180830381600087803b1580156200057957600080fd5b505af11580156200058e573d6000803e3d6000fd5b5050505088604051620005a2919062000b86565b604051908190038120906001600160a01b038416907fb7af501e8f874efc383147b429cbdd12eede18d7b97ee2681982acad27d9736090600090a3505050505050505050565b6000546001600160a01b03163314620006445760405162461bcd60e51b815260206004820181905260248201527f4f776e61626c653a2063616c6c6572206973206e6f7420746865206f776e6572604482015260640162000266565b6001600160a01b038116620006ab5760405162461bcd60e51b815260206004820152602660248201527f4f776e61626c653a206e6577206f776e657220697320746865207a65726f206160448201526564647265737360d01b606482015260840162000266565b620006b681620007ce565b50565b6000815160001415620006ce57506000919050565b506020015190565b6000806001620006f0620006ea886200081e565b6200089d565b6040805160008152602081018083529290925260ff861690820152606081018790526080810186905260a0016020604051602081039080840390855afa1580156200073f573d6000803e3d6000fd5b5050604051601f1901519150506001600160a01b038116620007985760405162461bcd60e51b8152602060048201526011602482015270496e76616c6964207369676e617475726560781b604482015260640162000266565b866001600160a01b0316816001600160a01b03161491505095945050505050565b6000620007c7828462000d17565b9392505050565b600080546001600160a01b038381166001600160a01b0319831681178455604051919092169283917f8be0079c531659141344cd1fd0a4f28419497f9722a3daafe3b4186f6b6457e09190a35050565b60006040518060800160405280604381526020016200172c604391398051602091820120835184830151604080870151805190860120905162000880950193845260208401929092526001600160a01b03166040830152606082015260800190565b604051602081830303815290604052805190602001209050919050565b6000620008a960015490565b60405161190160f01b602082015260228101919091526042810183905260620162000880565b6109a68062000d8683390190565b600067ffffffffffffffff831115620008fa57620008fa62000d6f565b6200090f601f8401601f191660200162000ce3565b90508281528383830111156200092457600080fd5b828260208301376000602084830101529392505050565b80356001600160a01b03811681146200095357600080fd5b919050565b600082601f83011262000969578081fd5b620007c783833560208501620008dd565b6000602082840312156200098c578081fd5b620007c7826200093b565b600080600080600060a08688031215620009af578081fd5b620009ba866200093b565b9450602086013567ffffffffffffffff811115620009d6578182fd5b8601601f81018813620009e7578182fd5b620009f888823560208401620008dd565b9450506040860135925060608601359150608086013560ff8116811462000a1d578182fd5b809150509295509295909350565b600080600080600060a0868803121562000a43578081fd5b853567ffffffffffffffff8082111562000a5b578283fd5b62000a6989838a0162000958565b965060209150818801358181111562000a80578384fd5b62000a8e8a828b0162000958565b96505060408801358181111562000aa3578384fd5b8801601f81018a1362000ab4578384fd5b80358281111562000ac95762000ac962000d6f565b8060051b925062000adc84840162000ce3565b8181528481019083860185850187018e101562000af7578788fd5b8795505b8386101562000b245762000b0f816200093b565b83526001959095019491860191860162000afb565b5080985050505050505062000b3c606087016200093b565b915062000b4c608087016200093b565b90509295509295909350565b6000815180845262000b7281602086016020860162000d3c565b601f01601f19169290920160200192915050565b6000825162000b9a81846020870162000d3c565b9190910192915050565b6000835162000bb881846020880162000d3c565b60609390931b6bffffffffffffffffffffffff19169190920190815260140192915050565b6001600160a01b0384811682528316602082015260606040820181905260009062000c0b9083018462000b58565b95945050505050565b6001600160a01b038316815260406020820181905260009062000c3a9083018462000b58565b949350505050565b602081526000620007c7602083018462000b58565b60808152600062000c6c608083018762000b58565b60208382038185015262000c81828862000b58565b84810360408601528651808252828801935090820190845b8181101562000cc05784516001600160a01b03168352938301939183019160010162000c99565b50506001600160a01b039590951660609490940193909352509195945050505050565b604051601f8201601f1916810167ffffffffffffffff8111828210171562000d0f5762000d0f62000d6f565b604052919050565b6000821982111562000d3757634e487b7160e01b81526011600452602481fd5b500190565b60005b8381101562000d5957818101518382015260200162000d3f565b8381111562000d69576000848401525b50505050565b634e487b7160e01b600052604160045260246000fdfe60806040526040516109a63803806109a68339810160408190526100229161048f565b61004d60017fa3f0ad74e5423aebfd80d3ef4346578335a9a72aeaee59ff6cb3582b35133d5161059a565b60008051602061095f8339815191521461007757634e487b7160e01b600052600160045260246000fd5b6100838282600061008a565b50506105ff565b61009383610164565b6040516001600160a01b038416907f1cf3b03a6cf19fa2baba4df148e9dcabedea7f8a5c07840e207e5c089be95d3e90600090a26000825111806100d45750805b1561015f5761015d836001600160a01b0316635c60da1b6040518163ffffffff1660e01b815260040160206040518083038186803b15801561011557600080fd5b505afa158015610129573d6000803e3d6000fd5b505050506040513d601f19601f8201168201806040525081019061014d9190610475565b8361030460201b6100291760201c565b505b505050565b6101778161033060201b6100551760201c565b6101d65760405162461bcd60e51b815260206004820152602560248201527f455243313936373a206e657720626561636f6e206973206e6f74206120636f6e6044820152641d1c9858dd60da1b60648201526084015b60405180910390fd5b610259816001600160a01b0316635c60da1b6040518163ffffffff1660e01b815260040160206040518083038186803b15801561021257600080fd5b505afa158015610226573d6000803e3d6000fd5b505050506040513d601f19601f8201168201806040525081019061024a9190610475565b61033060201b6100551760201c565b6102be5760405162461bcd60e51b815260206004820152603060248201527f455243313936373a20626561636f6e20696d706c656d656e746174696f6e206960448201526f1cc81b9bdd08184818dbdb9d1c9858dd60821b60648201526084016101cd565b806102e360008051602061095f83398151915260001b61033f60201b6100641760201c565b80546001600160a01b0319166001600160a01b039290921691909117905550565b6060610329838360405180606001604052806027815260200161097f60279139610342565b9392505050565b6001600160a01b03163b151590565b90565b60606001600160a01b0384163b6103aa5760405162461bcd60e51b815260206004820152602660248201527f416464726573733a2064656c65676174652063616c6c20746f206e6f6e2d636f6044820152651b9d1c9858dd60d21b60648201526084016101cd565b600080856001600160a01b0316856040516103c5919061054b565b600060405180830381855af49150503d8060008114610400576040519150601f19603f3d011682016040523d82523d6000602084013e610405565b606091505b509092509050610416828286610420565b9695505050505050565b6060831561042f575081610329565b82511561043f5782518084602001fd5b8160405162461bcd60e51b81526004016101cd9190610567565b80516001600160a01b038116811461047057600080fd5b919050565b600060208284031215610486578081fd5b61032982610459565b600080604083850312156104a1578081fd5b6104aa83610459565b60208401519092506001600160401b03808211156104c6578283fd5b818501915085601f8301126104d9578283fd5b8151818111156104eb576104eb6105e9565b604051601f8201601f19908116603f01168101908382118183101715610513576105136105e9565b8160405282815288602084870101111561052b578586fd5b61053c8360208301602088016105bd565b80955050505050509250929050565b6000825161055d8184602087016105bd565b9190910192915050565b60208152600082518060208401526105868160408501602087016105bd565b601f01601f19169190910160400192915050565b6000828210156105b857634e487b7160e01b81526011600452602481fd5b500390565b60005b838110156105d85781810151838201526020016105c0565b8381111561015d5750506000910152565b634e487b7160e01b600052604160045260246000fd5b6103518061060e6000396000f3fe60806040523661001357610011610017565b005b6100115b610027610022610067565b61010f565b565b606061004e83836040518060600160405280602781526020016102f560279139610133565b9392505050565b6001600160a01b03163b151590565b90565b600061009a7fa3f0ad74e5423aebfd80d3ef4346578335a9a72aeaee59ff6cb3582b35133d50546001600160a01b031690565b6001600160a01b0316635c60da1b6040518163ffffffff1660e01b815260040160206040518083038186803b1580156100d257600080fd5b505afa1580156100e6573d6000803e3d6000fd5b505050506040513d601f19601f8201168201806040525081019061010a919061024e565b905090565b3660008037600080366000845af43d6000803e80801561012e573d6000f35b3d6000fd5b60606001600160a01b0384163b6101a05760405162461bcd60e51b815260206004820152602660248201527f416464726573733a2064656c65676174652063616c6c20746f206e6f6e2d636f6044820152651b9d1c9858dd60d21b60648201526084015b60405180910390fd5b600080856001600160a01b0316856040516101bb9190610275565b600060405180830381855af49150503d80600081146101f6576040519150601f19603f3d011682016040523d82523d6000602084013e6101fb565b606091505b509150915061020b828286610215565b9695505050505050565b6060831561022457508161004e565b8251156102345782518084602001fd5b8160405162461bcd60e51b81526004016101979190610291565b60006020828403121561025f578081fd5b81516001600160a01b038116811461004e578182fd5b600082516102878184602087016102c4565b9190910192915050565b60208152600082518060208401526102b08160408501602087016102c4565b601f01601f19169190910160400192915050565b60005b838110156102df5781810151838201526020016102c7565b838111156102ee576000848401525b5050505056fe416464726573733a206c6f772d6c6576656c2064656c65676174652063616c6c206661696c6564a26469706673582212200fb25613b67898fc11c748d90582c0c37f8037c32127bdd34cd90dbed6cb085764736f6c63430008040033a3f0ad74e5423aebfd80d3ef4346578335a9a72aeaee59ff6cb3582b35133d50416464726573733a206c6f772d6c6576656c2064656c65676174652063616c6c206661696c65644d6574615472616e73616374696f6e2875696e74323536206e6f6e63652c616464726573732066726f6d2c62797465732066756e6374696f6e5369676e617475726529a2646970667358221220cbe5aaa872d8395df0bf639e650a5471e46bd66e676657fa8fb9206a47e8bdd264736f6c63430008040033454950373132446f6d61696e28737472696e67206e616d652c737472696e672076657273696f6e2c6164647265737320766572696679696e67436f6e74726163742c627974657333322073616c7429",
  "linkReferences": {},
  "deployedLinkReferences": {}
}