{
  "_format": "hh-sol-artifact-1",
  "contractName": "REP3Token",
  "sourceName": "contracts/REP3Token.sol",
  "abi": [
    {
      "inputs": [],
      "stateMutability": "nonpayable",
      "type": "constructor"
    },
    {
      "anonymous": false,
      "inputs": [
        {
          "indexed": true,
          "internalType": "address",
          "name": "owner",
          "type": "address"
        },
        {
          "indexed": true,
          "internalType": "address",
          "name": "approved",
          "type": "address"
        },
        {
          "indexed": true,
          "internalType": "uint256",
          "name": "tokenId",
          "type": "uint256"
        }
      ],
      "name": "Approval",
      "type": "event"
    },
    {
      "anonymous": false,
      "inputs": [
        {
          "indexed": true,
          "internalType": "address",
          "name": "owner",
          "type": "address"
        },
        {
          "indexed": true,
          "internalType": "address",
          "name": "operator",
          "type": "address"
        },
        {
          "indexed": false,
          "internalType": "bool",
          "name": "approved",
          "type": "bool"
        }
      ],
      "name": "ApprovalForAll",
      "type": "event"
    },
    {
      "anonymous": false,
      "inputs": [
        {
          "indexed": true,
          "internalType": "address",
          "name": "approver",
          "type": "address"
        }
      ],
      "name": "ApproverAdded",
      "type": "event"
    },
    {
      "anonymous": false,
      "inputs": [
        {
          "indexed": true,
          "internalType": "address",
          "name": "approver",
          "type": "address"
        }
      ],
      "name": "ApproverRemoved",
      "type": "event"
    },
    {
      "anonymous": false,
      "inputs": [
        {
          "indexed": true,
          "internalType": "uint8",
          "name": "level",
          "type": "uint8"
        },
        {
          "indexed": true,
          "internalType": "uint8",
          "name": "category",
          "type": "uint8"
        },
        {
          "indexed": true,
          "internalType": "uint256",
          "name": "tokenId",
          "type": "uint256"
        }
      ],
      "name": "Claim",
      "type": "event"
    },
    {
      "anonymous": false,
      "inputs": [
        {
          "indexed": false,
          "internalType": "uint8",
          "name": "version",
          "type": "uint8"
        }
      ],
      "name": "Initialized",
      "type": "event"
    },
    {
      "anonymous": false,
      "inputs": [
        {
          "indexed": true,
          "internalType": "uint256",
          "name": "memberTokenId",
          "type": "uint256"
        },
        {
          "indexed": true,
          "internalType": "uint8",
          "name": "_type",
          "type": "uint8"
        },
        {
          "indexed": true,
          "internalType": "uint256",
          "name": "tokenId",
          "type": "uint256"
        }
      ],
      "name": "Issue",
      "type": "event"
    },
    {
      "anonymous": false,
      "inputs": [
        {
          "indexed": false,
          "internalType": "string",
          "name": "name",
          "type": "string"
        }
      ],
      "name": "NameChange",
      "type": "event"
    },
    {
      "anonymous": false,
      "inputs": [
        {
          "indexed": true,
          "internalType": "address",
          "name": "previousOwner",
          "type": "address"
        },
        {
          "indexed": true,
          "internalType": "address",
          "name": "newOwner",
          "type": "address"
        }
      ],
      "name": "OwnershipTransferred",
      "type": "event"
    },
    {
      "anonymous": false,
      "inputs": [
        {
          "indexed": true,
          "internalType": "address",
          "name": "owner",
          "type": "address"
        },
        {
          "indexed": true,
          "internalType": "address",
          "name": "approved",
          "type": "address"
        },
        {
          "indexed": true,
          "internalType": "uint256",
          "name": "tokenId",
          "type": "uint256"
        }
      ],
      "name": "Revoke",
      "type": "event"
    },
    {
      "anonymous": false,
      "inputs": [
        {
          "indexed": true,
          "internalType": "address",
          "name": "from",
          "type": "address"
        },
        {
          "indexed": true,
          "internalType": "address",
          "name": "to",
          "type": "address"
        },
        {
          "indexed": true,
          "internalType": "uint256",
          "name": "tokenId",
          "type": "uint256"
        }
      ],
      "name": "Transfer",
      "type": "event"
    },
    {
      "inputs": [],
      "name": "DOMAIN_SEPARATOR",
      "outputs": [
        {
          "internalType": "bytes32",
          "name": "",
          "type": "bytes32"
        }
      ],
      "stateMutability": "view",
      "type": "function"
    },
    {
      "inputs": [
        {
          "internalType": "string",
          "name": "uriString",
          "type": "string"
        }
      ],
      "name": "_stringToArray",
      "outputs": [
        {
          "internalType": "string[]",
          "name": "",
          "type": "string[]"
        }
      ],
      "stateMutability": "pure",
      "type": "function"
    },
    {
      "inputs": [
        {
          "internalType": "address",
          "name": "approver",
          "type": "address"
        }
      ],
      "name": "addApprover",
      "outputs": [],
      "stateMutability": "nonpayable",
      "type": "function"
    },
    {
      "inputs": [
        {
          "internalType": "address",
          "name": "to",
          "type": "address"
        },
        {
          "internalType": "uint256",
          "name": "tokenId",
          "type": "uint256"
        }
      ],
      "name": "approve",
      "outputs": [],
      "stateMutability": "nonpayable",
      "type": "function"
    },
    {
      "inputs": [
        {
          "internalType": "address",
          "name": "owner",
          "type": "address"
        }
      ],
      "name": "balanceOf",
      "outputs": [
        {
          "internalType": "uint256",
          "name": "",
          "type": "uint256"
        }
      ],
      "stateMutability": "view",
      "type": "function"
    },
    {
      "inputs": [
        {
          "internalType": "uint256[]",
          "name": "memberTokenIds",
          "type": "uint256[]"
        },
        {
          "internalType": "uint8[]",
          "name": "type_",
          "type": "uint8[]"
        },
        {
          "internalType": "uint256[]",
          "name": "data",
          "type": "uint256[]"
        },
        {
          "internalType": "string",
          "name": "tokenUri",
          "type": "string"
        }
      ],
      "name": "batchIssueBadge",
      "outputs": [],
      "stateMutability": "nonpayable",
      "type": "function"
    },
    {
      "inputs": [
        {
          "components": [
            {
              "internalType": "uint32",
              "name": "index",
              "type": "uint32"
            },
            {
              "internalType": "uint256[]",
              "name": "memberTokenIds",
              "type": "uint256[]"
            },
            {
              "internalType": "uint8[]",
              "name": "type_",
              "type": "uint8[]"
            },
            {
              "internalType": "string",
              "name": "tokenUri",
              "type": "string"
            },
            {
              "internalType": "uint256[]",
              "name": "data",
              "type": "uint256[]"
            },
            {
              "internalType": "bytes",
              "name": "signature",
              "type": "bytes"
            }
          ],
          "internalType": "struct IREP3TokenTypes.BadgeVoucher",
          "name": "voucher",
          "type": "tuple"
        },
        {
          "internalType": "uint256",
          "name": "memberTokenId",
          "type": "uint256"
        },
        {
          "internalType": "uint256[]",
          "name": "approvedIndex",
          "type": "uint256[]"
        }
      ],
      "name": "claimBadge",
      "outputs": [],
      "stateMutability": "nonpayable",
      "type": "function"
    },
    {
      "inputs": [
        {
          "components": [
            {
              "internalType": "uint256[]",
              "name": "data",
              "type": "uint256[]"
            },
            {
              "internalType": "uint8[]",
              "name": "end",
              "type": "uint8[]"
            },
            {
              "internalType": "address[]",
              "name": "to",
              "type": "address[]"
            },
            {
              "internalType": "string",
              "name": "tokenUris",
              "type": "string"
            },
            {
              "internalType": "bytes",
              "name": "signature",
              "type": "bytes"
            }
          ],
          "internalType": "struct IREP3TokenTypes.NFTVoucher",
          "name": "voucher",
          "type": "tuple"
        },
        {
          "internalType": "uint256",
          "name": "approvedIndex",
          "type": "uint256"
        }
      ],
      "name": "claimMembership",
      "outputs": [],
      "stateMutability": "nonpayable",
      "type": "function"
    },
    {
      "inputs": [
        {
          "internalType": "uint256",
          "name": "tokenId",
          "type": "uint256"
        },
        {
          "internalType": "uint8",
          "name": "slot",
          "type": "uint8"
        }
      ],
      "name": "dataSlot",
      "outputs": [
        {
          "internalType": "uint8",
          "name": "",
          "type": "uint8"
        }
      ],
      "stateMutability": "view",
      "type": "function"
    },
    {
      "inputs": [
        {
          "internalType": "uint256",
          "name": "tokenId",
          "type": "uint256"
        }
      ],
      "name": "getApproved",
      "outputs": [
        {
          "internalType": "address",
          "name": "",
          "type": "address"
        }
      ],
      "stateMutability": "view",
      "type": "function"
    },
    {
      "inputs": [
        {
          "internalType": "uint256",
          "name": "tokenId",
          "type": "uint256"
        }
      ],
      "name": "getType",
      "outputs": [
        {
          "internalType": "uint8",
          "name": "",
          "type": "uint8"
        }
      ],
      "stateMutability": "view",
      "type": "function"
    },
    {
      "inputs": [],
      "name": "getVoucherNonce",
      "outputs": [
        {
          "internalType": "uint32",
          "name": "",
          "type": "uint32"
        }
      ],
      "stateMutability": "nonpayable",
      "type": "function"
    },
    {
      "inputs": [
        {
          "internalType": "string",
          "name": "name_",
          "type": "string"
        },
        {
          "internalType": "string",
          "name": "symbol_",
          "type": "string"
        },
        {
          "internalType": "address[]",
          "name": "_approvers",
          "type": "address[]"
        },
        {
          "internalType": "address",
          "name": "trustedForwarder_",
          "type": "address"
        }
      ],
      "name": "initialize",
      "outputs": [],
      "stateMutability": "nonpayable",
      "type": "function"
    },
    {
      "inputs": [
        {
          "internalType": "address",
          "name": "owner",
          "type": "address"
        },
        {
          "internalType": "address",
          "name": "operator",
          "type": "address"
        }
      ],
      "name": "isApprovedForAll",
      "outputs": [
        {
          "internalType": "bool",
          "name": "",
          "type": "bool"
        }
      ],
      "stateMutability": "view",
      "type": "function"
    },
    {
      "inputs": [
        {
          "internalType": "address",
          "name": "approver",
          "type": "address"
        }
      ],
      "name": "isApprover",
      "outputs": [
        {
          "internalType": "bool",
          "name": "",
          "type": "bool"
        }
      ],
      "stateMutability": "view",
      "type": "function"
    },
    {
      "inputs": [
        {
          "internalType": "address",
          "name": "forwarder",
          "type": "address"
        }
      ],
      "name": "isTrustedForwarder",
      "outputs": [
        {
          "internalType": "bool",
          "name": "",
          "type": "bool"
        }
      ],
      "stateMutability": "view",
      "type": "function"
    },
    {
      "inputs": [
        {
          "internalType": "uint256",
          "name": "memberTokenId",
          "type": "uint256"
        },
        {
          "internalType": "uint8",
          "name": "type_",
          "type": "uint8"
        },
        {
          "internalType": "uint256",
          "name": "data",
          "type": "uint256"
        },
        {
          "internalType": "string",
          "name": "tokenUri",
          "type": "string"
        }
      ],
      "name": "issueBadge",
      "outputs": [],
      "stateMutability": "nonpayable",
      "type": "function"
    },
    {
      "inputs": [],
      "name": "migrate",
      "outputs": [],
      "stateMutability": "nonpayable",
      "type": "function"
    },
    {
      "inputs": [],
      "name": "name",
      "outputs": [
        {
          "internalType": "string",
          "name": "",
          "type": "string"
        }
      ],
      "stateMutability": "view",
      "type": "function"
    },
    {
      "inputs": [],
      "name": "owner",
      "outputs": [
        {
          "internalType": "address",
          "name": "",
          "type": "address"
        }
      ],
      "stateMutability": "view",
      "type": "function"
    },
    {
      "inputs": [
        {
          "internalType": "uint256",
          "name": "tokenId",
          "type": "uint256"
        }
      ],
      "name": "ownerOf",
      "outputs": [
        {
          "internalType": "address",
          "name": "",
          "type": "address"
        }
      ],
      "stateMutability": "view",
      "type": "function"
    },
    {
      "inputs": [
        {
          "internalType": "address",
          "name": "approver",
          "type": "address"
        }
      ],
      "name": "removeApprover",
      "outputs": [],
      "stateMutability": "nonpayable",
      "type": "function"
    },
    {
      "inputs": [],
      "name": "renounceOwnership",
      "outputs": [],
      "stateMutability": "nonpayable",
      "type": "function"
    },
    {
      "inputs": [
        {
          "internalType": "uint256",
          "name": "tokenId",
          "type": "uint256"
        }
      ],
      "name": "revokeMembership",
      "outputs": [],
      "stateMutability": "nonpayable",
      "type": "function"
    },
    {
      "inputs": [
        {
          "internalType": "address",
          "name": "from",
          "type": "address"
        },
        {
          "internalType": "address",
          "name": "to",
          "type": "address"
        },
        {
          "internalType": "uint256",
          "name": "tokenId",
          "type": "uint256"
        }
      ],
      "name": "safeTransferFrom",
      "outputs": [],
      "stateMutability": "nonpayable",
      "type": "function"
    },
    {
      "inputs": [
        {
          "internalType": "address",
          "name": "from",
          "type": "address"
        },
        {
          "internalType": "address",
          "name": "to",
          "type": "address"
        },
        {
          "internalType": "uint256",
          "name": "tokenId",
          "type": "uint256"
        },
        {
          "internalType": "bytes",
          "name": "_data",
          "type": "bytes"
        }
      ],
      "name": "safeTransferFrom",
      "outputs": [],
      "stateMutability": "nonpayable",
      "type": "function"
    },
    {
      "inputs": [
        {
          "internalType": "address",
          "name": "operator",
          "type": "address"
        },
        {
          "internalType": "bool",
          "name": "approved",
          "type": "bool"
        }
      ],
      "name": "setApprovalForAll",
      "outputs": [],
      "stateMutability": "nonpayable",
      "type": "function"
    },
    {
      "inputs": [
        {
          "components": [
            {
              "internalType": "uint256",
              "name": "tokenId",
              "type": "uint256"
            },
            {
              "internalType": "address",
              "name": "to",
              "type": "address"
            },
            {
              "internalType": "bytes",
              "name": "signature",
              "type": "bytes"
            }
          ],
          "internalType": "struct IREP3TokenTypes.TransferVoucher",
          "name": "voucher",
          "type": "tuple"
        }
      ],
      "name": "soulTransfer",
      "outputs": [],
      "stateMutability": "nonpayable",
      "type": "function"
    },
    {
      "inputs": [
        {
          "internalType": "bytes4",
          "name": "interfaceId",
          "type": "bytes4"
        }
      ],
      "name": "supportsInterface",
      "outputs": [
        {
          "internalType": "bool",
          "name": "",
          "type": "bool"
        }
      ],
      "stateMutability": "view",
      "type": "function"
    },
    {
      "inputs": [],
      "name": "symbol",
      "outputs": [
        {
          "internalType": "string",
          "name": "",
          "type": "string"
        }
      ],
      "stateMutability": "view",
      "type": "function"
    },
    {
      "inputs": [
        {
          "internalType": "uint256",
          "name": "tokenId",
          "type": "uint256"
        }
      ],
      "name": "tokenURI",
      "outputs": [
        {
          "internalType": "string",
          "name": "",
          "type": "string"
        }
      ],
      "stateMutability": "view",
      "type": "function"
    },
    {
      "inputs": [],
      "name": "totalSupply",
      "outputs": [
        {
          "internalType": "uint256",
          "name": "",
          "type": "uint256"
        }
      ],
      "stateMutability": "view",
      "type": "function"
    },
    {
      "inputs": [
        {
          "internalType": "address",
          "name": "from",
          "type": "address"
        },
        {
          "internalType": "address",
          "name": "to",
          "type": "address"
        },
        {
          "internalType": "uint256",
          "name": "tokenId",
          "type": "uint256"
        }
      ],
      "name": "transferFrom",
      "outputs": [],
      "stateMutability": "nonpayable",
      "type": "function"
    },
    {
      "inputs": [
        {
          "internalType": "address",
          "name": "newOwner",
          "type": "address"
        }
      ],
      "name": "transferOwnership",
      "outputs": [],
      "stateMutability": "nonpayable",
      "type": "function"
    },
    {
      "inputs": [
        {
          "internalType": "uint256",
          "name": "tokenId",
          "type": "uint256"
        },
        {
          "internalType": "uint256",
          "name": "data",
          "type": "uint256"
        },
        {
          "internalType": "string",
          "name": "tokenUri",
          "type": "string"
        }
      ],
      "name": "updateMembership",
      "outputs": [],
      "stateMutability": "nonpayable",
      "type": "function"
    }
  ],
  "bytecode": "0x608060405234801561001057600080fd5b50614177806100206000396000f3fe608060405234801561001057600080fd5b50600436106101a95760003560e01c80635f1cc146116100f9578063b646c19411610097578063d7a855a011610071578063d7a855a0146103a4578063e55e418d146103b7578063e985e9c5146103ca578063ebc1506a1461040657600080fd5b8063b646c19414610370578063b88d4fde14610383578063c87b56dd1461039157600080fd5b80636d218e48116100d35780636d218e481461032f57806370a082311461034257806395d89b4114610355578063a22cb4651461035d57600080fd5b80635f1cc146146102f65780636352211e146103095780636cf4c88f1461031c57600080fd5b806323b872dd1161016657806342842e0e1161014057806342842e0e14610250578063481a48ec146102a15780634b6a7198146102b4578063572b6c05146102d457600080fd5b806323b872dd146102505780633644e515146102635780634036ab781461026c57600080fd5b806301ffc9a7146101ae57806306fdde03146101d6578063081812fc146101eb578063095ea7b31461021657806311bf76b91461022b57806318160ddd1461023e575b600080fd5b6101c16101bc3660046137e6565b610419565b60405190151581526020015b60405180910390f35b6101de61046b565b6040516101cd9190613c6a565b6101fe6101f93660046139ea565b6104fd565b6040516001600160a01b0390911681526020016101cd565b6102296102243660046136ff565b61058a565b005b610229610239366004613999565b6106b2565b603b545b6040519081526020016101cd565b61022961025e366004613612565b61095e565b61024260355481565b61028f61027a3660046139ea565b60009081526041602052604090205460ff1690565b60405160ff90911681526020016101cd565b6102296102af36600461385d565b6109c0565b6102c76102c236600461381e565b610bd9565b6040516101cd9190613c09565b6101c16102e23660046135c6565b603a546001600160a01b0391821691161490565b610229610304366004613961565b610d26565b6101fe6103173660046139ea565b6113df565b61022961032a3660046135c6565b611456565b6101c161033d3660046135c6565b611490565b6102426103503660046135c6565b6114ae565b6101de611535565b61022961036b3660046136c5565b611544565b61022961037e3660046135c6565b611556565b61022961025e36600461364d565b6101de61039f3660046139ea565b611562565b6102296103b2366004613728565b6116e9565b6102296103c5366004613a02565b611a92565b6101c16103d83660046135e0565b6001600160a01b039182166000908152603f6020908152604080832093909416825291909152205460ff1690565b610229610414366004613a56565b611bdf565b60006301ffc9a760e01b6001600160e01b03198316148061044a57506380ac58cd60e01b6001600160e01b03198316145b806104655750635b5e139f60e01b6001600160e01b03198316145b92915050565b60606037805461047a9061407f565b80601f01602080910402602001604051908101604052809291908181526020018280546104a69061407f565b80156104f35780601f106104c8576101008083540402835291602001916104f3565b820191906000526020600020905b8154815290600101906020018083116104d657829003601f168201915b5050505050905090565b600061050882611c9c565b61056e5760405162461bcd60e51b815260206004820152602c60248201527f4552433732313a20617070726f76656420717565727920666f72206e6f6e657860448201526b34b9ba32b73a103a37b5b2b760a11b60648201526084015b60405180910390fd5b506000908152603e60205260409020546001600160a01b031690565b6000610595826113df565b9050806001600160a01b0316836001600160a01b031614156106035760405162461bcd60e51b815260206004820152602160248201527f4552433732313a20617070726f76616c20746f2063757272656e74206f776e656044820152603960f91b6064820152608401610565565b806001600160a01b0316610615611cb9565b6001600160a01b031614806106315750610631816103d8611cb9565b6106a35760405162461bcd60e51b815260206004820152603860248201527f4552433732313a20617070726f76652063616c6c6572206973206e6f74206f7760448201527f6e6572206e6f7220617070726f76656420666f7220616c6c00000000000000006064820152608401610565565b6106ad8383611ce6565b505050565b803560006106c660408401602085016135c6565b90506106d182611c9c565b6106ed5760405162461bcd60e51b815260040161056590613c7d565b60008281526041602052604090205460ff161561071c5760405162461bcd60e51b815260040161056590613dbc565b610724611cb9565b6000838152603c60205260409020546001600160a01b0390811691161461078d5760405162461bcd60e51b815260206004820152601d60248201527f4e6f7420617574686f72697a656420746f20746f207472616e736665720000006044820152606401610565565b6001600160a01b0381166000908152604460209081526040808320858452604583528184205461ffff16845290915290205460ff16156108405760405162461bcd60e51b815260206004820152604260248201527f5472616e73666572206e6f7420616c6c6f7765642e204164647265737320686f60448201527f6c647320616c726561647920686f6c6473206578616374206d656d6265727368606482015261069760f41b608482015260a401610565565b61086d6040518060400160405280600c81526020016b39b7bab62a3930b739b332b960a11b815250611d54565b600061087884611d97565b905061088381611df7565b61088c81611490565b15156001146108ad5760405162461bcd60e51b815260040161056590613d7a565b6108be6108b8611cb9565b84611e3f565b6109245760405162461bcd60e51b815260206004820152603160248201527f4552433732313a207472616e736665722063616c6c6572206973206e6f74206f6044820152701ddb995c881b9bdc88185c1c1c9bdd9959607a1b6064820152608401610565565b61094661092f611cb9565b838560405180602001604052806000815250611f28565b610958610951611cb9565b8385611f5b565b50505050565b60405162461bcd60e51b815260206004820152603160248201527f546f6b656e732063616e206e6f74207472616e736665727265642e205573652060448201527039b7bab62a3930b739b332b9233937b69760791b6064820152608401610565565b60006109cc60016121f3565b905080156109e4576000805461ff0019166101001790555b84516109f79060379060208801906133fc565b508351610a0b9060389060208701906133fc565b50603a80546001600160a01b0319166001600160a01b03841617905560005b8351811015610b42576000848281518110610a5557634e487b7160e01b600052603260045260246000fd5b6020026020010151905060006001600160a01b0316816001600160a01b031614158015610a8b57506001600160a01b0381163014155b610ad75760405162461bcd60e51b815260206004820152601860248201527f417070726f766572206164647265737320696e76616c696400000000000000006044820152606401610565565b610ae081611490565b15610b265760405162461bcd60e51b8152602060048201526016602482015275105c1c1c9bdd995c88185b1c9958591e48185919195960521b6044820152606401610565565b610b2f81612280565b5080610b3a816140ba565b915050610a2a565b50610b8c6040518060400160405280600a8152602001692922a819a9b4b3b732b960b11b81525060405180604001604052806005815260200164302e302e3160d81b8152506122cc565b8015610bd2576000805461ff0019169055604051600181527f7f26b83ff96e1f2b6a682f133852f6798a09c465da95921460cefb38474024989060200160405180910390a15b5050505050565b60606000610c1c84848080601f0160208091040260200160405190810160405280939291908181526020018383808284376000920191909152506122fd92505050565b60408051808201825260018152600b60fa1b602080830191825283518085018552600080825290820181905284518086019095529251845283015291925090610c65838361232a565b6001600160401b03811115610c8a57634e487b7160e01b600052604160045260246000fd5b604051908082528060200260200182016040528015610cbd57816020015b6060815260200190600190039081610ca85790505b50905060005b8151811015610d1c57610cde610cd985856123cb565b6123ea565b828281518110610cfe57634e487b7160e01b600052603260045260246000fd5b60200260200101819052508080610d14906140ba565b915050610cc3565b5095945050505050565b6019610d356040840184613e4b565b90501115610dab5760405162461bcd60e51b815260206004820152603e60248201527f4d6f7265207468616e203235206164647265737365732063616e206e6f74206260448201527f6520617070726f76656420696e20612073696e676c6520766f756368657200006064820152608401610565565b610db3611cb9565b6001600160a01b0316610dc96040840184613e4b565b83818110610de757634e487b7160e01b600052603260045260246000fd5b9050602002016020810190610dfc91906135c6565b6001600160a01b031614610e525760405162461bcd60e51b815260206004820152601e60248201527f4e6f7420616c6c6f77656420746f206d696e74207468697320746f6b656e00006044820152606401610565565b6000610e616040840184613e4b565b905011610ebc5760405162461bcd60e51b8152602060048201526024808201527f566f7563686572206973206e6f742076616c696420666f7220616e79206164646044820152637265737360e01b6064820152608401610565565b6000610ec783612460565b9050610f006040518060400160405280601681526020017531b630b4b6a6b2b6b132b939b434b81039b4b3b732b960511b815250611d54565b610f0981611df7565b610f1281611490565b1515600114610f335760405162461bcd60e51b815260040161056590613d7a565b6000610f426040850185613e4b565b91506000905080610f566020870187613e4b565b90501115610fa557610f6b6020860186613e4b565b6000818110610f8a57634e487b7160e01b600052603260045260246000fd5b9050602002016020810190610f9f9190613aa8565b60ff1691505b6000805b610fb66040880188613e4b565b905081101561103557610fc7611cb9565b6001600160a01b0316610fdd6040890189613e4b565b83818110610ffb57634e487b7160e01b600052603260045260246000fd5b905060200201602081019061101091906135c6565b6001600160a01b03161415611023578091505b8061102d816140ba565b915050610fa9565b505b80831115801561105e575061104f6020870187613e4b565b905061105c836001613f06565b105b156110ba5761106e826001613f06565b915061107d6020870187613e4b565b8381811061109b57634e487b7160e01b600052603260045260246000fd5b90506020020160208101906110b09190613aa8565b60ff169250611037565b604460006110c6611cb9565b6001600160a01b0316815260208101919091526040016000908120906110ec8880613e4b565b8581811061110a57634e487b7160e01b600052603260045260246000fd5b905060200201602081019061111f91906139d0565b61ffff16815260208101919091526040016000205460ff16156111935760405162461bcd60e51b815260206004820152602660248201527f566f756368657220616c726561647920636c61696d656420627920746865206160448201526564647265737360d01b6064820152608401610565565b600061119e603b5490565b90506111b16111ab611cb9565b8261247f565b6111f1816111c56102c260608b018b613e92565b85815181106111e457634e487b7160e01b600052603260045260246000fd5b60200260200101516125ba565b6000818152604160209081526040808320805460ff1916905580518082019091526001815290810183905290604490611228611cb9565b6001600160a01b03168152602081019190915260400160009081209061124e8a80613e4b565b8781811061126c57634e487b7160e01b600052603260045260246000fd5b905060200201602081019061128191906139d0565b61ffff1681526020808201929092526040016000208251815460ff19169015151781559101516001909101556112b78780613e4b565b848181106112d557634e487b7160e01b600052603260045260246000fd5b90506020020160208101906112ea91906139d0565b6000828152604560205260408120805461ffff191661ffff939093169290921790915561135661131a8980613e4b565b8681811061133857634e487b7160e01b600052603260045260246000fd5b905060200201602081019061134d91906139d0565b60081c60ff1690565b9050600061139d6113678a80613e4b565b8781811061138557634e487b7160e01b600052603260045260246000fd5b905060200201602081019061139a91906139d0565b90565b9050828160ff168360ff167fe0cb488e127acbeb751038a091ccaffa49a672244b2c8af9ac97688ad5de12c160405160405180910390a4505050505050505050565b6000818152603c60205260408120546001600160a01b0316806104655760405162461bcd60e51b815260206004820152602960248201527f4552433732313a206f776e657220717565727920666f72206e6f6e657869737460448201526832b73a103a37b5b2b760b91b6064820152608401610565565b61145e611cb9565b61146781611490565b6114835760405162461bcd60e51b815260040161056590613d54565b61148c82612642565b5050565b6001600160a01b031660009081526036602052604090205460ff1690565b60006001600160a01b0382166115195760405162461bcd60e51b815260206004820152602a60248201527f4552433732313a2062616c616e636520717565727920666f7220746865207a65604482015269726f206164647265737360b01b6064820152608401610565565b506001600160a01b03166000908152603d602052604090205490565b60606038805461047a9061407f565b61148c61154f611cb9565b8383612699565b61155f81612280565b50565b606061156d82611c9c565b6115d35760405162461bcd60e51b815260206004820152603160248201527f45524337323155524953746f726167653a2055524920717565727920666f72206044820152703737b732bc34b9ba32b73a103a37b5b2b760791b6064820152608401610565565b600082815260406020819052812080546115ec9061407f565b80601f01602080910402602001604051908101604052809291908181526020018280546116189061407f565b80156116655780601f1061163a57610100808354040283529160200191611665565b820191906000526020600020905b81548152906001019060200180831161164857829003601f168201915b505050505090506000611693604080518082019091526008815267534f4d454241534560c01b602082015290565b90508051600014156116a6575092915050565b8151156116d85780826040516020016116c0929190613b9d565b60405160208183030381529060405292505050919050565b6116e184612768565b949350505050565b6116f1611cb9565b6116fa81611490565b6117165760405162461bcd60e51b815260040161056590613d54565b8760198111156117725760405162461bcd60e51b815260206004820152602160248201527f43616e206e6f74206973737565206d6f7265207468616e2032352062616467656044820152607360f81b6064820152608401610565565b8681146117c15760405162461bcd60e51b815260206004820152601a60248201527f5265717565737420696e76616c69643a2074797065206c6973740000000000006044820152606401610565565b8481146118105760405162461bcd60e51b815260206004820152601a60248201527f5265717565737420696e76616c69643a2064617461206c6973740000000000006044820152606401610565565b86811461185f5760405162461bcd60e51b815260206004820152601a60248201527f5265717565737420696e76616c69643a2074797065206c6973740000000000006044820152606401610565565b600061186b8585610bd9565b9050818151146118bd5760405162461bcd60e51b815260206004820152601960248201527f5265717565737420696e76616c69643a20757269206c697374000000000000006044820152606401610565565b60005b828110156119b3576118f78c8c838181106118eb57634e487b7160e01b600052603260045260246000fd5b90506020020135611c9c565b6119135760405162461bcd60e51b815260040161056590613c7d565b604160008d8d8481811061193757634e487b7160e01b600052603260045260246000fd5b602090810292909201358352508101919091526040016000205460ff16156119a15760405162461bcd60e51b815260206004820152601a60248201527f4d656d62657220546f6b656e20496420697320696e76616c69640000000000006044820152606401610565565b806119ab816140ba565b9150506118c0565b5060005b82811015611a8457611a728c8c838181106119e257634e487b7160e01b600052603260045260246000fd5b905060200201358b8b84818110611a0957634e487b7160e01b600052603260045260246000fd5b9050602002016020810190611a1e9190613aa8565b8a8a85818110611a3e57634e487b7160e01b600052603260045260246000fd5b90506020020135858581518110611a6557634e487b7160e01b600052603260045260246000fd5b602002602001015161284f565b80611a7c816140ba565b9150506119b7565b505050505050505050505050565b611a9b83611c9c565b611ab75760405162461bcd60e51b815260040161056590613c7d565b60008381526041602052604090205460ff1615611ae65760405162461bcd60e51b815260040161056590613dbc565b611af161033d611cb9565b1515600114611b125760405162461bcd60e51b815260040161056590613d7a565b60008381526045602052604090205461ffff838116911614611bd557611bd583836000828152603c6020908152604080832080546001600160a01b03908116855260448085528386208887526045808752858820805461ffff9081168a52928852868920805460ff19908116909155875180890189526001808252818b018e815298549097168b52948952878a209a909316808a5299885295882092518354901515921691909117825592519101559490925292909252815461ffff1916179055565b6106ad83826125ba565b611be7611cb9565b611bf081611490565b611c0c5760405162461bcd60e51b815260040161056590613d54565b611c1585611c9c565b611c315760405162461bcd60e51b815260040161056590613c7d565b60008581526041602052604090205460ff1615611c905760405162461bcd60e51b815260206004820152601a60248201527f4d656d62657220546f6b656e20496420697320696e76616c69640000000000006044820152606401610565565b610bd28585858561284f565b6000908152603c60205260409020546001600160a01b0316151590565b603a546000906001600160a01b0316331415611cdc575060131936013560601c90565b503390565b905090565b6000818152603e6020526040902080546001600160a01b0319166001600160a01b0384169081179091558190611d1b826113df565b6001600160a01b03167f8c5be1e5ebec7d5bd14f71427d1e84f3dd0314c0f7b2291e5b200ac8c7c3b92560405160405180910390a45050565b61155f81604051602401611d689190613c6a565b60408051601f198184030181529190526020810180516001600160e01b031663104c13eb60e21b179052612902565b600080611da383612923565b9050611df081611db66040860186613e92565b8080601f01602080910402602001604051908101604052809392919081815260200183838082843760009201919091525061299a92505050565b9392505050565b6040516001600160a01b038216602482015261155f9060440160408051601f198184030181529190526020810180516001600160e01b031663161765e160e11b179052612902565b6000611e4a82611c9c565b611eab5760405162461bcd60e51b815260206004820152602c60248201527f4552433732313a206f70657261746f7220717565727920666f72206e6f6e657860448201526b34b9ba32b73a103a37b5b2b760a11b6064820152608401610565565b6000611eb6836113df565b9050806001600160a01b0316846001600160a01b03161480611efd57506001600160a01b038082166000908152603f602090815260408083209388168352929052205460ff165b806116e15750836001600160a01b0316611f16846104fd565b6001600160a01b031614949350505050565b611f33848484612051565b611f3f848484846129be565b6109585760405162461bcd60e51b815260040161056590613cb4565b6001600160a01b03808416600090815260446020818152604080842086855260458352818520805461ffff9081168752918452828620805460ff199081169091558351808501855260018082528187018b8152998c16895296865284882092549093168752935290842090518154901515921691909117815592519201919091555b6000828152604260205260409020548110156109585761203f611ffe611cb9565b600084815260426020526040902080548691908590811061202f57634e487b7160e01b600052603260045260246000fd5b9060005260206000200154612051565b80612049816140ba565b915050611fdd565b826001600160a01b0316612064826113df565b6001600160a01b0316146120c85760405162461bcd60e51b815260206004820152602560248201527f4552433732313a207472616e736665722066726f6d20696e636f72726563742060448201526437bbb732b960d91b6064820152608401610565565b6001600160a01b03821661212a5760405162461bcd60e51b8152602060048201526024808201527f4552433732313a207472616e7366657220746f20746865207a65726f206164646044820152637265737360e01b6064820152608401610565565b612135600082611ce6565b6001600160a01b0383166000908152603d6020526040812080546001929061215e90849061403c565b90915550506001600160a01b0382166000908152603d6020526040812080546001929061218c908490613f06565b90915550506000818152603c602052604080822080546001600160a01b0319166001600160a01b0386811691821790925591518493918716917fddf252ad1be2c89b69c2b068fc378daa952ba7f163c4a11628f55a4df523b3ef91a46106ad838383612ad2565b60008054610100900460ff161561223a578160ff1660011480156122165750303b155b6122325760405162461bcd60e51b815260040161056590613d06565b506000919050565b60005460ff8084169116106122615760405162461bcd60e51b815260040161056590613d06565b506000805460ff191660ff92909216919091179055600190565b919050565b6001600160a01b038116600081815260366020526040808220805460ff19166001179055517f835bddf1ceee4956e4329af9edf018523c1191238187a597453f6020bcadb0429190a250565b600054610100900460ff166122f35760405162461bcd60e51b815260040161056590613e00565b61148c8282612ae8565b60408051808201825260008082526020918201528151808301909252825182529182019181019190915290565b600080826000015161234e8560000151866020015186600001518760200151612b29565b6123589190613f06565b90505b8351602085015161236c9190613f06565b81116123c4578161237c816140ba565b92505082600001516123b3856020015183612397919061403c565b86516123a3919061403c565b8386600001518760200151612b29565b6123bd9190613f06565b905061235b565b5092915050565b60408051808201909152600080825260208201526123c4838383612c4a565b6060600082600001516001600160401b0381111561241857634e487b7160e01b600052604160045260246000fd5b6040519080825280601f01601f191660200182016040528015612442576020820181803683370190505b50905060006020820190506123c48185602001518660000151612cf6565b60008061246c83612d70565b9050611df081611db66080860186613e92565b6001600160a01b0382166124d55760405162461bcd60e51b815260206004820181905260248201527f4552433732313a206d696e7420746f20746865207a65726f20616464726573736044820152606401610565565b6124de81611c9c565b1561252b5760405162461bcd60e51b815260206004820152601c60248201527f4552433732313a20746f6b656e20616c7265616479206d696e746564000000006044820152606401610565565b6001600160a01b0382166000908152603d60205260408120805460019290612554908490613f06565b90915550506000818152603c602052604080822080546001600160a01b0319166001600160a01b03861690811790915590518392907fddf252ad1be2c89b69c2b068fc378daa952ba7f163c4a11628f55a4df523b3ef908290a461148c60008383612ad2565b6125c382611c9c565b6126265760405162461bcd60e51b815260206004820152602e60248201527f45524337323155524953746f726167653a2055524920736574206f66206e6f6e60448201526d32bc34b9ba32b73a103a37b5b2b760911b6064820152608401610565565b600082815260406020818152912082516106ad928401906133fc565b61264b81611490565b1561155f576001600160a01b038116600081815260366020526040808220805460ff19169055517fc6e35658c76ecdde40a54f31a91fb7c8615e9893cc0885584b27bb3433270d469190a250565b816001600160a01b0316836001600160a01b031614156126fb5760405162461bcd60e51b815260206004820152601960248201527f4552433732313a20617070726f766520746f2063616c6c6572000000000000006044820152606401610565565b6001600160a01b038381166000818152603f6020908152604080832094871680845294825291829020805460ff191686151590811790915591519182527f17307eab39ab6107e8899845ad3d59bd9653f200f220920489ca2b5937696c31910160405180910390a3505050565b606061277382611c9c565b6127d75760405162461bcd60e51b815260206004820152602f60248201527f4552433732314d657461646174613a2055524920717565727920666f72206e6f60448201526e3732bc34b9ba32b73a103a37b5b2b760891b6064820152608401610565565b60006127fe604080518082019091526008815267534f4d454241534560c01b602082015290565b9050600081511161281e5760405180602001604052806000815250611df0565b8061282884612e87565b604051602001612839929190613b9d565b6040516020818303038152906040529392505050565b600061285a603b5490565b6000868152603c60205260409020549091506001600160a01b031661287f818361247f565b61288982846125ba565b6000828152604160209081526040808320805460ff191660ff8a169081179091558984526042835281842080546001810182559085528385200186905585845260439092528083208990555184927fe175c5037f341f107d2431d6f20ba8da182af9aa56deb3f28dfa9cc08f92eb0e91a3505050505050565b80516a636f6e736f6c652e6c6f67602083016000808483855afa5050505050565b60006104657ff274e127a35fb420f9eeb462337f7858c1a359e68a436531fe38e63887749daa833561295b60408601602087016135c6565b6040805160208101949094528301919091526001600160a01b031660608201526080015b60405160208183030381529060405280519060200120612fa0565b60008060006129a98585612fee565b915091506129b68161305e565b509392505050565b60006001600160a01b0384163b15612ac757836001600160a01b031663150b7a026129e7611cb9565b8786866040518563ffffffff1660e01b8152600401612a099493929190613bcc565b602060405180830381600087803b158015612a2357600080fd5b505af1925050508015612a53575060408051601f3d908101601f19168201909252612a5091810190613802565b60015b612aad573d808015612a81576040519150601f19603f3d011682016040523d82523d6000602084013e612a86565b606091505b508051612aa55760405162461bcd60e51b815260040161056590613cb4565b805181602001fd5b6001600160e01b031916630a85bd0160e11b1490506116e1565b506001949350505050565b603b54612ae0906001613f06565b603b55505050565b600054610100900460ff16612b0f5760405162461bcd60e51b815260040161056590613e00565b815160209283012081519190920120600191909155600255565b60008381868511612c355760208511612be35760008515612b75576001612b5187602061403c565b612b5c90600861401d565b612b67906002613f75565b612b71919061403c565b1990505b84518116600087612b868b8b613f06565b612b90919061403c565b855190915083165b828114612bd557818610612bbd57612bb08b8b613f06565b96505050505050506116e1565b85612bc7816140ba565b965050838651169050612b98565b8596505050505050506116e1565b508383206000905b612bf5868961403c565b8211612c335785832081811415612c1257839450505050506116e1565b612c1d600185613f06565b9350508180612c2b906140ba565b925050612beb565b505b612c3f8787613f06565b979650505050505050565b60408051808201909152600080825260208201526000612c7c8560000151866020015186600001518760200151612b29565b602080870180519186019190915251909150612c98908261403c565b835284516020860151612cab9190613f06565b811415612cbb5760008552612ced565b83518351612cc99190613f06565b85518690612cd890839061403c565b9052508351612ce79082613f06565b60208601525b50909392505050565b60208110612d2e5781518352612d0d602084613f06565b9250612d1a602083613f06565b9150612d2760208261403c565b9050612cf6565b6000198115612d5d576001612d4483602061403c565b612d5090610100613f75565b612d5a919061403c565b90505b9151835183169219169190911790915250565b60006104657f901f2218537e619a81ee2b74741eb509e7b0c44cb0863f2cc0d01e4f6f2f10f9612da08480613e4b565b604051602001612db1929190613b2e565b60405160208183030381529060405280519060200120848060200190612dd79190613e4b565b604051602001612de8929190613b5e565b60405160208183030381529060405280519060200120858060400190612e0e9190613e4b565b604051602001612e1f929190613aee565b60408051601f198184030181529190528051602090910120612e446060880188613e92565b604051612e52929190613b8d565b6040805191829003822060208301969096528101939093526060830191909152608082015260a081019190915260c00161297f565b606081612eab5750506040805180820190915260018152600360fc1b602082015290565b8160005b8115612ed55780612ebf816140ba565b9150612ece9050600a83613f1e565b9150612eaf565b6000816001600160401b03811115612efd57634e487b7160e01b600052604160045260246000fd5b6040519080825280601f01601f191660200182016040528015612f27576020820181803683370190505b5090505b84156116e157612f3c60018361403c565b9150612f49600a866140d5565b612f54906030613f06565b60f81b818381518110612f7757634e487b7160e01b600052603260045260246000fd5b60200101906001600160f81b031916908160001a905350612f99600a86613f1e565b9450612f2b565b6000610465612fad61325f565b8360405161190160f01b6020820152602281018390526042810182905260009060620160405160208183030381529060405280519060200120905092915050565b6000808251604114156130255760208301516040840151606085015160001a613019878285856132d6565b94509450505050613057565b82516040141561304f57602083015160408401516130448683836133c3565b935093505050613057565b506000905060025b9250929050565b600081600481111561308057634e487b7160e01b600052602160045260246000fd5b14156130895750565b60018160048111156130ab57634e487b7160e01b600052602160045260246000fd5b14156130f95760405162461bcd60e51b815260206004820152601860248201527f45434453413a20696e76616c6964207369676e617475726500000000000000006044820152606401610565565b600281600481111561311b57634e487b7160e01b600052602160045260246000fd5b14156131695760405162461bcd60e51b815260206004820152601f60248201527f45434453413a20696e76616c6964207369676e6174757265206c656e677468006044820152606401610565565b600381600481111561318b57634e487b7160e01b600052602160045260246000fd5b14156131e45760405162461bcd60e51b815260206004820152602260248201527f45434453413a20696e76616c6964207369676e6174757265202773272076616c604482015261756560f01b6064820152608401610565565b600481600481111561320657634e487b7160e01b600052602160045260246000fd5b141561155f5760405162461bcd60e51b815260206004820152602260248201527f45434453413a20696e76616c6964207369676e6174757265202776272076616c604482015261756560f01b6064820152608401610565565b6000611ce17f36c25de3e541d5d970f66e4210d728721220fff5c077cc6cd008b3a0c62adab761328e60015490565b600254604080516020808201959095528082019390935260608301919091523060808301524660a0808401919091528151808403909101815260c09092019052805191012090565b6000807f7fffffffffffffffffffffffffffffff5d576e7357a4501ddfe92f46681b20a083111561330d57506000905060036133ba565b8460ff16601b1415801561332557508460ff16601c14155b1561333657506000905060046133ba565b6040805160008082526020820180845289905260ff881692820192909252606081018690526080810185905260019060a0016020604051602081039080840390855afa15801561338a573d6000803e3d6000fd5b5050604051601f1901519150506001600160a01b0381166133b3576000600192509250506133ba565b9150600090505b94509492505050565b6000806001600160ff1b038316816133e060ff86901c601b613f06565b90506133ee878288856132d6565b935093505050935093915050565b8280546134089061407f565b90600052602060002090601f01602090048101928261342a5760008555613470565b82601f1061344357805160ff1916838001178555613470565b82800160010185558215613470579182015b82811115613470578251825591602001919060010190613455565b5061347c929150613480565b5090565b5b8082111561347c5760008155600101613481565b60006001600160401b038311156134ae576134ae614115565b6134c1601f8401601f1916602001613ed6565b90508281528383830111156134d557600080fd5b828260208301376000602084830101529392505050565b80356001600160a01b038116811461227b57600080fd5b60008083601f840112613514578182fd5b5081356001600160401b0381111561352a578182fd5b6020830191508360208260051b850101111561305757600080fd5b60008083601f840112613556578182fd5b5081356001600160401b0381111561356c578182fd5b60208301915083602082850101111561305757600080fd5b600082601f830112613594578081fd5b611df083833560208501613495565b803561ffff8116811461227b57600080fd5b803560ff8116811461227b57600080fd5b6000602082840312156135d7578081fd5b611df0826134ec565b600080604083850312156135f2578081fd5b6135fb836134ec565b9150613609602084016134ec565b90509250929050565b600080600060608486031215613626578081fd5b61362f846134ec565b925061363d602085016134ec565b9150604084013590509250925092565b60008060008060808587031215613662578081fd5b61366b856134ec565b9350613679602086016134ec565b92506040850135915060608501356001600160401b0381111561369a578182fd5b8501601f810187136136aa578182fd5b6136b987823560208401613495565b91505092959194509250565b600080604083850312156136d7578182fd5b6136e0836134ec565b9150602083013580151581146136f4578182fd5b809150509250929050565b60008060408385031215613711578182fd5b61371a836134ec565b946020939093013593505050565b6000806000806000806000806080898b031215613743578384fd5b88356001600160401b0380821115613759578586fd5b6137658c838d01613503565b909a50985060208b013591508082111561377d578586fd5b6137898c838d01613503565b909850965060408b01359150808211156137a1578586fd5b6137ad8c838d01613503565b909650945060608b01359150808211156137c5578384fd5b506137d28b828c01613545565b999c989b5096995094979396929594505050565b6000602082840312156137f7578081fd5b8135611df08161412b565b600060208284031215613813578081fd5b8151611df08161412b565b60008060208385031215613830578182fd5b82356001600160401b03811115613845578283fd5b61385185828601613545565b90969095509350505050565b60008060008060808587031215613872578182fd5b84356001600160401b0380821115613888578384fd5b61389488838901613584565b95506020915081870135818111156138aa578485fd5b6138b689828a01613584565b9550506040870135818111156138ca578485fd5b8701601f810189136138da578485fd5b8035828111156138ec576138ec614115565b8060051b92506138fd848401613ed6565b8181528481019083860185850187018d1015613917578889fd5b8895505b838610156139405761392c816134ec565b83526001959095019491860191860161391b565b50809750505050505050613956606086016134ec565b905092959194509250565b60008060408385031215613973578182fd5b82356001600160401b03811115613988578283fd5b830160a0818603121561371a578283fd5b6000602082840312156139aa578081fd5b81356001600160401b038111156139bf578182fd5b820160608185031215611df0578182fd5b6000602082840312156139e1578081fd5b611df0826135a3565b6000602082840312156139fb578081fd5b5035919050565b600080600060608486031215613a16578081fd5b83359250613a26602085016135a3565b915060408401356001600160401b03811115613a40578182fd5b613a4c86828701613584565b9150509250925092565b60008060008060808587031215613a6b578182fd5b84359350613a7b602086016135b5565b92506040850135915060608501356001600160401b03811115613a9c578182fd5b6136b987828801613584565b600060208284031215613ab9578081fd5b611df0826135b5565b60008151808452613ada816020860160208601614053565b601f01601f19169290920160200192915050565b60008184825b85811015613b23576001600160a01b03613b0d836134ec565b1683526020928301929190910190600101613af4565b509095945050505050565b60008184825b85811015613b235761ffff613b48836135a3565b1683526020928301929190910190600101613b34565b60008184825b85811015613b235760ff613b77836135b5565b1683526020928301929190910190600101613b64565b8183823760009101908152919050565b60008351613baf818460208801614053565b835190830190613bc3818360208801614053565b01949350505050565b6001600160a01b0385811682528416602082015260408101839052608060608201819052600090613bff90830184613ac2565b9695505050505050565b6000602080830181845280855180835260408601915060408160051b8701019250838701855b82811015613c5d57603f19888603018452613c4b858351613ac2565b94509285019290850190600101613c2f565b5092979650505050505050565b602081526000611df06020830184613ac2565b6020808252601d908201527f4d656d62657220546f6b656e20496420646f65736e2774206578697374000000604082015260600190565b60208082526032908201527f4552433732313a207472616e7366657220746f206e6f6e20455243373231526560408201527131b2b4bb32b91034b6b83632b6b2b73a32b960711b606082015260800190565b6020808252602e908201527f496e697469616c697a61626c653a20636f6e747261637420697320616c72656160408201526d191e481a5b9a5d1a585b1a5e995960921b606082015260800190565b6020808252600c908201526b2737ba1020b8383937bb32b960a11b604082015260600190565b60208082526022908201527f566f7563686572206973206e6f74207369676e656420627920617070726f7665604082015261391760f11b606082015260800190565b60208082526024908201527f4f6e6c79204d656d62657220546f6b656e732063616e206265207472616e7366604082015263195c995960e21b606082015260800190565b6020808252602b908201527f496e697469616c697a61626c653a20636f6e7472616374206973206e6f74206960408201526a6e697469616c697a696e6760a81b606082015260800190565b6000808335601e19843603018112613e61578283fd5b8301803591506001600160401b03821115613e7a578283fd5b6020019150600581901b360382131561305757600080fd5b6000808335601e19843603018112613ea8578283fd5b8301803591506001600160401b03821115613ec1578283fd5b60200191503681900382131561305757600080fd5b604051601f8201601f191681016001600160401b0381118282101715613efe57613efe614115565b604052919050565b60008219821115613f1957613f196140e9565b500190565b600082613f2d57613f2d6140ff565b500490565b600181815b80851115613f6d578160001904821115613f5357613f536140e9565b80851615613f6057918102915b93841c9390800290613f37565b509250929050565b6000611df08383600082613f8b57506001610465565b81613f9857506000610465565b8160018114613fae5760028114613fb857613fd4565b6001915050610465565b60ff841115613fc957613fc96140e9565b50506001821b610465565b5060208310610133831016604e8410600b8410161715613ff7575081810a610465565b6140018383613f32565b8060001904821115614015576140156140e9565b029392505050565b6000816000190483118215151615614037576140376140e9565b500290565b60008282101561404e5761404e6140e9565b500390565b60005b8381101561406e578181015183820152602001614056565b838111156109585750506000910152565b600181811c9082168061409357607f821691505b602082108114156140b457634e487b7160e01b600052602260045260246000fd5b50919050565b60006000198214156140ce576140ce6140e9565b5060010190565b6000826140e4576140e46140ff565b500690565b634e487b7160e01b600052601160045260246000fd5b634e487b7160e01b600052601260045260246000fd5b634e487b7160e01b600052604160045260246000fd5b6001600160e01b03198116811461155f57600080fdfea2646970667358221220cd1bb0f8b7e2c90fe1359386252eb6a484b47dbb61e0a62a0963142ceadbe27564736f6c63430008040033",
  "linkReferences": {},
  "deployedLinkReferences": {}
}