{
  "_format": "hh-sol-artifact-1",
  "contractName": "POCP",
  "sourceName": "contracts/POCP.sol",
  "abi": [
    {
      "anonymous": false,
      "inputs": [
        {
          "indexed": false,
          "internalType": "address",
          "name": "previousAdmin",
          "type": "address"
        },
        {
          "indexed": false,
          "internalType": "address",
          "name": "newAdmin",
          "type": "address"
        }
      ],
      "name": "AdminChanged",
      "type": "event"
    },
    {
      "anonymous": false,
      "inputs": [
        {
          "indexed": true,
          "internalType": "address",
          "name": "owner",
          "type": "address"
        },
        {
          "indexed": true,
          "internalType": "address",
          "name": "approved",
          "type": "address"
        },
        {
          "indexed": true,
          "internalType": "uint256",
          "name": "tokenId",
          "type": "uint256"
        }
      ],
      "name": "Approval",
      "type": "event"
    },
    {
      "anonymous": false,
      "inputs": [
        {
          "indexed": true,
          "internalType": "address",
          "name": "owner",
          "type": "address"
        },
        {
          "indexed": true,
          "internalType": "address",
          "name": "operator",
          "type": "address"
        },
        {
          "indexed": false,
          "internalType": "bool",
          "name": "approved",
          "type": "bool"
        }
      ],
      "name": "ApprovalForAll",
      "type": "event"
    },
    {
      "anonymous": false,
      "inputs": [
        {
          "indexed": false,
          "internalType": "uint256",
          "name": "communityId",
          "type": "uint256"
        },
        {
          "indexed": false,
          "internalType": "string",
          "name": "customIdentifier",
          "type": "string"
        },
        {
          "indexed": false,
          "internalType": "uint256",
          "name": "tokenId",
          "type": "uint256"
        }
      ],
      "name": "ApprovedBadge",
      "type": "event"
    },
    {
      "anonymous": false,
      "inputs": [
        {
          "indexed": true,
          "internalType": "uint256",
          "name": "communityId",
          "type": "uint256"
        },
        {
          "indexed": true,
          "internalType": "address",
          "name": "account",
          "type": "address"
        }
      ],
      "name": "ApproverAdded",
      "type": "event"
    },
    {
      "anonymous": false,
      "inputs": [
        {
          "indexed": true,
          "internalType": "uint256",
          "name": "communityId",
          "type": "uint256"
        },
        {
          "indexed": true,
          "internalType": "address",
          "name": "account",
          "type": "address"
        }
      ],
      "name": "ApproverRemoved",
      "type": "event"
    },
    {
      "anonymous": false,
      "inputs": [
        {
          "indexed": true,
          "internalType": "address",
          "name": "beacon",
          "type": "address"
        }
      ],
      "name": "BeaconUpgraded",
      "type": "event"
    },
    {
      "anonymous": false,
      "inputs": [
        {
          "indexed": false,
          "internalType": "uint256",
          "name": "tokenId",
          "type": "uint256"
        },
        {
          "indexed": false,
          "internalType": "uint256",
          "name": "communityId",
          "type": "uint256"
        }
      ],
      "name": "ClaimedBadge",
      "type": "event"
    },
    {
      "anonymous": false,
      "inputs": [
        {
          "indexed": false,
          "internalType": "uint256",
          "name": "communityId",
          "type": "uint256"
        },
        {
          "indexed": false,
          "internalType": "string",
          "name": "communityName",
          "type": "string"
        },
        {
          "indexed": false,
          "internalType": "address",
          "name": "txSigner",
          "type": "address"
        }
      ],
      "name": "CommunityRegistered",
      "type": "event"
    },
    {
      "anonymous": false,
      "inputs": [
        {
          "indexed": false,
          "internalType": "address",
          "name": "account",
          "type": "address"
        }
      ],
      "name": "Paused",
      "type": "event"
    },
    {
      "anonymous": false,
      "inputs": [
        {
          "indexed": true,
          "internalType": "bytes32",
          "name": "role",
          "type": "bytes32"
        },
        {
          "indexed": true,
          "internalType": "bytes32",
          "name": "previousAdminRole",
          "type": "bytes32"
        },
        {
          "indexed": true,
          "internalType": "bytes32",
          "name": "newAdminRole",
          "type": "bytes32"
        }
      ],
      "name": "RoleAdminChanged",
      "type": "event"
    },
    {
      "anonymous": false,
      "inputs": [
        {
          "indexed": true,
          "internalType": "bytes32",
          "name": "role",
          "type": "bytes32"
        },
        {
          "indexed": true,
          "internalType": "address",
          "name": "account",
          "type": "address"
        },
        {
          "indexed": true,
          "internalType": "address",
          "name": "sender",
          "type": "address"
        }
      ],
      "name": "RoleGranted",
      "type": "event"
    },
    {
      "anonymous": false,
      "inputs": [
        {
          "indexed": true,
          "internalType": "bytes32",
          "name": "role",
          "type": "bytes32"
        },
        {
          "indexed": true,
          "internalType": "address",
          "name": "account",
          "type": "address"
        },
        {
          "indexed": true,
          "internalType": "address",
          "name": "sender",
          "type": "address"
        }
      ],
      "name": "RoleRevoked",
      "type": "event"
    },
    {
      "anonymous": false,
      "inputs": [
        {
          "indexed": true,
          "internalType": "address",
          "name": "from",
          "type": "address"
        },
        {
          "indexed": true,
          "internalType": "address",
          "name": "to",
          "type": "address"
        },
        {
          "indexed": true,
          "internalType": "uint256",
          "name": "tokenId",
          "type": "uint256"
        }
      ],
      "name": "Transfer",
      "type": "event"
    },
    {
      "anonymous": false,
      "inputs": [
        {
          "indexed": false,
          "internalType": "address",
          "name": "account",
          "type": "address"
        }
      ],
      "name": "Unpaused",
      "type": "event"
    },
    {
      "anonymous": false,
      "inputs": [
        {
          "indexed": true,
          "internalType": "address",
          "name": "implementation",
          "type": "address"
        }
      ],
      "name": "Upgraded",
      "type": "event"
    },
    {
      "anonymous": false,
      "inputs": [
        {
          "indexed": false,
          "internalType": "uint256",
          "name": "approvedFor",
          "type": "uint256"
        }
      ],
      "name": "Voucher",
      "type": "event"
    },
    {
      "inputs": [],
      "name": "DEFAULT_ADMIN_ROLE",
      "outputs": [
        {
          "internalType": "bytes32",
          "name": "",
          "type": "bytes32"
        }
      ],
      "stateMutability": "view",
      "type": "function"
    },
    {
      "inputs": [],
      "name": "PAUSER_ROLE",
      "outputs": [
        {
          "internalType": "bytes32",
          "name": "",
          "type": "bytes32"
        }
      ],
      "stateMutability": "view",
      "type": "function"
    },
    {
      "inputs": [],
      "name": "UPGRADER_ROLE",
      "outputs": [
        {
          "internalType": "bytes32",
          "name": "",
          "type": "bytes32"
        }
      ],
      "stateMutability": "view",
      "type": "function"
    },
    {
      "inputs": [
        {
          "internalType": "uint256",
          "name": "communityId",
          "type": "uint256"
        },
        {
          "internalType": "address",
          "name": "account",
          "type": "address"
        }
      ],
      "name": "addApprover",
      "outputs": [],
      "stateMutability": "nonpayable",
      "type": "function"
    },
    {
      "inputs": [
        {
          "internalType": "address",
          "name": "to",
          "type": "address"
        },
        {
          "internalType": "uint256",
          "name": "tokenId",
          "type": "uint256"
        }
      ],
      "name": "approve",
      "outputs": [],
      "stateMutability": "nonpayable",
      "type": "function"
    },
    {
      "inputs": [
        {
          "internalType": "uint256",
          "name": "communityId",
          "type": "uint256"
        },
        {
          "internalType": "address[]",
          "name": "approvedFor",
          "type": "address[]"
        },
        {
          "internalType": "string[]",
          "name": "uri",
          "type": "string[]"
        },
        {
          "internalType": "string[]",
          "name": "customIdentifier",
          "type": "string[]"
        }
      ],
      "name": "approveBadge",
      "outputs": [],
      "stateMutability": "nonpayable",
      "type": "function"
    },
    {
      "inputs": [
        {
          "internalType": "address",
          "name": "owner",
          "type": "address"
        }
      ],
      "name": "balanceOf",
      "outputs": [
        {
          "internalType": "uint256",
          "name": "",
          "type": "uint256"
        }
      ],
      "stateMutability": "view",
      "type": "function"
    },
    {
      "inputs": [
        {
          "internalType": "uint256[]",
          "name": "tokenIds",
          "type": "uint256[]"
        }
      ],
      "name": "claim",
      "outputs": [],
      "stateMutability": "nonpayable",
      "type": "function"
    },
    {
      "inputs": [
        {
          "internalType": "uint256",
          "name": "community_id",
          "type": "uint256"
        }
      ],
      "name": "community",
      "outputs": [
        {
          "components": [
            {
              "internalType": "string",
              "name": "name",
              "type": "string"
            },
            {
              "internalType": "bool",
              "name": "initiated",
              "type": "bool"
            }
          ],
          "internalType": "struct POCP.Community",
          "name": "",
          "type": "tuple"
        }
      ],
      "stateMutability": "view",
      "type": "function"
    },
    {
      "inputs": [
        {
          "internalType": "uint256",
          "name": "communityId",
          "type": "uint256"
        }
      ],
      "name": "communityTokens",
      "outputs": [
        {
          "internalType": "uint256[]",
          "name": "",
          "type": "uint256[]"
        }
      ],
      "stateMutability": "view",
      "type": "function"
    },
    {
      "inputs": [
        {
          "internalType": "bytes32",
          "name": "",
          "type": "bytes32"
        }
      ],
      "name": "daos",
      "outputs": [
        {
          "internalType": "bytes32",
          "name": "",
          "type": "bytes32"
        }
      ],
      "stateMutability": "view",
      "type": "function"
    },
    {
      "inputs": [
        {
          "internalType": "uint256",
          "name": "tokenId",
          "type": "uint256"
        }
      ],
      "name": "getApproved",
      "outputs": [
        {
          "internalType": "address",
          "name": "",
          "type": "address"
        }
      ],
      "stateMutability": "view",
      "type": "function"
    },
    {
      "inputs": [
        {
          "internalType": "bytes32",
          "name": "role",
          "type": "bytes32"
        }
      ],
      "name": "getRoleAdmin",
      "outputs": [
        {
          "internalType": "bytes32",
          "name": "",
          "type": "bytes32"
        }
      ],
      "stateMutability": "view",
      "type": "function"
    },
    {
      "inputs": [],
      "name": "getTrustedForwarder",
      "outputs": [
        {
          "internalType": "address",
          "name": "",
          "type": "address"
        }
      ],
      "stateMutability": "view",
      "type": "function"
    },
    {
      "inputs": [
        {
          "internalType": "bytes32",
          "name": "role",
          "type": "bytes32"
        },
        {
          "internalType": "address",
          "name": "account",
          "type": "address"
        }
      ],
      "name": "grantRole",
      "outputs": [],
      "stateMutability": "nonpayable",
      "type": "function"
    },
    {
      "inputs": [
        {
          "internalType": "bytes32",
          "name": "role",
          "type": "bytes32"
        },
        {
          "internalType": "address",
          "name": "account",
          "type": "address"
        }
      ],
      "name": "hasRole",
      "outputs": [
        {
          "internalType": "bool",
          "name": "",
          "type": "bool"
        }
      ],
      "stateMutability": "view",
      "type": "function"
    },
    {
      "inputs": [
        {
          "internalType": "address",
          "name": "trustedForwarder",
          "type": "address"
        }
      ],
      "name": "initialize",
      "outputs": [],
      "stateMutability": "nonpayable",
      "type": "function"
    },
    {
      "inputs": [
        {
          "internalType": "address",
          "name": "owner",
          "type": "address"
        },
        {
          "internalType": "address",
          "name": "operator",
          "type": "address"
        }
      ],
      "name": "isApprovedForAll",
      "outputs": [
        {
          "internalType": "bool",
          "name": "",
          "type": "bool"
        }
      ],
      "stateMutability": "view",
      "type": "function"
    },
    {
      "inputs": [
        {
          "internalType": "uint256",
          "name": "communityId",
          "type": "uint256"
        },
        {
          "internalType": "address",
          "name": "account",
          "type": "address"
        }
      ],
      "name": "isApprover",
      "outputs": [
        {
          "internalType": "bool",
          "name": "",
          "type": "bool"
        }
      ],
      "stateMutability": "view",
      "type": "function"
    },
    {
      "inputs": [
        {
          "internalType": "address",
          "name": "forwarder",
          "type": "address"
        }
      ],
      "name": "isTrustedForwarder",
      "outputs": [
        {
          "internalType": "bool",
          "name": "",
          "type": "bool"
        }
      ],
      "stateMutability": "view",
      "type": "function"
    },
    {
      "inputs": [],
      "name": "lastId",
      "outputs": [
        {
          "internalType": "uint256",
          "name": "",
          "type": "uint256"
        }
      ],
      "stateMutability": "view",
      "type": "function"
    },
    {
      "inputs": [],
      "name": "name",
      "outputs": [
        {
          "internalType": "string",
          "name": "",
          "type": "string"
        }
      ],
      "stateMutability": "view",
      "type": "function"
    },
    {
      "inputs": [
        {
          "internalType": "uint256",
          "name": "tokenId",
          "type": "uint256"
        }
      ],
      "name": "ownerOf",
      "outputs": [
        {
          "internalType": "address",
          "name": "",
          "type": "address"
        }
      ],
      "stateMutability": "view",
      "type": "function"
    },
    {
      "inputs": [],
      "name": "pause",
      "outputs": [],
      "stateMutability": "nonpayable",
      "type": "function"
    },
    {
      "inputs": [],
      "name": "paused",
      "outputs": [
        {
          "internalType": "bool",
          "name": "",
          "type": "bool"
        }
      ],
      "stateMutability": "view",
      "type": "function"
    },
    {
      "inputs": [
        {
          "internalType": "string",
          "name": "communityName",
          "type": "string"
        },
        {
          "internalType": "address[]",
          "name": "approvers",
          "type": "address[]"
        }
      ],
      "name": "register",
      "outputs": [],
      "stateMutability": "nonpayable",
      "type": "function"
    },
    {
      "inputs": [
        {
          "internalType": "uint256",
          "name": "communityId",
          "type": "uint256"
        },
        {
          "internalType": "address",
          "name": "account",
          "type": "address"
        }
      ],
      "name": "removeApprover",
      "outputs": [],
      "stateMutability": "nonpayable",
      "type": "function"
    },
    {
      "inputs": [
        {
          "internalType": "bytes32",
          "name": "role",
          "type": "bytes32"
        },
        {
          "internalType": "address",
          "name": "account",
          "type": "address"
        }
      ],
      "name": "renounceRole",
      "outputs": [],
      "stateMutability": "nonpayable",
      "type": "function"
    },
    {
      "inputs": [
        {
          "internalType": "bytes32",
          "name": "role",
          "type": "bytes32"
        },
        {
          "internalType": "address",
          "name": "account",
          "type": "address"
        }
      ],
      "name": "revokeRole",
      "outputs": [],
      "stateMutability": "nonpayable",
      "type": "function"
    },
    {
      "inputs": [
        {
          "internalType": "address",
          "name": "to",
          "type": "address"
        },
        {
          "internalType": "uint256",
          "name": "tokenId",
          "type": "uint256"
        }
      ],
      "name": "safeMint",
      "outputs": [],
      "stateMutability": "nonpayable",
      "type": "function"
    },
    {
      "inputs": [
        {
          "internalType": "address",
          "name": "from",
          "type": "address"
        },
        {
          "internalType": "address",
          "name": "to",
          "type": "address"
        },
        {
          "internalType": "uint256",
          "name": "tokenId",
          "type": "uint256"
        }
      ],
      "name": "safeTransferFrom",
      "outputs": [],
      "stateMutability": "nonpayable",
      "type": "function"
    },
    {
      "inputs": [
        {
          "internalType": "address",
          "name": "from",
          "type": "address"
        },
        {
          "internalType": "address",
          "name": "to",
          "type": "address"
        },
        {
          "internalType": "uint256",
          "name": "tokenId",
          "type": "uint256"
        },
        {
          "internalType": "bytes",
          "name": "_data",
          "type": "bytes"
        }
      ],
      "name": "safeTransferFrom",
      "outputs": [],
      "stateMutability": "nonpayable",
      "type": "function"
    },
    {
      "inputs": [
        {
          "internalType": "address",
          "name": "operator",
          "type": "address"
        },
        {
          "internalType": "bool",
          "name": "approved",
          "type": "bool"
        }
      ],
      "name": "setApprovalForAll",
      "outputs": [],
      "stateMutability": "nonpayable",
      "type": "function"
    },
    {
      "inputs": [
        {
          "internalType": "bytes4",
          "name": "interfaceId",
          "type": "bytes4"
        }
      ],
      "name": "supportsInterface",
      "outputs": [
        {
          "internalType": "bool",
          "name": "",
          "type": "bool"
        }
      ],
      "stateMutability": "view",
      "type": "function"
    },
    {
      "inputs": [],
      "name": "symbol",
      "outputs": [
        {
          "internalType": "string",
          "name": "",
          "type": "string"
        }
      ],
      "stateMutability": "view",
      "type": "function"
    },
    {
      "inputs": [
        {
          "internalType": "uint256",
          "name": "index",
          "type": "uint256"
        }
      ],
      "name": "tokenByIndex",
      "outputs": [
        {
          "internalType": "uint256",
          "name": "",
          "type": "uint256"
        }
      ],
      "stateMutability": "view",
      "type": "function"
    },
    {
      "inputs": [
        {
          "internalType": "address",
          "name": "owner",
          "type": "address"
        },
        {
          "internalType": "uint256",
          "name": "index",
          "type": "uint256"
        }
      ],
      "name": "tokenOfOwnerByIndex",
      "outputs": [
        {
          "internalType": "uint256",
          "name": "",
          "type": "uint256"
        }
      ],
      "stateMutability": "view",
      "type": "function"
    },
    {
      "inputs": [
        {
          "internalType": "uint256",
          "name": "tokenId",
          "type": "uint256"
        }
      ],
      "name": "tokenURI",
      "outputs": [
        {
          "internalType": "string",
          "name": "",
          "type": "string"
        }
      ],
      "stateMutability": "view",
      "type": "function"
    },
    {
      "inputs": [],
      "name": "totalCommunities",
      "outputs": [
        {
          "internalType": "uint256",
          "name": "",
          "type": "uint256"
        }
      ],
      "stateMutability": "view",
      "type": "function"
    },
    {
      "inputs": [],
      "name": "totalSupply",
      "outputs": [
        {
          "internalType": "uint256",
          "name": "",
          "type": "uint256"
        }
      ],
      "stateMutability": "view",
      "type": "function"
    },
    {
      "inputs": [
        {
          "internalType": "address",
          "name": "from",
          "type": "address"
        },
        {
          "internalType": "address",
          "name": "to",
          "type": "address"
        },
        {
          "internalType": "uint256",
          "name": "tokenId",
          "type": "uint256"
        }
      ],
      "name": "transferFrom",
      "outputs": [],
      "stateMutability": "nonpayable",
      "type": "function"
    },
    {
      "inputs": [],
      "name": "unpause",
      "outputs": [],
      "stateMutability": "nonpayable",
      "type": "function"
    },
    {
      "inputs": [
        {
          "internalType": "address",
          "name": "newImplementation",
          "type": "address"
        }
      ],
      "name": "upgradeTo",
      "outputs": [],
      "stateMutability": "nonpayable",
      "type": "function"
    },
    {
      "inputs": [
        {
          "internalType": "address",
          "name": "newImplementation",
          "type": "address"
        },
        {
          "internalType": "bytes",
          "name": "data",
          "type": "bytes"
        }
      ],
      "name": "upgradeToAndCall",
      "outputs": [],
      "stateMutability": "payable",
      "type": "function"
    },
    {
      "inputs": [
        {
          "internalType": "uint8",
          "name": "tokenId",
          "type": "uint8"
        }
      ],
      "name": "userBadge",
      "outputs": [
        {
          "components": [
            {
              "internalType": "string",
              "name": "uri",
              "type": "string"
            },
            {
              "internalType": "address",
              "name": "approvedBy",
              "type": "address"
            },
            {
              "internalType": "bool",
              "name": "claimed",
              "type": "bool"
            },
            {
              "internalType": "bool",
              "name": "initiated",
              "type": "bool"
            },
            {
              "internalType": "uint256",
              "name": "communityId",
              "type": "uint256"
            }
          ],
          "internalType": "struct POCP.Badge",
          "name": "badge",
          "type": "tuple"
        }
      ],
      "stateMutability": "view",
      "type": "function"
    },
    {
      "inputs": [],
      "name": "userBadgeIds",
      "outputs": [
        {
          "internalType": "uint256[]",
          "name": "badgeIds",
          "type": "uint256[]"
        }
      ],
      "stateMutability": "view",
      "type": "function"
    }
  ],
  "bytecode": "0x60a06040523060601b60805234801561001757600080fd5b5060805160601c613f6f61004b600039600081816111ab015281816111eb0152818161129701526112d70152613f6f6000f3fe60806040526004361061027d5760003560e01c80636ba4c1381161014f578063c3759eb8116100c1578063d547741f1161007a578063d547741f14610780578063dc349a3b146107a0578063e63ab1e9146107cd578063e985e9c5146107ef578063f72c0d8b14610838578063fcb4d2061461086c57600080fd5b8063c3759eb8146106bf578063c4d66de8146106df578063c87b56dd146106ff578063c9ab9cf61461071f578063ce1b815f14610741578063d3e4047a1461076057600080fd5b8063a144819411610113578063a144819414610618578063a217fddf14610638578063a22cb4651461064d578063b88d4fde1461066d578063bb6c352c14610688578063c1292cc3146106a857600080fd5b80636ba4c1381461058e57806370a08231146105ae5780638456cb59146105ce57806391d14854146105e357806395d89b411461060357600080fd5b80632fa2cc4e116101f35780634f1ef286116101ac5780634f1ef286146104d35780634f6ccce7146104e65780635317234e14610506578063572b6c05146105265780635c975abb146105565780636352211e1461056e57600080fd5b80632fa2cc4e146104305780632faf59d41461045e57806336568abe1461047e5780633659cfe61461049e5780633f4ba83a146104be57806342842e0e1461039f57600080fd5b806318160ddd1161024557806318160ddd146103605780632070fea51461037f57806323b872dd1461039f578063248a9ca3146103bf5780632f2ff15d146103f05780632f745c591461041057600080fd5b806301ffc9a71461028257806306fdde03146102b7578063081812fc146102d9578063095ea7b31461031157806314de72d414610333575b600080fd5b34801561028e57600080fd5b506102a261029d36600461378a565b610883565b60405190151581526020015b60405180910390f35b3480156102c357600080fd5b506102cc610894565b6040516102ae9190613a81565b3480156102e557600080fd5b506102f96102f4366004613750565b610926565b6040516001600160a01b0390911681526020016102ae565b34801561031d57600080fd5b5061033161032c3660046136e7565b6109c0565b005b34801561033f57600080fd5b5061035361034e366004613750565b610ae8565b6040516102ae9190613c71565b34801561036c57600080fd5b506099545b6040519081526020016102ae565b34801561038b57600080fd5b5061033161039a366004613890565b610bbe565b3480156103ab57600080fd5b506103316103ba3660046135c0565b610f0c565b3480156103cb57600080fd5b506103716103da366004613750565b60009081526101c6602052604090206001015490565b3480156103fc57600080fd5b5061033161040b366004613768565b610f4b565b34801561041c57600080fd5b5061037161042b3660046136e7565b610f79565b34801561043c57600080fd5b5061037161044b366004613750565b61012d6020526000908152604090205481565b34801561046a57600080fd5b506103316104793660046137a6565b61100f565b34801561048a57600080fd5b50610331610499366004613768565b611112565b3480156104aa57600080fd5b506103316104b9366004613574565b6111a0565b3480156104ca57600080fd5b50610331611269565b6103316104e136600461369b565b61128c565b3480156104f257600080fd5b50610371610501366004613750565b611342565b34801561051257600080fd5b50610331610521366004613768565b6113e3565b34801561053257600080fd5b506102a2610541366004613574565b61022b546001600160a01b0391821691161490565b34801561056257600080fd5b5060fb5460ff166102a2565b34801561057a57600080fd5b506102f9610589366004613750565b611440565b34801561059a57600080fd5b506103316105a9366004613710565b6114b7565b3480156105ba57600080fd5b506103716105c9366004613574565b61171c565b3480156105da57600080fd5b506103316117a3565b3480156105ef57600080fd5b506102a26105fe366004613768565b6117c6565b34801561060f57600080fd5b506102cc6117f2565b34801561062457600080fd5b506103316106333660046136e7565b611801565b34801561064457600080fd5b50610371600081565b34801561065957600080fd5b50610331610668366004613661565b61183c565b34801561067957600080fd5b506103316103ba3660046135fb565b34801561069457600080fd5b506103316106a3366004613768565b61184e565b3480156106b457600080fd5b506103716102315481565b3480156106cb57600080fd5b506102a26106da366004613768565b6118a5565b3480156106eb57600080fd5b506103316106fa366004613574565b6118d1565b34801561070b57600080fd5b506102cc61071a366004613750565b611a24565b34801561072b57600080fd5b50610734611a2f565b6040516102ae9190613a3d565b34801561074d57600080fd5b5061022b546001600160a01b03166102f9565b34801561076c57600080fd5b5061073461077b366004613750565b611ab1565b34801561078c57600080fd5b5061033161079b366004613768565b611b14565b3480156107ac57600080fd5b506107c06107bb366004613930565b611b3d565b6040516102ae9190613c15565b3480156107d957600080fd5b50610371600080516020613ef383398151915281565b3480156107fb57600080fd5b506102a261080a36600461358e565b6001600160a01b039182166000908152606a6020908152604080832093909416825291909152205460ff1690565b34801561084457600080fd5b506103717f189ab7a9244df0848122154315af71fe140f3db0fe014031783b0946b8c9d2e381565b34801561087857600080fd5b5061037161022d5481565b600061088e82611c8d565b92915050565b6060606580546108a390613e30565b80601f01602080910402602001604051908101604052809291908181526020018280546108cf90613e30565b801561091c5780601f106108f15761010080835404028352916020019161091c565b820191906000526020600020905b8154815290600101906020018083116108ff57829003601f168201915b5050505050905090565b6000818152606760205260408120546001600160a01b03166109a45760405162461bcd60e51b815260206004820152602c60248201527f4552433732313a20617070726f76656420717565727920666f72206e6f6e657860448201526b34b9ba32b73a103a37b5b2b760a11b60648201526084015b60405180910390fd5b506000908152606960205260409020546001600160a01b031690565b60006109cb82611440565b9050806001600160a01b0316836001600160a01b03161415610a395760405162461bcd60e51b815260206004820152602160248201527f4552433732313a20617070726f76616c20746f2063757272656e74206f776e656044820152603960f91b606482015260840161099b565b806001600160a01b0316610a4b611cb2565b6001600160a01b03161480610a675750610a678161080a611cb2565b610ad95760405162461bcd60e51b815260206004820152603860248201527f4552433732313a20617070726f76652063616c6c6572206973206e6f74206f7760448201527f6e6572206e6f7220617070726f76656420666f7220616c6c0000000000000000606482015260840161099b565b610ae38383611cdb565b505050565b604080518082019091526060815260006020820152600082815261022c6020526040908190208151808301909252805482908290610b2590613e30565b80601f0160208091040260200160405190810160405280929190818152602001828054610b5190613e30565b8015610b9e5780601f10610b7357610100808354040283529160200191610b9e565b820191906000526020600020905b815481529060010190602001808311610b8157829003601f168201915b50505091835250506001919091015460ff16151560209091015292915050565b60fb5460ff1615610be15760405162461bcd60e51b815260040161099b90613b2c565b86610bea611cb2565b610bf482826118a5565b80610c12575060008281526101f8602052604090206001015460ff16155b610c2e5760405162461bcd60e51b815260040161099b90613ba4565b8685148015610c3c57508483145b610c7f5760405162461bcd60e51b815260206004820152601460248201527320b933bab6b2b73a1034b7383aba1032b93937b960611b604482015260640161099b565b60005b87811015610f00576040518060a00160405280888884818110610cb557634e487b7160e01b600052603260045260246000fd5b9050602002810190610cc79190613d15565b8080601f016020809104026020016040519081016040528093929190818152602001838380828437600092019190915250505090825250602001610d09611cb2565b6001600160a01b031681526000602082018190526001604083015260609091018c905261022f908b8b85818110610d5057634e487b7160e01b600052603260045260246000fd5b9050602002016020810190610d659190613574565b6001600160a01b0316815260208082019290925260409081016000908120610231548252835220825180519192610da1928492909101906133fe565b506020820151600182018054604085015160608601511515600160a81b0260ff60a81b19911515600160a01b026001600160a81b03199093166001600160a01b0390951694909417919091171691909117905560809091015160029091015561023060008a8a84818110610e2557634e487b7160e01b600052603260045260246000fd5b9050602002016020810190610e3a9190613574565b6001600160a01b0316815260208082019290925260400160009081206102315481546001810183559183529290912001557fb8f7809d63e43e2392764e5ad5996eadadc7dd8a5b1edda5d7e0dbd0cfec2e5a8a868684818110610ead57634e487b7160e01b600052603260045260246000fd5b9050602002810190610ebf9190613d15565b61023154604051610ed39493929190613ca5565b60405180910390a161023154610eea906001613d8b565b6102315580610ef881613e6b565b915050610c82565b50505050505050505050565b60405162461bcd60e51b8152602060048201526014602482015273151c985b9cd9995c881b9bdd08105b1b1bddd95960621b604482015260640161099b565b60008281526101c66020526040902060010154610f6f81610f6a611cb2565b611d49565b610ae38383611dad565b6000610f848361171c565b8210610fe65760405162461bcd60e51b815260206004820152602b60248201527f455243373231456e756d657261626c653a206f776e657220696e646578206f7560448201526a74206f6620626f756e647360a81b606482015260840161099b565b506001600160a01b03919091166000908152609760209081526040808320938352929052205490565b61022d546040805180820182528481526001602080830191909152600084815261022c825292909220815180519293849361104d92849201906133fe565b50602091909101516001918201805460ff191691151591909117905561022d5461107691613d8b565b61022d5560005b83518110156110c9576110b7838583815181106110aa57634e487b7160e01b600052603260045260246000fd5b60200260200101516113e3565b806110c181613e6b565b91505061107d565b507face92cf234a98ee3719291804162de627309cddd21cca99a54eae87cce7a98bf82856110f5611cb2565b60405161110493929190613ce4565b60405180910390a150505050565b61111a611cb2565b6001600160a01b0316816001600160a01b0316146111925760405162461bcd60e51b815260206004820152602f60248201527f416363657373436f6e74726f6c3a2063616e206f6e6c792072656e6f756e636560448201526e103937b632b9903337b91039b2b63360891b606482015260840161099b565b61119c8282611e35565b5050565b306001600160a01b037f00000000000000000000000000000000000000000000000000000000000000001614156111e95760405162461bcd60e51b815260040161099b90613a94565b7f00000000000000000000000000000000000000000000000000000000000000006001600160a01b031661121b611ebb565b6001600160a01b0316146112415760405162461bcd60e51b815260040161099b90613ae0565b61124a81611ee9565b6040805160008082526020820190925261126691839190611f16565b50565b600080516020613ef383398151915261128481610f6a611cb2565b611266612061565b306001600160a01b037f00000000000000000000000000000000000000000000000000000000000000001614156112d55760405162461bcd60e51b815260040161099b90613a94565b7f00000000000000000000000000000000000000000000000000000000000000006001600160a01b0316611307611ebb565b6001600160a01b03161461132d5760405162461bcd60e51b815260040161099b90613ae0565b61133682611ee9565b61119c82826001611f16565b600061134d60995490565b82106113b05760405162461bcd60e51b815260206004820152602c60248201527f455243373231456e756d657261626c653a20676c6f62616c20696e646578206f60448201526b7574206f6620626f756e647360a01b606482015260840161099b565b609982815481106113d157634e487b7160e01b600052603260045260246000fd5b90600052602060002001549050919050565b816113ec611cb2565b6113f682826118a5565b80611414575060008281526101f8602052604090206001015460ff16155b6114305760405162461bcd60e51b815260040161099b90613ba4565b61143a84846120fa565b50505050565b6000818152606760205260408120546001600160a01b03168061088e5760405162461bcd60e51b815260206004820152602960248201527f4552433732313a206f776e657220717565727920666f72206e6f6e657869737460448201526832b73a103a37b5b2b760b91b606482015260840161099b565b60fb5460ff16156114da5760405162461bcd60e51b815260040161099b90613b2c565b806115205760405162461bcd60e51b8152602060048201526016602482015275746f6b656e496473206c69737420697320656d70747960501b604482015260640161099b565b60005b81811015610ae357600083838381811061154d57634e487b7160e01b600052603260045260246000fd5b905060200201359050600061022f6000611565611cb2565b6001600160a01b031681526020808201929092526040908101600090812085825290925290206001810154909150600160a01b900460ff161580156115b95750600181810154600160a81b900460ff161515145b156117075760018101546115d6906001600160a01b03168361217f565b61166c828260000180546115e990613e30565b80601f016020809104026020016040519081016040528092919081815260200182805461161590613e30565b80156116625780601f1061163757610100808354040283529160200191611662565b820191906000526020600020905b81548152906001019060200180831161164557829003601f168201915b50505050506122cd565b60028101546040805184815260208101929092527f0c86f3fbd292584ffcc982f3252f26626221d8953c2d1a00ce6ef24a906cb720910160405180910390a160018101546116cb906001600160a01b03166116c5611cb2565b84612367565b6001818101805460ff60a01b1916600160a01b1790556002820154600090815261022e6020908152604082208054938401815582529020018290555b5050808061171490613e6b565b915050611523565b60006001600160a01b0382166117875760405162461bcd60e51b815260206004820152602a60248201527f4552433732313a2062616c616e636520717565727920666f7220746865207a65604482015269726f206164647265737360b01b606482015260840161099b565b506001600160a01b031660009081526068602052604090205490565b600080516020613ef38339815191526117be81610f6a611cb2565b611266612512565b60009182526101c6602090815260408084206001600160a01b0393909316845291905290205460ff1690565b6060606680546108a390613e30565b60405162461bcd60e51b815260206004820152601060248201526f135a5b9d081b9bdd08105b1b1bddd95960821b604482015260640161099b565b61119c611847611cb2565b838361256b565b81611857611cb2565b61186182826118a5565b8061187f575060008281526101f8602052604090206001015460ff16155b61189b5760405162461bcd60e51b815260040161099b90613ba4565b61143a848461263a565b60009182526101f8602090815260408084206001600160a01b0393909316845291905290205460ff1690565b600054610100900460ff166118ec5760005460ff16156118f0565b303b155b61190c5760405162461bcd60e51b815260040161099b90613b56565b600054610100900460ff1615801561192e576000805461ffff19166101011790555b611970604051806040016040528060048152602001630504f43560e41b815250604051806040016040528060048152602001630504f43560e41b8152506126a2565b6119786126e3565b6119806126e3565b611988612724565b61199061275b565b6119df6040518060400160405280601081526020016f223932b83aba32a337b93bb0b93232b960811b81525060405180604001604052806005815260200164302e302e3160d81b815250612782565b6119e76127b3565b61022b80546001600160a01b0319166001600160a01b038416179055600061022d55600161023155801561119c576000805461ff00191690555050565b606061088e82612884565b60606102306000611a3e611cb2565b6001600160a01b03166001600160a01b0316815260200190815260200160002080548060200260200160405190810160405280929190818152602001828054801561091c57602002820191906000526020600020905b815481526020019060010190808311611a94575050505050905090565b600081815261022e6020908152604091829020805483518184028101840190945280845260609392830182828015611b0857602002820191906000526020600020905b815481526020019060010190808311611af4575b50505050509050919050565b60008281526101c66020526040902060010154611b3381610f6a611cb2565b610ae38383611e35565b6040805160a08101825260608082526000602083018190529282018390528101829052608081019190915261022f6000611b75611cb2565b6001600160a01b03166001600160a01b0316815260200190815260200160002060008360ff1681526020019081526020016000206040518060a0016040529081600082018054611bc490613e30565b80601f0160208091040260200160405190810160405280929190818152602001828054611bf090613e30565b8015611c3d5780601f10611c1257610100808354040283529160200191611c3d565b820191906000526020600020905b815481529060010190602001808311611c2057829003601f168201915b505050918352505060018201546001600160a01b038116602083015260ff600160a01b8204811615156040840152600160a81b909104161515606082015260029091015460809091015292915050565b60006001600160e01b03198216637965db0b60e01b148061088e575061088e82612a0b565b61022b546000906001600160a01b0316331415611cd6575060131936013560601c90565b503390565b600081815260696020526040902080546001600160a01b0319166001600160a01b0384169081179091558190611d1082611440565b6001600160a01b03167f8c5be1e5ebec7d5bd14f71427d1e84f3dd0314c0f7b2291e5b200ac8c7c3b92560405160405180910390a45050565b611d5382826117c6565b61119c57611d6b816001600160a01b03166014612a30565b611d76836020612a30565b604051602001611d879291906139c8565b60408051601f198184030181529082905262461bcd60e51b825261099b91600401613a81565b611db782826117c6565b61119c5760008281526101c6602090815260408083206001600160a01b03851684529091529020805460ff19166001179055611df1611cb2565b6001600160a01b0316816001600160a01b0316837f2f8788117e7eff1d82e926ec794901d17c78024a50270940304540a733656f0d60405160405180910390a45050565b611e3f82826117c6565b1561119c5760008281526101c6602090815260408083206001600160a01b03851684529091529020805460ff19169055611e77611cb2565b6001600160a01b0316816001600160a01b0316837ff6391f5c32d9c69d2a47ea670b442974b53935d1edc7fd64eb21e047a839171b60405160405180910390a45050565b7f360894a13ba1a3210667c828492db98dca3e2076cc3735a920a3ca505d382bbc546001600160a01b031690565b7f189ab7a9244df0848122154315af71fe140f3db0fe014031783b0946b8c9d2e361119c81610f6a611cb2565b6000611f20611ebb565b9050611f2b84612c19565b600083511180611f385750815b15611f4957611f478484612cbe565b505b7f4910fdfa16fed3260ed0e7147f7cc6da11a60208b5b9406d12a635614ffd9143805460ff1661205a57805460ff191660011781556040516001600160a01b0383166024820152611fc890869060440160408051601f198184030181529190526020810180516001600160e01b0316631b2ce7f360e11b179052612cbe565b50805460ff19168155611fd9611ebb565b6001600160a01b0316826001600160a01b0316146120515760405162461bcd60e51b815260206004820152602f60248201527f45524331393637557067726164653a207570677261646520627265616b73206660448201526e75727468657220757067726164657360881b606482015260840161099b565b61205a85612da9565b5050505050565b60fb5460ff166120aa5760405162461bcd60e51b815260206004820152601460248201527314185d5cd8589b194e881b9bdd081c185d5cd95960621b604482015260640161099b565b60fb805460ff191690557f5db9ee0a495bf2e6ff9c91a7834c1ba4fdd244a5e8aa4e537bd38aeae4b073aa6120dd611cb2565b6040516001600160a01b03909116815260200160405180910390a1565b61210482826118a5565b61119c5760008281526101f8602081815260408084206001600160a01b0386168086528184528286208054600160ff1991821681179092558988529590945290830180549094169092179092559051909184917feca5cd72207e44a6cfefd583fd8df9a5498c3930b1c274e1a1c6d6318ba0cac49190a35050565b6001600160a01b0382166121d55760405162461bcd60e51b815260206004820181905260248201527f4552433732313a206d696e7420746f20746865207a65726f2061646472657373604482015260640161099b565b6000818152606760205260409020546001600160a01b03161561223a5760405162461bcd60e51b815260206004820152601c60248201527f4552433732313a20746f6b656e20616c7265616479206d696e74656400000000604482015260640161099b565b61224660008383612de9565b6001600160a01b038216600090815260686020526040812080546001929061226f908490613d8b565b909155505060008181526067602052604080822080546001600160a01b0319166001600160a01b03861690811790915590518392907fddf252ad1be2c89b69c2b068fc378daa952ba7f163c4a11628f55a4df523b3ef908290a45050565b6000828152606760205260409020546001600160a01b03166123485760405162461bcd60e51b815260206004820152602e60248201527f45524337323155524953746f726167653a2055524920736574206f66206e6f6e60448201526d32bc34b9ba32b73a103a37b5b2b760911b606482015260840161099b565b600082815260c9602090815260409091208251610ae3928401906133fe565b826001600160a01b031661237a82611440565b6001600160a01b0316146123e25760405162461bcd60e51b815260206004820152602960248201527f4552433732313a207472616e73666572206f6620746f6b656e2074686174206960448201526839903737ba1037bbb760b91b606482015260840161099b565b6001600160a01b0382166124445760405162461bcd60e51b8152602060048201526024808201527f4552433732313a207472616e7366657220746f20746865207a65726f206164646044820152637265737360e01b606482015260840161099b565b61244f838383612de9565b61245a600082611cdb565b6001600160a01b0383166000908152606860205260408120805460019290612483908490613dd6565b90915550506001600160a01b03821660009081526068602052604081208054600192906124b1908490613d8b565b909155505060008181526067602052604080822080546001600160a01b0319166001600160a01b0386811691821790925591518493918716917fddf252ad1be2c89b69c2b068fc378daa952ba7f163c4a11628f55a4df523b3ef91a4505050565b60fb5460ff16156125355760405162461bcd60e51b815260040161099b90613b2c565b60fb805460ff191660011790557f62e78cea01bee320cd4e420270b5ea74000d11b0c9f74754ebdbfc544b05a2586120dd611cb2565b816001600160a01b0316836001600160a01b031614156125cd5760405162461bcd60e51b815260206004820152601960248201527f4552433732313a20617070726f766520746f2063616c6c657200000000000000604482015260640161099b565b6001600160a01b038381166000818152606a6020908152604080832094871680845294825291829020805460ff191686151590811790915591519182527f17307eab39ab6107e8899845ad3d59bd9653f200f220920489ca2b5937696c31910160405180910390a3505050565b61264482826118a5565b1561119c5760008281526101f8602090815260408083206001600160a01b0385168085529252808320805460ff1916905551909184917f708f1c3522caddc3f4266f87a63148078e0803ccc35ab7b4bc729f5863f463539190a35050565b600054610100900460ff166126c95760405162461bcd60e51b815260040161099b90613bca565b6126d1612e17565b6126d9612e17565b61119c8282612e3e565b600054610100900460ff1661270a5760405162461bcd60e51b815260040161099b90613bca565b612712612e17565b61271a612e17565b612722612e17565b565b600054610100900460ff1661274b5760405162461bcd60e51b815260040161099b90613bca565b612753612e17565b612722612e8c565b600054610100900460ff166127125760405162461bcd60e51b815260040161099b90613bca565b600054610100900460ff166127a95760405162461bcd60e51b815260040161099b90613bca565b61119c8282612ebf565b600054610100900460ff166127ce5760005460ff16156127d2565b303b155b6127ee5760405162461bcd60e51b815260040161099b90613b56565b600054610100900460ff16158015612810576000805461ffff19166101011790555b6128186126e3565b61282a6000612825611cb2565b611dad565b612844600080516020613ef3833981519152612825611cb2565b6128707f189ab7a9244df0848122154315af71fe140f3db0fe014031783b0946b8c9d2e3612825611cb2565b8015611266576000805461ff001916905550565b6000818152606760205260409020546060906001600160a01b03166129055760405162461bcd60e51b815260206004820152603160248201527f45524337323155524953746f726167653a2055524920717565727920666f72206044820152703737b732bc34b9ba32b73a103a37b5b2b760791b606482015260840161099b565b600082815260c960205260408120805461291e90613e30565b80601f016020809104026020016040519081016040528092919081815260200182805461294a90613e30565b80156129975780601f1061296c57610100808354040283529160200191612997565b820191906000526020600020905b81548152906001019060200180831161297a57829003601f168201915b5050505050905060006129b560408051602081019091526000815290565b90508051600014156129c8575092915050565b8151156129fa5780826040516020016129e2929190613999565b60405160208183030381529060405292505050919050565b612a0384612f02565b949350505050565b60006001600160e01b0319821663780e9d6360e01b148061088e575061088e82612fe9565b60606000612a3f836002613db7565b612a4a906002613d8b565b67ffffffffffffffff811115612a7057634e487b7160e01b600052604160045260246000fd5b6040519080825280601f01601f191660200182016040528015612a9a576020820181803683370190505b509050600360fc1b81600081518110612ac357634e487b7160e01b600052603260045260246000fd5b60200101906001600160f81b031916908160001a905350600f60fb1b81600181518110612b0057634e487b7160e01b600052603260045260246000fd5b60200101906001600160f81b031916908160001a9053506000612b24846002613db7565b612b2f906001613d8b565b90505b6001811115612bc3576f181899199a1a9b1b9c1cb0b131b232b360811b85600f1660108110612b7157634e487b7160e01b600052603260045260246000fd5b1a60f81b828281518110612b9557634e487b7160e01b600052603260045260246000fd5b60200101906001600160f81b031916908160001a90535060049490941c93612bbc81613e19565b9050612b32565b508315612c125760405162461bcd60e51b815260206004820181905260248201527f537472696e67733a20686578206c656e67746820696e73756666696369656e74604482015260640161099b565b9392505050565b803b612c7d5760405162461bcd60e51b815260206004820152602d60248201527f455243313936373a206e657720696d706c656d656e746174696f6e206973206e60448201526c1bdd08184818dbdb9d1c9858dd609a1b606482015260840161099b565b7f360894a13ba1a3210667c828492db98dca3e2076cc3735a920a3ca505d382bbc80546001600160a01b0319166001600160a01b0392909216919091179055565b6060823b612d1d5760405162461bcd60e51b815260206004820152602660248201527f416464726573733a2064656c65676174652063616c6c20746f206e6f6e2d636f6044820152651b9d1c9858dd60d21b606482015260840161099b565b600080846001600160a01b031684604051612d38919061397d565b600060405180830381855af49150503d8060008114612d73576040519150601f19603f3d011682016040523d82523d6000602084013e612d78565b606091505b5091509150612da08282604051806060016040528060278152602001613f1360279139613039565b95945050505050565b612db281612c19565b6040516001600160a01b038216907fbc7cd75a20ee27fd9adebab32041f755214dbc6bffa90cc0225b39da2e5c2d3b90600090a250565b60fb5460ff1615612e0c5760405162461bcd60e51b815260040161099b90613b2c565b610ae3838383613072565b600054610100900460ff166127225760405162461bcd60e51b815260040161099b90613bca565b600054610100900460ff16612e655760405162461bcd60e51b815260040161099b90613bca565b8151612e789060659060208501906133fe565b508051610ae39060669060208401906133fe565b600054610100900460ff16612eb35760405162461bcd60e51b815260040161099b90613bca565b60fb805460ff19169055565b600054610100900460ff16612ee65760405162461bcd60e51b815260040161099b90613bca565b8151602092830120815191909201206101929190915561019355565b6000818152606760205260409020546060906001600160a01b0316612f815760405162461bcd60e51b815260206004820152602f60248201527f4552433732314d657461646174613a2055524920717565727920666f72206e6f60448201526e3732bc34b9ba32b73a103a37b5b2b760891b606482015260840161099b565b6000612f9860408051602081019091526000815290565b90506000815111612fb85760405180602001604052806000815250612c12565b80612fc28461312a565b604051602001612fd3929190613999565b6040516020818303038152906040529392505050565b60006001600160e01b031982166380ac58cd60e01b148061301a57506001600160e01b03198216635b5e139f60e01b145b8061088e57506301ffc9a760e01b6001600160e01b031983161461088e565b60608315613048575081612c12565b8251156130585782518084602001fd5b8160405162461bcd60e51b815260040161099b9190613a81565b6001600160a01b0383166130cd576130c881609980546000838152609a60205260408120829055600182018355919091527f72a152ddfb8e864297c917af52ea6c1c68aead0fee1a62673fcc7e0c94979d000155565b6130f0565b816001600160a01b0316836001600160a01b0316146130f0576130f08382613244565b6001600160a01b03821661310757610ae3816132e1565b826001600160a01b0316826001600160a01b031614610ae357610ae382826133ba565b60608161314e5750506040805180820190915260018152600360fc1b602082015290565b8160005b8115613178578061316281613e6b565b91506131719050600a83613da3565b9150613152565b60008167ffffffffffffffff8111156131a157634e487b7160e01b600052604160045260246000fd5b6040519080825280601f01601f1916602001820160405280156131cb576020820181803683370190505b5090505b8415612a03576131e0600183613dd6565b91506131ed600a86613e86565b6131f8906030613d8b565b60f81b81838151811061321b57634e487b7160e01b600052603260045260246000fd5b60200101906001600160f81b031916908160001a90535061323d600a86613da3565b94506131cf565b600060016132518461171c565b61325b9190613dd6565b6000838152609860205260409020549091508082146132ae576001600160a01b03841660009081526097602090815260408083208584528252808320548484528184208190558352609890915290208190555b5060009182526098602090815260408084208490556001600160a01b039094168352609781528383209183525290812055565b6099546000906132f390600190613dd6565b6000838152609a60205260408120546099805493945090928490811061332957634e487b7160e01b600052603260045260246000fd5b90600052602060002001549050806099838154811061335857634e487b7160e01b600052603260045260246000fd5b6000918252602080832090910192909255828152609a9091526040808220849055858252812055609980548061339e57634e487b7160e01b600052603160045260246000fd5b6001900381819060005260206000200160009055905550505050565b60006133c58361171c565b6001600160a01b039093166000908152609760209081526040808320868452825280832085905593825260989052919091209190915550565b82805461340a90613e30565b90600052602060002090601f01602090048101928261342c5760008555613472565b82601f1061344557805160ff1916838001178555613472565b82800160010185558215613472579182015b82811115613472578251825591602001919060010190613457565b5061347e929150613482565b5090565b5b8082111561347e5760008155600101613483565b600067ffffffffffffffff8311156134b1576134b1613ec6565b6134c4601f8401601f1916602001613d5a565b90508281528383830111156134d857600080fd5b828260208301376000602084830101529392505050565b80356001600160a01b038116811461350657600080fd5b919050565b60008083601f84011261351c578182fd5b50813567ffffffffffffffff811115613533578182fd5b6020830191508360208260051b850101111561354e57600080fd5b9250929050565b600082601f830112613565578081fd5b612c1283833560208501613497565b600060208284031215613585578081fd5b612c12826134ef565b600080604083850312156135a0578081fd5b6135a9836134ef565b91506135b7602084016134ef565b90509250929050565b6000806000606084860312156135d4578081fd5b6135dd846134ef565b92506135eb602085016134ef565b9150604084013590509250925092565b60008060008060808587031215613610578081fd5b613619856134ef565b9350613627602086016134ef565b925060408501359150606085013567ffffffffffffffff811115613649578182fd5b61365587828801613555565b91505092959194509250565b60008060408385031215613673578182fd5b61367c836134ef565b915060208301358015158114613690578182fd5b809150509250929050565b600080604083850312156136ad578182fd5b6136b6836134ef565b9150602083013567ffffffffffffffff8111156136d1578182fd5b6136dd85828601613555565b9150509250929050565b600080604083850312156136f9578182fd5b613702836134ef565b946020939093013593505050565b60008060208385031215613722578182fd5b823567ffffffffffffffff811115613738578283fd5b6137448582860161350b565b90969095509350505050565b600060208284031215613761578081fd5b5035919050565b6000806040838503121561377a578182fd5b823591506135b7602084016134ef565b60006020828403121561379b578081fd5b8135612c1281613edc565b600080604083850312156137b8578182fd5b823567ffffffffffffffff808211156137cf578384fd5b818501915085601f8301126137e2578384fd5b60206137f2878435838601613497565b945080860135925081831115613806578384fd5b828601925086601f840112613819578384fd5b82358281111561382b5761382b613ec6565b8060051b925061383c828401613d5a565b8181528281019085840185870185018b1015613856578788fd5b8796505b8387101561387f5761386b816134ef565b83526001969096019591840191840161385a565b508096505050505050509250929050565b60008060008060008060006080888a0312156138aa578485fd5b87359650602088013567ffffffffffffffff808211156138c8578687fd5b6138d48b838c0161350b565b909850965060408a01359150808211156138ec578485fd5b6138f88b838c0161350b565b909650945060608a0135915080821115613910578384fd5b5061391d8a828b0161350b565b989b979a50959850939692959293505050565b600060208284031215613941578081fd5b813560ff81168114612c12578182fd5b60008151808452613969816020860160208601613ded565b601f01601f19169290920160200192915050565b6000825161398f818460208701613ded565b9190910192915050565b600083516139ab818460208801613ded565b8351908301906139bf818360208801613ded565b01949350505050565b7f416363657373436f6e74726f6c3a206163636f756e7420000000000000000000815260008351613a00816017850160208801613ded565b7001034b99036b4b9b9b4b733903937b6329607d1b6017918401918201528351613a31816028840160208801613ded565b01602801949350505050565b6020808252825182820181905260009190848201906040850190845b81811015613a7557835183529284019291840191600101613a59565b50909695505050505050565b602081526000612c126020830184613951565b6020808252602c908201527f46756e6374696f6e206d7573742062652063616c6c6564207468726f7567682060408201526b19195b1959d85d1958d85b1b60a21b606082015260800190565b6020808252602c908201527f46756e6374696f6e206d7573742062652063616c6c6564207468726f7567682060408201526b6163746976652070726f787960a01b606082015260800190565b60208082526010908201526f14185d5cd8589b194e881c185d5cd95960821b604082015260600190565b6020808252602e908201527f496e697469616c697a61626c653a20636f6e747261637420697320616c72656160408201526d191e481a5b9a5d1a585b1a5e995960921b606082015260800190565b6020808252600c908201526b2737ba1020b8383937bb32b960a11b604082015260600190565b6020808252602b908201527f496e697469616c697a61626c653a20636f6e7472616374206973206e6f74206960408201526a6e697469616c697a696e6760a81b606082015260800190565b602081526000825160a06020840152613c3160c0840182613951565b905060018060a01b036020850151166040840152604084015115156060840152606084015115156080840152608084015160a08401528091505092915050565b602081526000825160406020840152613c8d6060840182613951565b90506020840151151560408401528091505092915050565b8481526060602082015282606082015282846080830137600080608085840101526080601f19601f860116830101905082604083015295945050505050565b838152606060208201526000613cfd6060830185613951565b905060018060a01b0383166040830152949350505050565b6000808335601e19843603018112613d2b578283fd5b83018035915067ffffffffffffffff821115613d45578283fd5b60200191503681900382131561354e57600080fd5b604051601f8201601f1916810167ffffffffffffffff81118282101715613d8357613d83613ec6565b604052919050565b60008219821115613d9e57613d9e613e9a565b500190565b600082613db257613db2613eb0565b500490565b6000816000190483118215151615613dd157613dd1613e9a565b500290565b600082821015613de857613de8613e9a565b500390565b60005b83811015613e08578181015183820152602001613df0565b8381111561143a5750506000910152565b600081613e2857613e28613e9a565b506000190190565b600181811c90821680613e4457607f821691505b60208210811415613e6557634e487b7160e01b600052602260045260246000fd5b50919050565b6000600019821415613e7f57613e7f613e9a565b5060010190565b600082613e9557613e95613eb0565b500690565b634e487b7160e01b600052601160045260246000fd5b634e487b7160e01b600052601260045260246000fd5b634e487b7160e01b600052604160045260246000fd5b6001600160e01b03198116811461126657600080fdfe65d7a28e3265b37a6474929f336521b332c1681b933f6cb9f3376673440d862a416464726573733a206c6f772d6c6576656c2064656c65676174652063616c6c206661696c6564a26469706673582212208b682b50de4585a4e4a3febc0bb5c0c7d3358a4a24ae148bc11df4a58c7274ac64736f6c63430008040033",
  "linkReferences": {},
  "deployedLinkReferences": {}
}