{
  "_format": "hh-sol-artifact-1",
  "contractName": "POCP",
  "sourceName": "contracts/POCP.sol",
  "abi": [
    {
      "anonymous": false,
      "inputs": [
        {
          "indexed": false,
          "internalType": "address",
          "name": "previousAdmin",
          "type": "address"
        },
        {
          "indexed": false,
          "internalType": "address",
          "name": "newAdmin",
          "type": "address"
        }
      ],
      "name": "AdminChanged",
      "type": "event"
    },
    {
      "anonymous": false,
      "inputs": [
        {
          "indexed": true,
          "internalType": "address",
          "name": "owner",
          "type": "address"
        },
        {
          "indexed": true,
          "internalType": "address",
          "name": "approved",
          "type": "address"
        },
        {
          "indexed": true,
          "internalType": "uint256",
          "name": "tokenId",
          "type": "uint256"
        }
      ],
      "name": "Approval",
      "type": "event"
    },
    {
      "anonymous": false,
      "inputs": [
        {
          "indexed": true,
          "internalType": "address",
          "name": "owner",
          "type": "address"
        },
        {
          "indexed": true,
          "internalType": "address",
          "name": "operator",
          "type": "address"
        },
        {
          "indexed": false,
          "internalType": "bool",
          "name": "approved",
          "type": "bool"
        }
      ],
      "name": "ApprovalForAll",
      "type": "event"
    },
    {
      "anonymous": false,
      "inputs": [
        {
          "indexed": false,
          "internalType": "uint256",
          "name": "communityId",
          "type": "uint256"
        },
        {
          "indexed": false,
          "internalType": "string",
          "name": "customIdentifier",
          "type": "string"
        },
        {
          "indexed": false,
          "internalType": "uint256",
          "name": "tokenId",
          "type": "uint256"
        }
      ],
      "name": "ApprovedBadge",
      "type": "event"
    },
    {
      "anonymous": false,
      "inputs": [
        {
          "indexed": true,
          "internalType": "uint256",
          "name": "communityId",
          "type": "uint256"
        },
        {
          "indexed": true,
          "internalType": "address",
          "name": "account",
          "type": "address"
        }
      ],
      "name": "ApproverAdded",
      "type": "event"
    },
    {
      "anonymous": false,
      "inputs": [
        {
          "indexed": true,
          "internalType": "uint256",
          "name": "communityId",
          "type": "uint256"
        },
        {
          "indexed": true,
          "internalType": "address",
          "name": "account",
          "type": "address"
        }
      ],
      "name": "ApproverRemoved",
      "type": "event"
    },
    {
      "anonymous": false,
      "inputs": [
        {
          "indexed": true,
          "internalType": "address",
          "name": "beacon",
          "type": "address"
        }
      ],
      "name": "BeaconUpgraded",
      "type": "event"
    },
    {
      "anonymous": false,
      "inputs": [
        {
          "indexed": false,
          "internalType": "uint256",
          "name": "tokenId",
          "type": "uint256"
        },
        {
          "indexed": false,
          "internalType": "uint256",
          "name": "communityId",
          "type": "uint256"
        }
      ],
      "name": "ClaimedBadge",
      "type": "event"
    },
    {
      "anonymous": false,
      "inputs": [
        {
          "indexed": false,
          "internalType": "uint256",
          "name": "communityId",
          "type": "uint256"
        },
        {
          "indexed": false,
          "internalType": "string",
          "name": "communityName",
          "type": "string"
        },
        {
          "indexed": false,
          "internalType": "address",
          "name": "txSigner",
          "type": "address"
        }
      ],
      "name": "CommunityRegistered",
      "type": "event"
    },
    {
      "anonymous": false,
      "inputs": [
        {
          "indexed": false,
          "internalType": "address",
          "name": "account",
          "type": "address"
        }
      ],
      "name": "Paused",
      "type": "event"
    },
    {
      "anonymous": false,
      "inputs": [
        {
          "indexed": true,
          "internalType": "bytes32",
          "name": "role",
          "type": "bytes32"
        },
        {
          "indexed": true,
          "internalType": "bytes32",
          "name": "previousAdminRole",
          "type": "bytes32"
        },
        {
          "indexed": true,
          "internalType": "bytes32",
          "name": "newAdminRole",
          "type": "bytes32"
        }
      ],
      "name": "RoleAdminChanged",
      "type": "event"
    },
    {
      "anonymous": false,
      "inputs": [
        {
          "indexed": true,
          "internalType": "bytes32",
          "name": "role",
          "type": "bytes32"
        },
        {
          "indexed": true,
          "internalType": "address",
          "name": "account",
          "type": "address"
        },
        {
          "indexed": true,
          "internalType": "address",
          "name": "sender",
          "type": "address"
        }
      ],
      "name": "RoleGranted",
      "type": "event"
    },
    {
      "anonymous": false,
      "inputs": [
        {
          "indexed": true,
          "internalType": "bytes32",
          "name": "role",
          "type": "bytes32"
        },
        {
          "indexed": true,
          "internalType": "address",
          "name": "account",
          "type": "address"
        },
        {
          "indexed": true,
          "internalType": "address",
          "name": "sender",
          "type": "address"
        }
      ],
      "name": "RoleRevoked",
      "type": "event"
    },
    {
      "anonymous": false,
      "inputs": [
        {
          "indexed": true,
          "internalType": "address",
          "name": "from",
          "type": "address"
        },
        {
          "indexed": true,
          "internalType": "address",
          "name": "to",
          "type": "address"
        },
        {
          "indexed": true,
          "internalType": "uint256",
          "name": "tokenId",
          "type": "uint256"
        }
      ],
      "name": "Transfer",
      "type": "event"
    },
    {
      "anonymous": false,
      "inputs": [
        {
          "indexed": false,
          "internalType": "address",
          "name": "account",
          "type": "address"
        }
      ],
      "name": "Unpaused",
      "type": "event"
    },
    {
      "anonymous": false,
      "inputs": [
        {
          "indexed": true,
          "internalType": "address",
          "name": "implementation",
          "type": "address"
        }
      ],
      "name": "Upgraded",
      "type": "event"
    },
    {
      "anonymous": false,
      "inputs": [
        {
          "indexed": false,
          "internalType": "uint256",
          "name": "approvedFor",
          "type": "uint256"
        }
      ],
      "name": "Voucher",
      "type": "event"
    },
    {
      "inputs": [],
      "name": "DEFAULT_ADMIN_ROLE",
      "outputs": [
        {
          "internalType": "bytes32",
          "name": "",
          "type": "bytes32"
        }
      ],
      "stateMutability": "view",
      "type": "function"
    },
    {
      "inputs": [],
      "name": "PAUSER_ROLE",
      "outputs": [
        {
          "internalType": "bytes32",
          "name": "",
          "type": "bytes32"
        }
      ],
      "stateMutability": "view",
      "type": "function"
    },
    {
      "inputs": [],
      "name": "UPGRADER_ROLE",
      "outputs": [
        {
          "internalType": "bytes32",
          "name": "",
          "type": "bytes32"
        }
      ],
      "stateMutability": "view",
      "type": "function"
    },
    {
      "inputs": [
        {
          "internalType": "uint256",
          "name": "communityId",
          "type": "uint256"
        },
        {
          "internalType": "address",
          "name": "account",
          "type": "address"
        }
      ],
      "name": "addApprover",
      "outputs": [],
      "stateMutability": "nonpayable",
      "type": "function"
    },
    {
      "inputs": [
        {
          "internalType": "address",
          "name": "to",
          "type": "address"
        },
        {
          "internalType": "uint256",
          "name": "tokenId",
          "type": "uint256"
        }
      ],
      "name": "approve",
      "outputs": [],
      "stateMutability": "nonpayable",
      "type": "function"
    },
    {
      "inputs": [
        {
          "internalType": "uint256",
          "name": "communityId",
          "type": "uint256"
        },
        {
          "internalType": "address[]",
          "name": "approvedFor",
          "type": "address[]"
        },
        {
          "internalType": "string[]",
          "name": "uri",
          "type": "string[]"
        },
        {
          "internalType": "string[]",
          "name": "customIdentifier",
          "type": "string[]"
        }
      ],
      "name": "approveBadge",
      "outputs": [],
      "stateMutability": "nonpayable",
      "type": "function"
    },
    {
      "inputs": [
        {
          "internalType": "address",
          "name": "owner",
          "type": "address"
        }
      ],
      "name": "balanceOf",
      "outputs": [
        {
          "internalType": "uint256",
          "name": "",
          "type": "uint256"
        }
      ],
      "stateMutability": "view",
      "type": "function"
    },
    {
      "inputs": [
        {
          "internalType": "uint256[]",
          "name": "tokenIds",
          "type": "uint256[]"
        }
      ],
      "name": "claim",
      "outputs": [],
      "stateMutability": "nonpayable",
      "type": "function"
    },
    {
      "inputs": [
        {
          "internalType": "uint256",
          "name": "community_id",
          "type": "uint256"
        }
      ],
      "name": "community",
      "outputs": [
        {
          "components": [
            {
              "internalType": "string",
              "name": "name",
              "type": "string"
            },
            {
              "internalType": "bool",
              "name": "initiated",
              "type": "bool"
            }
          ],
          "internalType": "struct POCP.Community",
          "name": "",
          "type": "tuple"
        }
      ],
      "stateMutability": "view",
      "type": "function"
    },
    {
      "inputs": [
        {
          "internalType": "uint256",
          "name": "communityId",
          "type": "uint256"
        }
      ],
      "name": "communityTokens",
      "outputs": [
        {
          "internalType": "uint256[]",
          "name": "",
          "type": "uint256[]"
        }
      ],
      "stateMutability": "view",
      "type": "function"
    },
    {
      "inputs": [
        {
          "internalType": "bytes32",
          "name": "",
          "type": "bytes32"
        }
      ],
      "name": "daos",
      "outputs": [
        {
          "internalType": "bytes32",
          "name": "",
          "type": "bytes32"
        }
      ],
      "stateMutability": "view",
      "type": "function"
    },
    {
      "inputs": [
        {
          "internalType": "uint256",
          "name": "tokenId",
          "type": "uint256"
        }
      ],
      "name": "getApproved",
      "outputs": [
        {
          "internalType": "address",
          "name": "",
          "type": "address"
        }
      ],
      "stateMutability": "view",
      "type": "function"
    },
    {
      "inputs": [
        {
          "internalType": "bytes32",
          "name": "role",
          "type": "bytes32"
        }
      ],
      "name": "getRoleAdmin",
      "outputs": [
        {
          "internalType": "bytes32",
          "name": "",
          "type": "bytes32"
        }
      ],
      "stateMutability": "view",
      "type": "function"
    },
    {
      "inputs": [],
      "name": "getTrustedForwarder",
      "outputs": [
        {
          "internalType": "address",
          "name": "",
          "type": "address"
        }
      ],
      "stateMutability": "view",
      "type": "function"
    },
    {
      "inputs": [
        {
          "internalType": "bytes32",
          "name": "role",
          "type": "bytes32"
        },
        {
          "internalType": "address",
          "name": "account",
          "type": "address"
        }
      ],
      "name": "grantRole",
      "outputs": [],
      "stateMutability": "nonpayable",
      "type": "function"
    },
    {
      "inputs": [
        {
          "internalType": "bytes32",
          "name": "role",
          "type": "bytes32"
        },
        {
          "internalType": "address",
          "name": "account",
          "type": "address"
        }
      ],
      "name": "hasRole",
      "outputs": [
        {
          "internalType": "bool",
          "name": "",
          "type": "bool"
        }
      ],
      "stateMutability": "view",
      "type": "function"
    },
    {
      "inputs": [
        {
          "internalType": "address",
          "name": "trustedForwarder",
          "type": "address"
        }
      ],
      "name": "initialize",
      "outputs": [],
      "stateMutability": "nonpayable",
      "type": "function"
    },
    {
      "inputs": [
        {
          "internalType": "address",
          "name": "owner",
          "type": "address"
        },
        {
          "internalType": "address",
          "name": "operator",
          "type": "address"
        }
      ],
      "name": "isApprovedForAll",
      "outputs": [
        {
          "internalType": "bool",
          "name": "",
          "type": "bool"
        }
      ],
      "stateMutability": "view",
      "type": "function"
    },
    {
      "inputs": [
        {
          "internalType": "uint256",
          "name": "communityId",
          "type": "uint256"
        },
        {
          "internalType": "address",
          "name": "account",
          "type": "address"
        }
      ],
      "name": "isApprover",
      "outputs": [
        {
          "internalType": "bool",
          "name": "",
          "type": "bool"
        }
      ],
      "stateMutability": "view",
      "type": "function"
    },
    {
      "inputs": [
        {
          "internalType": "address",
          "name": "forwarder",
          "type": "address"
        }
      ],
      "name": "isTrustedForwarder",
      "outputs": [
        {
          "internalType": "bool",
          "name": "",
          "type": "bool"
        }
      ],
      "stateMutability": "view",
      "type": "function"
    },
    {
      "inputs": [],
      "name": "lastId",
      "outputs": [
        {
          "internalType": "uint256",
          "name": "",
          "type": "uint256"
        }
      ],
      "stateMutability": "view",
      "type": "function"
    },
    {
      "inputs": [],
      "name": "name",
      "outputs": [
        {
          "internalType": "string",
          "name": "",
          "type": "string"
        }
      ],
      "stateMutability": "view",
      "type": "function"
    },
    {
      "inputs": [
        {
          "internalType": "uint256",
          "name": "tokenId",
          "type": "uint256"
        }
      ],
      "name": "ownerOf",
      "outputs": [
        {
          "internalType": "address",
          "name": "",
          "type": "address"
        }
      ],
      "stateMutability": "view",
      "type": "function"
    },
    {
      "inputs": [],
      "name": "pause",
      "outputs": [],
      "stateMutability": "nonpayable",
      "type": "function"
    },
    {
      "inputs": [],
      "name": "paused",
      "outputs": [
        {
          "internalType": "bool",
          "name": "",
          "type": "bool"
        }
      ],
      "stateMutability": "view",
      "type": "function"
    },
    {
      "inputs": [
        {
          "internalType": "string",
          "name": "communityName",
          "type": "string"
        },
        {
          "internalType": "address[]",
          "name": "approvers",
          "type": "address[]"
        }
      ],
      "name": "register",
      "outputs": [],
      "stateMutability": "nonpayable",
      "type": "function"
    },
    {
      "inputs": [
        {
          "internalType": "uint256",
          "name": "communityId",
          "type": "uint256"
        },
        {
          "internalType": "address",
          "name": "account",
          "type": "address"
        }
      ],
      "name": "removeApprover",
      "outputs": [],
      "stateMutability": "nonpayable",
      "type": "function"
    },
    {
      "inputs": [
        {
          "internalType": "bytes32",
          "name": "role",
          "type": "bytes32"
        },
        {
          "internalType": "address",
          "name": "account",
          "type": "address"
        }
      ],
      "name": "renounceRole",
      "outputs": [],
      "stateMutability": "nonpayable",
      "type": "function"
    },
    {
      "inputs": [
        {
          "internalType": "bytes32",
          "name": "role",
          "type": "bytes32"
        },
        {
          "internalType": "address",
          "name": "account",
          "type": "address"
        }
      ],
      "name": "revokeRole",
      "outputs": [],
      "stateMutability": "nonpayable",
      "type": "function"
    },
    {
      "inputs": [
        {
          "internalType": "address",
          "name": "to",
          "type": "address"
        },
        {
          "internalType": "uint256",
          "name": "tokenId",
          "type": "uint256"
        }
      ],
      "name": "safeMint",
      "outputs": [],
      "stateMutability": "nonpayable",
      "type": "function"
    },
    {
      "inputs": [
        {
          "internalType": "address",
          "name": "from",
          "type": "address"
        },
        {
          "internalType": "address",
          "name": "to",
          "type": "address"
        },
        {
          "internalType": "uint256",
          "name": "tokenId",
          "type": "uint256"
        }
      ],
      "name": "safeTransferFrom",
      "outputs": [],
      "stateMutability": "nonpayable",
      "type": "function"
    },
    {
      "inputs": [
        {
          "internalType": "address",
          "name": "from",
          "type": "address"
        },
        {
          "internalType": "address",
          "name": "to",
          "type": "address"
        },
        {
          "internalType": "uint256",
          "name": "tokenId",
          "type": "uint256"
        },
        {
          "internalType": "bytes",
          "name": "_data",
          "type": "bytes"
        }
      ],
      "name": "safeTransferFrom",
      "outputs": [],
      "stateMutability": "nonpayable",
      "type": "function"
    },
    {
      "inputs": [
        {
          "internalType": "address",
          "name": "operator",
          "type": "address"
        },
        {
          "internalType": "bool",
          "name": "approved",
          "type": "bool"
        }
      ],
      "name": "setApprovalForAll",
      "outputs": [],
      "stateMutability": "nonpayable",
      "type": "function"
    },
    {
      "inputs": [
        {
          "internalType": "bytes4",
          "name": "interfaceId",
          "type": "bytes4"
        }
      ],
      "name": "supportsInterface",
      "outputs": [
        {
          "internalType": "bool",
          "name": "",
          "type": "bool"
        }
      ],
      "stateMutability": "view",
      "type": "function"
    },
    {
      "inputs": [],
      "name": "symbol",
      "outputs": [
        {
          "internalType": "string",
          "name": "",
          "type": "string"
        }
      ],
      "stateMutability": "view",
      "type": "function"
    },
    {
      "inputs": [
        {
          "internalType": "uint256",
          "name": "index",
          "type": "uint256"
        }
      ],
      "name": "tokenByIndex",
      "outputs": [
        {
          "internalType": "uint256",
          "name": "",
          "type": "uint256"
        }
      ],
      "stateMutability": "view",
      "type": "function"
    },
    {
      "inputs": [
        {
          "internalType": "address",
          "name": "owner",
          "type": "address"
        },
        {
          "internalType": "uint256",
          "name": "index",
          "type": "uint256"
        }
      ],
      "name": "tokenOfOwnerByIndex",
      "outputs": [
        {
          "internalType": "uint256",
          "name": "",
          "type": "uint256"
        }
      ],
      "stateMutability": "view",
      "type": "function"
    },
    {
      "inputs": [
        {
          "internalType": "uint256",
          "name": "tokenId",
          "type": "uint256"
        }
      ],
      "name": "tokenURI",
      "outputs": [
        {
          "internalType": "string",
          "name": "",
          "type": "string"
        }
      ],
      "stateMutability": "view",
      "type": "function"
    },
    {
      "inputs": [],
      "name": "totalCommunities",
      "outputs": [
        {
          "internalType": "uint256",
          "name": "",
          "type": "uint256"
        }
      ],
      "stateMutability": "view",
      "type": "function"
    },
    {
      "inputs": [],
      "name": "totalSupply",
      "outputs": [
        {
          "internalType": "uint256",
          "name": "",
          "type": "uint256"
        }
      ],
      "stateMutability": "view",
      "type": "function"
    },
    {
      "inputs": [
        {
          "internalType": "address",
          "name": "from",
          "type": "address"
        },
        {
          "internalType": "address",
          "name": "to",
          "type": "address"
        },
        {
          "internalType": "uint256",
          "name": "tokenId",
          "type": "uint256"
        }
      ],
      "name": "transferFrom",
      "outputs": [],
      "stateMutability": "nonpayable",
      "type": "function"
    },
    {
      "inputs": [],
      "name": "unpause",
      "outputs": [],
      "stateMutability": "nonpayable",
      "type": "function"
    },
    {
      "inputs": [
        {
          "internalType": "address",
          "name": "newImplementation",
          "type": "address"
        }
      ],
      "name": "upgradeTo",
      "outputs": [],
      "stateMutability": "nonpayable",
      "type": "function"
    },
    {
      "inputs": [
        {
          "internalType": "address",
          "name": "newImplementation",
          "type": "address"
        },
        {
          "internalType": "bytes",
          "name": "data",
          "type": "bytes"
        }
      ],
      "name": "upgradeToAndCall",
      "outputs": [],
      "stateMutability": "payable",
      "type": "function"
    },
    {
      "inputs": [
        {
          "internalType": "uint256",
          "name": "tokenId",
          "type": "uint256"
        }
      ],
      "name": "userBadge",
      "outputs": [
        {
          "components": [
            {
              "internalType": "string",
              "name": "uri",
              "type": "string"
            },
            {
              "internalType": "address",
              "name": "approvedBy",
              "type": "address"
            },
            {
              "internalType": "bool",
              "name": "claimed",
              "type": "bool"
            },
            {
              "internalType": "bool",
              "name": "initiated",
              "type": "bool"
            },
            {
              "internalType": "uint256",
              "name": "communityId",
              "type": "uint256"
            }
          ],
          "internalType": "struct POCP.Badge",
          "name": "badge",
          "type": "tuple"
        }
      ],
      "stateMutability": "view",
      "type": "function"
    },
    {
      "inputs": [],
      "name": "userBadgeIds",
      "outputs": [
        {
          "internalType": "uint256[]",
          "name": "badgeIds",
          "type": "uint256[]"
        }
      ],
      "stateMutability": "view",
      "type": "function"
    }
  ],
  "bytecode": "0x60a06040523060601b60805234801561001757600080fd5b5060805160601c613f4b61004b600039600081816112f801528181611338015281816113e401526114240152613f4b6000f3fe60806040526004361061027d5760003560e01c80636352211e1161014f578063c1292cc3116100c1578063d3e4047a1161007a578063d3e4047a1461078d578063d547741f146107ad578063e63ab1e9146107cd578063e985e9c5146107ef578063f72c0d8b14610838578063fcb4d2061461086c57600080fd5b8063c1292cc3146106d5578063c3759eb8146106ec578063c4d66de81461070c578063c87b56dd1461072c578063c9ab9cf61461074c578063ce1b815f1461076e57600080fd5b806395d89b411161011357806395d89b4114610630578063a144819414610645578063a217fddf14610665578063a22cb4651461067a578063b88d4fde1461069a578063bb6c352c146106b557600080fd5b80636352211e1461059b5780636ba4c138146105bb57806370a08231146105db5780638456cb59146105fb57806391d148541461061057600080fd5b80632f745c59116101f357806342842e0e116101ac57806342842e0e146103cc5780634f1ef286146105005780634f6ccce7146105135780635317234e14610533578063572b6c05146105535780635c975abb1461058357600080fd5b80632f745c591461043d5780632fa2cc4e1461045d5780632faf59d41461048b57806336568abe146104ab5780633659cfe6146104cb5780633f4ba83a146104eb57600080fd5b806318160ddd1161024557806318160ddd146103605780632070fea51461037f578063211e34f71461039f57806323b872dd146103cc578063248a9ca3146103ec5780632f2ff15d1461041d57600080fd5b806301ffc9a71461028257806306fdde03146102b7578063081812fc146102d9578063095ea7b31461031157806314de72d414610333575b600080fd5b34801561028e57600080fd5b506102a261029d366004613787565b610883565b60405190151581526020015b60405180910390f35b3480156102c357600080fd5b506102cc610894565b6040516102ae9190613a5d565b3480156102e557600080fd5b506102f96102f436600461374d565b610926565b6040516001600160a01b0390911681526020016102ae565b34801561031d57600080fd5b5061033161032c3660046136e4565b6109c0565b005b34801561033f57600080fd5b5061035361034e36600461374d565b610ae8565b6040516102ae9190613c4d565b34801561036c57600080fd5b506099545b6040519081526020016102ae565b34801561038b57600080fd5b5061033161039a36600461388d565b610bbe565b3480156103ab57600080fd5b506103bf6103ba36600461374d565b610f0c565b6040516102ae9190613bf1565b3480156103d857600080fd5b506103316103e73660046135bd565b611059565b3480156103f857600080fd5b5061037161040736600461374d565b60009081526101c6602052604090206001015490565b34801561042957600080fd5b50610331610438366004613765565b611098565b34801561044957600080fd5b506103716104583660046136e4565b6110c6565b34801561046957600080fd5b5061037161047836600461374d565b61012d6020526000908152604090205481565b34801561049757600080fd5b506103316104a63660046137a3565b61115c565b3480156104b757600080fd5b506103316104c6366004613765565b61125f565b3480156104d757600080fd5b506103316104e6366004613571565b6112ed565b3480156104f757600080fd5b506103316113b6565b61033161050e366004613698565b6113d9565b34801561051f57600080fd5b5061037161052e36600461374d565b61148f565b34801561053f57600080fd5b5061033161054e366004613765565b611530565b34801561055f57600080fd5b506102a261056e366004613571565b61022b546001600160a01b0391821691161490565b34801561058f57600080fd5b5060fb5460ff166102a2565b3480156105a757600080fd5b506102f96105b636600461374d565b61158d565b3480156105c757600080fd5b506103316105d636600461370d565b611604565b3480156105e757600080fd5b506103716105f6366004613571565b611869565b34801561060757600080fd5b506103316118f0565b34801561061c57600080fd5b506102a261062b366004613765565b611913565b34801561063c57600080fd5b506102cc61193f565b34801561065157600080fd5b506103316106603660046136e4565b61194e565b34801561067157600080fd5b50610371600081565b34801561068657600080fd5b5061033161069536600461365e565b611989565b3480156106a657600080fd5b506103316103e73660046135f8565b3480156106c157600080fd5b506103316106d0366004613765565b61199b565b3480156106e157600080fd5b506103716102315481565b3480156106f857600080fd5b506102a2610707366004613765565b6119f2565b34801561071857600080fd5b50610331610727366004613571565b611a1e565b34801561073857600080fd5b506102cc61074736600461374d565b611b71565b34801561075857600080fd5b50610761611b7c565b6040516102ae9190613a19565b34801561077a57600080fd5b5061022b546001600160a01b03166102f9565b34801561079957600080fd5b506107616107a836600461374d565b611bfe565b3480156107b957600080fd5b506103316107c8366004613765565b611c61565b3480156107d957600080fd5b50610371600080516020613ecf83398151915281565b3480156107fb57600080fd5b506102a261080a36600461358b565b6001600160a01b039182166000908152606a6020908152604080832093909416825291909152205460ff1690565b34801561084457600080fd5b506103717f189ab7a9244df0848122154315af71fe140f3db0fe014031783b0946b8c9d2e381565b34801561087857600080fd5b5061037161022d5481565b600061088e82611c8a565b92915050565b6060606580546108a390613e0c565b80601f01602080910402602001604051908101604052809291908181526020018280546108cf90613e0c565b801561091c5780601f106108f15761010080835404028352916020019161091c565b820191906000526020600020905b8154815290600101906020018083116108ff57829003601f168201915b5050505050905090565b6000818152606760205260408120546001600160a01b03166109a45760405162461bcd60e51b815260206004820152602c60248201527f4552433732313a20617070726f76656420717565727920666f72206e6f6e657860448201526b34b9ba32b73a103a37b5b2b760a11b60648201526084015b60405180910390fd5b506000908152606960205260409020546001600160a01b031690565b60006109cb8261158d565b9050806001600160a01b0316836001600160a01b03161415610a395760405162461bcd60e51b815260206004820152602160248201527f4552433732313a20617070726f76616c20746f2063757272656e74206f776e656044820152603960f91b606482015260840161099b565b806001600160a01b0316610a4b611caf565b6001600160a01b03161480610a675750610a678161080a611caf565b610ad95760405162461bcd60e51b815260206004820152603860248201527f4552433732313a20617070726f76652063616c6c6572206973206e6f74206f7760448201527f6e6572206e6f7220617070726f76656420666f7220616c6c0000000000000000606482015260840161099b565b610ae38383611cd8565b505050565b604080518082019091526060815260006020820152600082815261022c6020526040908190208151808301909252805482908290610b2590613e0c565b80601f0160208091040260200160405190810160405280929190818152602001828054610b5190613e0c565b8015610b9e5780601f10610b7357610100808354040283529160200191610b9e565b820191906000526020600020905b815481529060010190602001808311610b8157829003601f168201915b50505091835250506001919091015460ff16151560209091015292915050565b60fb5460ff1615610be15760405162461bcd60e51b815260040161099b90613b08565b86610bea611caf565b610bf482826119f2565b80610c12575060008281526101f8602052604090206001015460ff16155b610c2e5760405162461bcd60e51b815260040161099b90613b80565b8685148015610c3c57508483145b610c7f5760405162461bcd60e51b815260206004820152601460248201527320b933bab6b2b73a1034b7383aba1032b93937b960611b604482015260640161099b565b60005b87811015610f00576040518060a00160405280888884818110610cb557634e487b7160e01b600052603260045260246000fd5b9050602002810190610cc79190613cf1565b8080601f016020809104026020016040519081016040528093929190818152602001838380828437600092019190915250505090825250602001610d09611caf565b6001600160a01b031681526000602082018190526001604083015260609091018c905261022f908b8b85818110610d5057634e487b7160e01b600052603260045260246000fd5b9050602002016020810190610d659190613571565b6001600160a01b0316815260208082019290925260409081016000908120610231548252835220825180519192610da1928492909101906133fb565b506020820151600182018054604085015160608601511515600160a81b0260ff60a81b19911515600160a01b026001600160a81b03199093166001600160a01b0390951694909417919091171691909117905560809091015160029091015561023060008a8a84818110610e2557634e487b7160e01b600052603260045260246000fd5b9050602002016020810190610e3a9190613571565b6001600160a01b0316815260208082019290925260400160009081206102315481546001810183559183529290912001557fb8f7809d63e43e2392764e5ad5996eadadc7dd8a5b1edda5d7e0dbd0cfec2e5a8a868684818110610ead57634e487b7160e01b600052603260045260246000fd5b9050602002810190610ebf9190613cf1565b61023154604051610ed39493929190613c81565b60405180910390a161023154610eea906001613d67565b6102315580610ef881613e47565b915050610c82565b50505050505050505050565b6040805160a08101825260608082526000602083018190529282018390528101829052608081019190915261022f6000610f44611caf565b6001600160a01b03166001600160a01b0316815260200190815260200160002060008381526020019081526020016000206040518060a0016040529081600082018054610f9090613e0c565b80601f0160208091040260200160405190810160405280929190818152602001828054610fbc90613e0c565b80156110095780601f10610fde57610100808354040283529160200191611009565b820191906000526020600020905b815481529060010190602001808311610fec57829003601f168201915b505050918352505060018201546001600160a01b038116602083015260ff600160a01b8204811615156040840152600160a81b909104161515606082015260029091015460809091015292915050565b60405162461bcd60e51b8152602060048201526014602482015273151c985b9cd9995c881b9bdd08105b1b1bddd95960621b604482015260640161099b565b60008281526101c660205260409020600101546110bc816110b7611caf565b611d46565b610ae38383611daa565b60006110d183611869565b82106111335760405162461bcd60e51b815260206004820152602b60248201527f455243373231456e756d657261626c653a206f776e657220696e646578206f7560448201526a74206f6620626f756e647360a81b606482015260840161099b565b506001600160a01b03919091166000908152609760209081526040808320938352929052205490565b61022d546040805180820182528481526001602080830191909152600084815261022c825292909220815180519293849361119a92849201906133fb565b50602091909101516001918201805460ff191691151591909117905561022d546111c391613d67565b61022d5560005b835181101561121657611204838583815181106111f757634e487b7160e01b600052603260045260246000fd5b6020026020010151611530565b8061120e81613e47565b9150506111ca565b507face92cf234a98ee3719291804162de627309cddd21cca99a54eae87cce7a98bf8285611242611caf565b60405161125193929190613cc0565b60405180910390a150505050565b611267611caf565b6001600160a01b0316816001600160a01b0316146112df5760405162461bcd60e51b815260206004820152602f60248201527f416363657373436f6e74726f6c3a2063616e206f6e6c792072656e6f756e636560448201526e103937b632b9903337b91039b2b63360891b606482015260840161099b565b6112e98282611e32565b5050565b306001600160a01b037f00000000000000000000000000000000000000000000000000000000000000001614156113365760405162461bcd60e51b815260040161099b90613a70565b7f00000000000000000000000000000000000000000000000000000000000000006001600160a01b0316611368611eb8565b6001600160a01b03161461138e5760405162461bcd60e51b815260040161099b90613abc565b61139781611ee6565b604080516000808252602082019092526113b391839190611f13565b50565b600080516020613ecf8339815191526113d1816110b7611caf565b6113b361205e565b306001600160a01b037f00000000000000000000000000000000000000000000000000000000000000001614156114225760405162461bcd60e51b815260040161099b90613a70565b7f00000000000000000000000000000000000000000000000000000000000000006001600160a01b0316611454611eb8565b6001600160a01b03161461147a5760405162461bcd60e51b815260040161099b90613abc565b61148382611ee6565b6112e982826001611f13565b600061149a60995490565b82106114fd5760405162461bcd60e51b815260206004820152602c60248201527f455243373231456e756d657261626c653a20676c6f62616c20696e646578206f60448201526b7574206f6620626f756e647360a01b606482015260840161099b565b6099828154811061151e57634e487b7160e01b600052603260045260246000fd5b90600052602060002001549050919050565b81611539611caf565b61154382826119f2565b80611561575060008281526101f8602052604090206001015460ff16155b61157d5760405162461bcd60e51b815260040161099b90613b80565b61158784846120f7565b50505050565b6000818152606760205260408120546001600160a01b03168061088e5760405162461bcd60e51b815260206004820152602960248201527f4552433732313a206f776e657220717565727920666f72206e6f6e657869737460448201526832b73a103a37b5b2b760b91b606482015260840161099b565b60fb5460ff16156116275760405162461bcd60e51b815260040161099b90613b08565b8061166d5760405162461bcd60e51b8152602060048201526016602482015275746f6b656e496473206c69737420697320656d70747960501b604482015260640161099b565b60005b81811015610ae357600083838381811061169a57634e487b7160e01b600052603260045260246000fd5b905060200201359050600061022f60006116b2611caf565b6001600160a01b031681526020808201929092526040908101600090812085825290925290206001810154909150600160a01b900460ff161580156117065750600181810154600160a81b900460ff161515145b15611854576001810154611723906001600160a01b03168361217c565b6117b98282600001805461173690613e0c565b80601f016020809104026020016040519081016040528092919081815260200182805461176290613e0c565b80156117af5780601f10611784576101008083540402835291602001916117af565b820191906000526020600020905b81548152906001019060200180831161179257829003601f168201915b50505050506122ca565b60028101546040805184815260208101929092527f0c86f3fbd292584ffcc982f3252f26626221d8953c2d1a00ce6ef24a906cb720910160405180910390a16001810154611818906001600160a01b0316611812611caf565b84612364565b6001818101805460ff60a01b1916600160a01b1790556002820154600090815261022e6020908152604082208054938401815582529020018290555b5050808061186190613e47565b915050611670565b60006001600160a01b0382166118d45760405162461bcd60e51b815260206004820152602a60248201527f4552433732313a2062616c616e636520717565727920666f7220746865207a65604482015269726f206164647265737360b01b606482015260840161099b565b506001600160a01b031660009081526068602052604090205490565b600080516020613ecf83398151915261190b816110b7611caf565b6113b361250f565b60009182526101c6602090815260408084206001600160a01b0393909316845291905290205460ff1690565b6060606680546108a390613e0c565b60405162461bcd60e51b815260206004820152601060248201526f135a5b9d081b9bdd08105b1b1bddd95960821b604482015260640161099b565b6112e9611994611caf565b8383612568565b816119a4611caf565b6119ae82826119f2565b806119cc575060008281526101f8602052604090206001015460ff16155b6119e85760405162461bcd60e51b815260040161099b90613b80565b6115878484612637565b60009182526101f8602090815260408084206001600160a01b0393909316845291905290205460ff1690565b600054610100900460ff16611a395760005460ff1615611a3d565b303b155b611a595760405162461bcd60e51b815260040161099b90613b32565b600054610100900460ff16158015611a7b576000805461ffff19166101011790555b611abd604051806040016040528060048152602001630504f43560e41b815250604051806040016040528060048152602001630504f43560e41b81525061269f565b611ac56126e0565b611acd6126e0565b611ad5612721565b611add612758565b611b2c6040518060400160405280601081526020016f26b4b734b6b0b62337b93bb0b93232b960811b81525060405180604001604052806005815260200164302e302e3160d81b81525061277f565b611b346127b0565b61022b80546001600160a01b0319166001600160a01b038416179055600061022d5560016102315580156112e9576000805461ff00191690555050565b606061088e82612881565b60606102306000611b8b611caf565b6001600160a01b03166001600160a01b0316815260200190815260200160002080548060200260200160405190810160405280929190818152602001828054801561091c57602002820191906000526020600020905b815481526020019060010190808311611be1575050505050905090565b600081815261022e6020908152604091829020805483518184028101840190945280845260609392830182828015611c5557602002820191906000526020600020905b815481526020019060010190808311611c41575b50505050509050919050565b60008281526101c66020526040902060010154611c80816110b7611caf565b610ae38383611e32565b60006001600160e01b03198216637965db0b60e01b148061088e575061088e82612a08565b61022b546000906001600160a01b0316331415611cd3575060131936013560601c90565b503390565b600081815260696020526040902080546001600160a01b0319166001600160a01b0384169081179091558190611d0d8261158d565b6001600160a01b03167f8c5be1e5ebec7d5bd14f71427d1e84f3dd0314c0f7b2291e5b200ac8c7c3b92560405160405180910390a45050565b611d508282611913565b6112e957611d68816001600160a01b03166014612a2d565b611d73836020612a2d565b604051602001611d849291906139a4565b60408051601f198184030181529082905262461bcd60e51b825261099b91600401613a5d565b611db48282611913565b6112e95760008281526101c6602090815260408083206001600160a01b03851684529091529020805460ff19166001179055611dee611caf565b6001600160a01b0316816001600160a01b0316837f2f8788117e7eff1d82e926ec794901d17c78024a50270940304540a733656f0d60405160405180910390a45050565b611e3c8282611913565b156112e95760008281526101c6602090815260408083206001600160a01b03851684529091529020805460ff19169055611e74611caf565b6001600160a01b0316816001600160a01b0316837ff6391f5c32d9c69d2a47ea670b442974b53935d1edc7fd64eb21e047a839171b60405160405180910390a45050565b7f360894a13ba1a3210667c828492db98dca3e2076cc3735a920a3ca505d382bbc546001600160a01b031690565b7f189ab7a9244df0848122154315af71fe140f3db0fe014031783b0946b8c9d2e36112e9816110b7611caf565b6000611f1d611eb8565b9050611f2884612c16565b600083511180611f355750815b15611f4657611f448484612cbb565b505b7f4910fdfa16fed3260ed0e7147f7cc6da11a60208b5b9406d12a635614ffd9143805460ff1661205757805460ff191660011781556040516001600160a01b0383166024820152611fc590869060440160408051601f198184030181529190526020810180516001600160e01b0316631b2ce7f360e11b179052612cbb565b50805460ff19168155611fd6611eb8565b6001600160a01b0316826001600160a01b03161461204e5760405162461bcd60e51b815260206004820152602f60248201527f45524331393637557067726164653a207570677261646520627265616b73206660448201526e75727468657220757067726164657360881b606482015260840161099b565b61205785612da6565b5050505050565b60fb5460ff166120a75760405162461bcd60e51b815260206004820152601460248201527314185d5cd8589b194e881b9bdd081c185d5cd95960621b604482015260640161099b565b60fb805460ff191690557f5db9ee0a495bf2e6ff9c91a7834c1ba4fdd244a5e8aa4e537bd38aeae4b073aa6120da611caf565b6040516001600160a01b03909116815260200160405180910390a1565b61210182826119f2565b6112e95760008281526101f8602081815260408084206001600160a01b0386168086528184528286208054600160ff1991821681179092558988529590945290830180549094169092179092559051909184917feca5cd72207e44a6cfefd583fd8df9a5498c3930b1c274e1a1c6d6318ba0cac49190a35050565b6001600160a01b0382166121d25760405162461bcd60e51b815260206004820181905260248201527f4552433732313a206d696e7420746f20746865207a65726f2061646472657373604482015260640161099b565b6000818152606760205260409020546001600160a01b0316156122375760405162461bcd60e51b815260206004820152601c60248201527f4552433732313a20746f6b656e20616c7265616479206d696e74656400000000604482015260640161099b565b61224360008383612de6565b6001600160a01b038216600090815260686020526040812080546001929061226c908490613d67565b909155505060008181526067602052604080822080546001600160a01b0319166001600160a01b03861690811790915590518392907fddf252ad1be2c89b69c2b068fc378daa952ba7f163c4a11628f55a4df523b3ef908290a45050565b6000828152606760205260409020546001600160a01b03166123455760405162461bcd60e51b815260206004820152602e60248201527f45524337323155524953746f726167653a2055524920736574206f66206e6f6e60448201526d32bc34b9ba32b73a103a37b5b2b760911b606482015260840161099b565b600082815260c9602090815260409091208251610ae3928401906133fb565b826001600160a01b03166123778261158d565b6001600160a01b0316146123df5760405162461bcd60e51b815260206004820152602960248201527f4552433732313a207472616e73666572206f6620746f6b656e2074686174206960448201526839903737ba1037bbb760b91b606482015260840161099b565b6001600160a01b0382166124415760405162461bcd60e51b8152602060048201526024808201527f4552433732313a207472616e7366657220746f20746865207a65726f206164646044820152637265737360e01b606482015260840161099b565b61244c838383612de6565b612457600082611cd8565b6001600160a01b0383166000908152606860205260408120805460019290612480908490613db2565b90915550506001600160a01b03821660009081526068602052604081208054600192906124ae908490613d67565b909155505060008181526067602052604080822080546001600160a01b0319166001600160a01b0386811691821790925591518493918716917fddf252ad1be2c89b69c2b068fc378daa952ba7f163c4a11628f55a4df523b3ef91a4505050565b60fb5460ff16156125325760405162461bcd60e51b815260040161099b90613b08565b60fb805460ff191660011790557f62e78cea01bee320cd4e420270b5ea74000d11b0c9f74754ebdbfc544b05a2586120da611caf565b816001600160a01b0316836001600160a01b031614156125ca5760405162461bcd60e51b815260206004820152601960248201527f4552433732313a20617070726f766520746f2063616c6c657200000000000000604482015260640161099b565b6001600160a01b038381166000818152606a6020908152604080832094871680845294825291829020805460ff191686151590811790915591519182527f17307eab39ab6107e8899845ad3d59bd9653f200f220920489ca2b5937696c31910160405180910390a3505050565b61264182826119f2565b156112e95760008281526101f8602090815260408083206001600160a01b0385168085529252808320805460ff1916905551909184917f708f1c3522caddc3f4266f87a63148078e0803ccc35ab7b4bc729f5863f463539190a35050565b600054610100900460ff166126c65760405162461bcd60e51b815260040161099b90613ba6565b6126ce612e14565b6126d6612e14565b6112e98282612e3b565b600054610100900460ff166127075760405162461bcd60e51b815260040161099b90613ba6565b61270f612e14565b612717612e14565b61271f612e14565b565b600054610100900460ff166127485760405162461bcd60e51b815260040161099b90613ba6565b612750612e14565b61271f612e89565b600054610100900460ff1661270f5760405162461bcd60e51b815260040161099b90613ba6565b600054610100900460ff166127a65760405162461bcd60e51b815260040161099b90613ba6565b6112e98282612ebc565b600054610100900460ff166127cb5760005460ff16156127cf565b303b155b6127eb5760405162461bcd60e51b815260040161099b90613b32565b600054610100900460ff1615801561280d576000805461ffff19166101011790555b6128156126e0565b6128276000612822611caf565b611daa565b612841600080516020613ecf833981519152612822611caf565b61286d7f189ab7a9244df0848122154315af71fe140f3db0fe014031783b0946b8c9d2e3612822611caf565b80156113b3576000805461ff001916905550565b6000818152606760205260409020546060906001600160a01b03166129025760405162461bcd60e51b815260206004820152603160248201527f45524337323155524953746f726167653a2055524920717565727920666f72206044820152703737b732bc34b9ba32b73a103a37b5b2b760791b606482015260840161099b565b600082815260c960205260408120805461291b90613e0c565b80601f016020809104026020016040519081016040528092919081815260200182805461294790613e0c565b80156129945780601f1061296957610100808354040283529160200191612994565b820191906000526020600020905b81548152906001019060200180831161297757829003601f168201915b5050505050905060006129b260408051602081019091526000815290565b90508051600014156129c5575092915050565b8151156129f75780826040516020016129df929190613975565b60405160208183030381529060405292505050919050565b612a0084612eff565b949350505050565b60006001600160e01b0319821663780e9d6360e01b148061088e575061088e82612fe6565b60606000612a3c836002613d93565b612a47906002613d67565b67ffffffffffffffff811115612a6d57634e487b7160e01b600052604160045260246000fd5b6040519080825280601f01601f191660200182016040528015612a97576020820181803683370190505b509050600360fc1b81600081518110612ac057634e487b7160e01b600052603260045260246000fd5b60200101906001600160f81b031916908160001a905350600f60fb1b81600181518110612afd57634e487b7160e01b600052603260045260246000fd5b60200101906001600160f81b031916908160001a9053506000612b21846002613d93565b612b2c906001613d67565b90505b6001811115612bc0576f181899199a1a9b1b9c1cb0b131b232b360811b85600f1660108110612b6e57634e487b7160e01b600052603260045260246000fd5b1a60f81b828281518110612b9257634e487b7160e01b600052603260045260246000fd5b60200101906001600160f81b031916908160001a90535060049490941c93612bb981613df5565b9050612b2f565b508315612c0f5760405162461bcd60e51b815260206004820181905260248201527f537472696e67733a20686578206c656e67746820696e73756666696369656e74604482015260640161099b565b9392505050565b803b612c7a5760405162461bcd60e51b815260206004820152602d60248201527f455243313936373a206e657720696d706c656d656e746174696f6e206973206e60448201526c1bdd08184818dbdb9d1c9858dd609a1b606482015260840161099b565b7f360894a13ba1a3210667c828492db98dca3e2076cc3735a920a3ca505d382bbc80546001600160a01b0319166001600160a01b0392909216919091179055565b6060823b612d1a5760405162461bcd60e51b815260206004820152602660248201527f416464726573733a2064656c65676174652063616c6c20746f206e6f6e2d636f6044820152651b9d1c9858dd60d21b606482015260840161099b565b600080846001600160a01b031684604051612d359190613959565b600060405180830381855af49150503d8060008114612d70576040519150601f19603f3d011682016040523d82523d6000602084013e612d75565b606091505b5091509150612d9d8282604051806060016040528060278152602001613eef60279139613036565b95945050505050565b612daf81612c16565b6040516001600160a01b038216907fbc7cd75a20ee27fd9adebab32041f755214dbc6bffa90cc0225b39da2e5c2d3b90600090a250565b60fb5460ff1615612e095760405162461bcd60e51b815260040161099b90613b08565b610ae383838361306f565b600054610100900460ff1661271f5760405162461bcd60e51b815260040161099b90613ba6565b600054610100900460ff16612e625760405162461bcd60e51b815260040161099b90613ba6565b8151612e759060659060208501906133fb565b508051610ae39060669060208401906133fb565b600054610100900460ff16612eb05760405162461bcd60e51b815260040161099b90613ba6565b60fb805460ff19169055565b600054610100900460ff16612ee35760405162461bcd60e51b815260040161099b90613ba6565b8151602092830120815191909201206101929190915561019355565b6000818152606760205260409020546060906001600160a01b0316612f7e5760405162461bcd60e51b815260206004820152602f60248201527f4552433732314d657461646174613a2055524920717565727920666f72206e6f60448201526e3732bc34b9ba32b73a103a37b5b2b760891b606482015260840161099b565b6000612f9560408051602081019091526000815290565b90506000815111612fb55760405180602001604052806000815250612c0f565b80612fbf84613127565b604051602001612fd0929190613975565b6040516020818303038152906040529392505050565b60006001600160e01b031982166380ac58cd60e01b148061301757506001600160e01b03198216635b5e139f60e01b145b8061088e57506301ffc9a760e01b6001600160e01b031983161461088e565b60608315613045575081612c0f565b8251156130555782518084602001fd5b8160405162461bcd60e51b815260040161099b9190613a5d565b6001600160a01b0383166130ca576130c581609980546000838152609a60205260408120829055600182018355919091527f72a152ddfb8e864297c917af52ea6c1c68aead0fee1a62673fcc7e0c94979d000155565b6130ed565b816001600160a01b0316836001600160a01b0316146130ed576130ed8382613241565b6001600160a01b03821661310457610ae3816132de565b826001600160a01b0316826001600160a01b031614610ae357610ae382826133b7565b60608161314b5750506040805180820190915260018152600360fc1b602082015290565b8160005b8115613175578061315f81613e47565b915061316e9050600a83613d7f565b915061314f565b60008167ffffffffffffffff81111561319e57634e487b7160e01b600052604160045260246000fd5b6040519080825280601f01601f1916602001820160405280156131c8576020820181803683370190505b5090505b8415612a00576131dd600183613db2565b91506131ea600a86613e62565b6131f5906030613d67565b60f81b81838151811061321857634e487b7160e01b600052603260045260246000fd5b60200101906001600160f81b031916908160001a90535061323a600a86613d7f565b94506131cc565b6000600161324e84611869565b6132589190613db2565b6000838152609860205260409020549091508082146132ab576001600160a01b03841660009081526097602090815260408083208584528252808320548484528184208190558352609890915290208190555b5060009182526098602090815260408084208490556001600160a01b039094168352609781528383209183525290812055565b6099546000906132f090600190613db2565b6000838152609a60205260408120546099805493945090928490811061332657634e487b7160e01b600052603260045260246000fd5b90600052602060002001549050806099838154811061335557634e487b7160e01b600052603260045260246000fd5b6000918252602080832090910192909255828152609a9091526040808220849055858252812055609980548061339b57634e487b7160e01b600052603160045260246000fd5b6001900381819060005260206000200160009055905550505050565b60006133c283611869565b6001600160a01b039093166000908152609760209081526040808320868452825280832085905593825260989052919091209190915550565b82805461340790613e0c565b90600052602060002090601f016020900481019282613429576000855561346f565b82601f1061344257805160ff191683800117855561346f565b8280016001018555821561346f579182015b8281111561346f578251825591602001919060010190613454565b5061347b92915061347f565b5090565b5b8082111561347b5760008155600101613480565b600067ffffffffffffffff8311156134ae576134ae613ea2565b6134c1601f8401601f1916602001613d36565b90508281528383830111156134d557600080fd5b828260208301376000602084830101529392505050565b80356001600160a01b038116811461350357600080fd5b919050565b60008083601f840112613519578182fd5b50813567ffffffffffffffff811115613530578182fd5b6020830191508360208260051b850101111561354b57600080fd5b9250929050565b600082601f830112613562578081fd5b612c0f83833560208501613494565b600060208284031215613582578081fd5b612c0f826134ec565b6000806040838503121561359d578081fd5b6135a6836134ec565b91506135b4602084016134ec565b90509250929050565b6000806000606084860312156135d1578081fd5b6135da846134ec565b92506135e8602085016134ec565b9150604084013590509250925092565b6000806000806080858703121561360d578081fd5b613616856134ec565b9350613624602086016134ec565b925060408501359150606085013567ffffffffffffffff811115613646578182fd5b61365287828801613552565b91505092959194509250565b60008060408385031215613670578182fd5b613679836134ec565b91506020830135801515811461368d578182fd5b809150509250929050565b600080604083850312156136aa578182fd5b6136b3836134ec565b9150602083013567ffffffffffffffff8111156136ce578182fd5b6136da85828601613552565b9150509250929050565b600080604083850312156136f6578182fd5b6136ff836134ec565b946020939093013593505050565b6000806020838503121561371f578182fd5b823567ffffffffffffffff811115613735578283fd5b61374185828601613508565b90969095509350505050565b60006020828403121561375e578081fd5b5035919050565b60008060408385031215613777578182fd5b823591506135b4602084016134ec565b600060208284031215613798578081fd5b8135612c0f81613eb8565b600080604083850312156137b5578182fd5b823567ffffffffffffffff808211156137cc578384fd5b818501915085601f8301126137df578384fd5b60206137ef878435838601613494565b945080860135925081831115613803578384fd5b828601925086601f840112613816578384fd5b82358281111561382857613828613ea2565b8060051b9250613839828401613d36565b8181528281019085840185870185018b1015613853578788fd5b8796505b8387101561387c57613868816134ec565b835260019690960195918401918401613857565b508096505050505050509250929050565b60008060008060008060006080888a0312156138a7578485fd5b87359650602088013567ffffffffffffffff808211156138c5578687fd5b6138d18b838c01613508565b909850965060408a01359150808211156138e9578485fd5b6138f58b838c01613508565b909650945060608a013591508082111561390d578384fd5b5061391a8a828b01613508565b989b979a50959850939692959293505050565b60008151808452613945816020860160208601613dc9565b601f01601f19169290920160200192915050565b6000825161396b818460208701613dc9565b9190910192915050565b60008351613987818460208801613dc9565b83519083019061399b818360208801613dc9565b01949350505050565b7f416363657373436f6e74726f6c3a206163636f756e74200000000000000000008152600083516139dc816017850160208801613dc9565b7001034b99036b4b9b9b4b733903937b6329607d1b6017918401918201528351613a0d816028840160208801613dc9565b01602801949350505050565b6020808252825182820181905260009190848201906040850190845b81811015613a5157835183529284019291840191600101613a35565b50909695505050505050565b602081526000612c0f602083018461392d565b6020808252602c908201527f46756e6374696f6e206d7573742062652063616c6c6564207468726f7567682060408201526b19195b1959d85d1958d85b1b60a21b606082015260800190565b6020808252602c908201527f46756e6374696f6e206d7573742062652063616c6c6564207468726f7567682060408201526b6163746976652070726f787960a01b606082015260800190565b60208082526010908201526f14185d5cd8589b194e881c185d5cd95960821b604082015260600190565b6020808252602e908201527f496e697469616c697a61626c653a20636f6e747261637420697320616c72656160408201526d191e481a5b9a5d1a585b1a5e995960921b606082015260800190565b6020808252600c908201526b2737ba1020b8383937bb32b960a11b604082015260600190565b6020808252602b908201527f496e697469616c697a61626c653a20636f6e7472616374206973206e6f74206960408201526a6e697469616c697a696e6760a81b606082015260800190565b602081526000825160a06020840152613c0d60c084018261392d565b905060018060a01b036020850151166040840152604084015115156060840152606084015115156080840152608084015160a08401528091505092915050565b602081526000825160406020840152613c69606084018261392d565b90506020840151151560408401528091505092915050565b8481526060602082015282606082015282846080830137600080608085840101526080601f19601f860116830101905082604083015295945050505050565b838152606060208201526000613cd9606083018561392d565b905060018060a01b0383166040830152949350505050565b6000808335601e19843603018112613d07578283fd5b83018035915067ffffffffffffffff821115613d21578283fd5b60200191503681900382131561354b57600080fd5b604051601f8201601f1916810167ffffffffffffffff81118282101715613d5f57613d5f613ea2565b604052919050565b60008219821115613d7a57613d7a613e76565b500190565b600082613d8e57613d8e613e8c565b500490565b6000816000190483118215151615613dad57613dad613e76565b500290565b600082821015613dc457613dc4613e76565b500390565b60005b83811015613de4578181015183820152602001613dcc565b838111156115875750506000910152565b600081613e0457613e04613e76565b506000190190565b600181811c90821680613e2057607f821691505b60208210811415613e4157634e487b7160e01b600052602260045260246000fd5b50919050565b6000600019821415613e5b57613e5b613e76565b5060010190565b600082613e7157613e71613e8c565b500690565b634e487b7160e01b600052601160045260246000fd5b634e487b7160e01b600052601260045260246000fd5b634e487b7160e01b600052604160045260246000fd5b6001600160e01b0319811681146113b357600080fdfe65d7a28e3265b37a6474929f336521b332c1681b933f6cb9f3376673440d862a416464726573733a206c6f772d6c6576656c2064656c65676174652063616c6c206661696c6564a26469706673582212209884cc872cca4f46ec1812fcd68a031724cffd426a3d1fe3a5c3ebb48913f96964736f6c63430008040033",
  "linkReferences": {},
  "deployedLinkReferences": {}
}