{
    "_format": "hh-sol-artifact-1",
    "contractName": "POCP",
    "sourceName": "contracts/POCP.sol",
    "abi": [
        {
            "anonymous": false,
            "inputs": [
                {
                    "indexed": false,
                    "internalType": "address",
                    "name": "previousAdmin",
                    "type": "address"
                },
                {
                    "indexed": false,
                    "internalType": "address",
                    "name": "newAdmin",
                    "type": "address"
                }
            ],
            "name": "AdminChanged",
            "type": "event"
        },
        {
            "anonymous": false,
            "inputs": [
                {
                    "indexed": true,
                    "internalType": "address",
                    "name": "owner",
                    "type": "address"
                },
                {
                    "indexed": true,
                    "internalType": "address",
                    "name": "approved",
                    "type": "address"
                },
                {
                    "indexed": true,
                    "internalType": "uint256",
                    "name": "tokenId",
                    "type": "uint256"
                }
            ],
            "name": "Approval",
            "type": "event"
        },
        {
            "anonymous": false,
            "inputs": [
                {
                    "indexed": true,
                    "internalType": "address",
                    "name": "owner",
                    "type": "address"
                },
                {
                    "indexed": true,
                    "internalType": "address",
                    "name": "operator",
                    "type": "address"
                },
                {
                    "indexed": false,
                    "internalType": "bool",
                    "name": "approved",
                    "type": "bool"
                }
            ],
            "name": "ApprovalForAll",
            "type": "event"
        },
        {
            "anonymous": false,
            "inputs": [
                {
                    "indexed": false,
                    "internalType": "uint256",
                    "name": "communityId",
                    "type": "uint256"
                },
                {
                    "indexed": false,
                    "internalType": "string",
                    "name": "customIdentifier",
                    "type": "string"
                },
                {
                    "indexed": false,
                    "internalType": "uint256",
                    "name": "tokenId",
                    "type": "uint256"
                }
            ],
            "name": "ApprovedBadge",
            "type": "event"
        },
        {
            "anonymous": false,
            "inputs": [
                {
                    "indexed": true,
                    "internalType": "uint256",
                    "name": "communityId",
                    "type": "uint256"
                },
                {
                    "indexed": true,
                    "internalType": "address",
                    "name": "account",
                    "type": "address"
                }
            ],
            "name": "ApproverAdded",
            "type": "event"
        },
        {
            "anonymous": false,
            "inputs": [
                {
                    "indexed": true,
                    "internalType": "uint256",
                    "name": "communityId",
                    "type": "uint256"
                },
                {
                    "indexed": true,
                    "internalType": "address",
                    "name": "account",
                    "type": "address"
                }
            ],
            "name": "ApproverRemoved",
            "type": "event"
        },
        {
            "anonymous": false,
            "inputs": [
                {
                    "indexed": true,
                    "internalType": "address",
                    "name": "beacon",
                    "type": "address"
                }
            ],
            "name": "BeaconUpgraded",
            "type": "event"
        },
        {
            "anonymous": false,
            "inputs": [
                {
                    "indexed": false,
                    "internalType": "uint256",
                    "name": "tokenId",
                    "type": "uint256"
                },
                {
                    "indexed": false,
                    "internalType": "uint256",
                    "name": "communityId",
                    "type": "uint256"
                }
            ],
            "name": "ClaimedBadge",
            "type": "event"
        },
        {
            "anonymous": false,
            "inputs": [
                {
                    "indexed": false,
                    "internalType": "uint256",
                    "name": "communityId",
                    "type": "uint256"
                },
                {
                    "indexed": false,
                    "internalType": "string",
                    "name": "communityName",
                    "type": "string"
                },
                {
                    "indexed": false,
                    "internalType": "address",
                    "name": "txSigner",
                    "type": "address"
                }
            ],
            "name": "CommunityRegistered",
            "type": "event"
        },
        {
            "anonymous": false,
            "inputs": [
                {
                    "indexed": false,
                    "internalType": "address",
                    "name": "account",
                    "type": "address"
                }
            ],
            "name": "Paused",
            "type": "event"
        },
        {
            "anonymous": false,
            "inputs": [
                {
                    "indexed": true,
                    "internalType": "bytes32",
                    "name": "role",
                    "type": "bytes32"
                },
                {
                    "indexed": true,
                    "internalType": "bytes32",
                    "name": "previousAdminRole",
                    "type": "bytes32"
                },
                {
                    "indexed": true,
                    "internalType": "bytes32",
                    "name": "newAdminRole",
                    "type": "bytes32"
                }
            ],
            "name": "RoleAdminChanged",
            "type": "event"
        },
        {
            "anonymous": false,
            "inputs": [
                {
                    "indexed": true,
                    "internalType": "bytes32",
                    "name": "role",
                    "type": "bytes32"
                },
                {
                    "indexed": true,
                    "internalType": "address",
                    "name": "account",
                    "type": "address"
                },
                {
                    "indexed": true,
                    "internalType": "address",
                    "name": "sender",
                    "type": "address"
                }
            ],
            "name": "RoleGranted",
            "type": "event"
        },
        {
            "anonymous": false,
            "inputs": [
                {
                    "indexed": true,
                    "internalType": "bytes32",
                    "name": "role",
                    "type": "bytes32"
                },
                {
                    "indexed": true,
                    "internalType": "address",
                    "name": "account",
                    "type": "address"
                },
                {
                    "indexed": true,
                    "internalType": "address",
                    "name": "sender",
                    "type": "address"
                }
            ],
            "name": "RoleRevoked",
            "type": "event"
        },
        {
            "anonymous": false,
            "inputs": [
                {
                    "indexed": true,
                    "internalType": "address",
                    "name": "from",
                    "type": "address"
                },
                {
                    "indexed": true,
                    "internalType": "address",
                    "name": "to",
                    "type": "address"
                },
                {
                    "indexed": true,
                    "internalType": "uint256",
                    "name": "tokenId",
                    "type": "uint256"
                }
            ],
            "name": "Transfer",
            "type": "event"
        },
        {
            "anonymous": false,
            "inputs": [
                {
                    "indexed": false,
                    "internalType": "address",
                    "name": "account",
                    "type": "address"
                }
            ],
            "name": "Unpaused",
            "type": "event"
        },
        {
            "anonymous": false,
            "inputs": [
                {
                    "indexed": true,
                    "internalType": "address",
                    "name": "implementation",
                    "type": "address"
                }
            ],
            "name": "Upgraded",
            "type": "event"
        },
        {
            "anonymous": false,
            "inputs": [
                {
                    "indexed": false,
                    "internalType": "uint256",
                    "name": "approvedFor",
                    "type": "uint256"
                }
            ],
            "name": "Voucher",
            "type": "event"
        },
        {
            "inputs": [],
            "name": "DEFAULT_ADMIN_ROLE",
            "outputs": [
                {
                    "internalType": "bytes32",
                    "name": "",
                    "type": "bytes32"
                }
            ],
            "stateMutability": "view",
            "type": "function"
        },
        {
            "inputs": [],
            "name": "PAUSER_ROLE",
            "outputs": [
                {
                    "internalType": "bytes32",
                    "name": "",
                    "type": "bytes32"
                }
            ],
            "stateMutability": "view",
            "type": "function"
        },
        {
            "inputs": [],
            "name": "UPGRADER_ROLE",
            "outputs": [
                {
                    "internalType": "bytes32",
                    "name": "",
                    "type": "bytes32"
                }
            ],
            "stateMutability": "view",
            "type": "function"
        },
        {
            "inputs": [
                {
                    "internalType": "uint256",
                    "name": "communityId",
                    "type": "uint256"
                },
                {
                    "internalType": "address",
                    "name": "account",
                    "type": "address"
                }
            ],
            "name": "addApprover",
            "outputs": [],
            "stateMutability": "nonpayable",
            "type": "function"
        },
        {
            "inputs": [
                {
                    "internalType": "address",
                    "name": "to",
                    "type": "address"
                },
                {
                    "internalType": "uint256",
                    "name": "tokenId",
                    "type": "uint256"
                }
            ],
            "name": "approve",
            "outputs": [],
            "stateMutability": "nonpayable",
            "type": "function"
        },
        {
            "inputs": [
                {
                    "internalType": "uint256",
                    "name": "communityId",
                    "type": "uint256"
                },
                {
                    "internalType": "address[]",
                    "name": "approvedFor",
                    "type": "address[]"
                },
                {
                    "internalType": "string[]",
                    "name": "uri",
                    "type": "string[]"
                },
                {
                    "internalType": "string[]",
                    "name": "customIdentifier",
                    "type": "string[]"
                }
            ],
            "name": "approveBadge",
            "outputs": [],
            "stateMutability": "nonpayable",
            "type": "function"
        },
        {
            "inputs": [
                {
                    "internalType": "address",
                    "name": "owner",
                    "type": "address"
                }
            ],
            "name": "balanceOf",
            "outputs": [
                {
                    "internalType": "uint256",
                    "name": "",
                    "type": "uint256"
                }
            ],
            "stateMutability": "view",
            "type": "function"
        },
        {
            "inputs": [
                {
                    "internalType": "uint256[]",
                    "name": "tokenIds",
                    "type": "uint256[]"
                }
            ],
            "name": "claim",
            "outputs": [],
            "stateMutability": "nonpayable",
            "type": "function"
        },
        {
            "inputs": [
                {
                    "internalType": "uint256",
                    "name": "community_id",
                    "type": "uint256"
                }
            ],
            "name": "community",
            "outputs": [
                {
                    "components": [
                        {
                            "internalType": "string",
                            "name": "name",
                            "type": "string"
                        },
                        {
                            "internalType": "bool",
                            "name": "initiated",
                            "type": "bool"
                        }
                    ],
                    "internalType": "struct POCP.Community",
                    "name": "",
                    "type": "tuple"
                }
            ],
            "stateMutability": "view",
            "type": "function"
        },
        {
            "inputs": [
                {
                    "internalType": "uint256",
                    "name": "communityId",
                    "type": "uint256"
                }
            ],
            "name": "communityTokens",
            "outputs": [
                {
                    "internalType": "uint256[]",
                    "name": "",
                    "type": "uint256[]"
                }
            ],
            "stateMutability": "view",
            "type": "function"
        },
        {
            "inputs": [
                {
                    "internalType": "bytes32",
                    "name": "",
                    "type": "bytes32"
                }
            ],
            "name": "daos",
            "outputs": [
                {
                    "internalType": "bytes32",
                    "name": "",
                    "type": "bytes32"
                }
            ],
            "stateMutability": "view",
            "type": "function"
        },
        {
            "inputs": [
                {
                    "internalType": "uint256",
                    "name": "tokenId",
                    "type": "uint256"
                }
            ],
            "name": "getApproved",
            "outputs": [
                {
                    "internalType": "address",
                    "name": "",
                    "type": "address"
                }
            ],
            "stateMutability": "view",
            "type": "function"
        },
        {
            "inputs": [
                {
                    "internalType": "bytes32",
                    "name": "role",
                    "type": "bytes32"
                }
            ],
            "name": "getRoleAdmin",
            "outputs": [
                {
                    "internalType": "bytes32",
                    "name": "",
                    "type": "bytes32"
                }
            ],
            "stateMutability": "view",
            "type": "function"
        },
        {
            "inputs": [],
            "name": "getTrustedForwarder",
            "outputs": [
                {
                    "internalType": "address",
                    "name": "",
                    "type": "address"
                }
            ],
            "stateMutability": "view",
            "type": "function"
        },
        {
            "inputs": [
                {
                    "internalType": "bytes32",
                    "name": "role",
                    "type": "bytes32"
                },
                {
                    "internalType": "address",
                    "name": "account",
                    "type": "address"
                }
            ],
            "name": "grantRole",
            "outputs": [],
            "stateMutability": "nonpayable",
            "type": "function"
        },
        {
            "inputs": [
                {
                    "internalType": "bytes32",
                    "name": "role",
                    "type": "bytes32"
                },
                {
                    "internalType": "address",
                    "name": "account",
                    "type": "address"
                }
            ],
            "name": "hasRole",
            "outputs": [
                {
                    "internalType": "bool",
                    "name": "",
                    "type": "bool"
                }
            ],
            "stateMutability": "view",
            "type": "function"
        },
        {
            "inputs": [
                {
                    "internalType": "address",
                    "name": "trustedForwarder",
                    "type": "address"
                }
            ],
            "name": "initialize",
            "outputs": [],
            "stateMutability": "nonpayable",
            "type": "function"
        },
        {
            "inputs": [
                {
                    "internalType": "address",
                    "name": "owner",
                    "type": "address"
                },
                {
                    "internalType": "address",
                    "name": "operator",
                    "type": "address"
                }
            ],
            "name": "isApprovedForAll",
            "outputs": [
                {
                    "internalType": "bool",
                    "name": "",
                    "type": "bool"
                }
            ],
            "stateMutability": "view",
            "type": "function"
        },
        {
            "inputs": [
                {
                    "internalType": "uint256",
                    "name": "communityId",
                    "type": "uint256"
                },
                {
                    "internalType": "address",
                    "name": "account",
                    "type": "address"
                }
            ],
            "name": "isApprover",
            "outputs": [
                {
                    "internalType": "bool",
                    "name": "",
                    "type": "bool"
                }
            ],
            "stateMutability": "view",
            "type": "function"
        },
        {
            "inputs": [
                {
                    "internalType": "address",
                    "name": "forwarder",
                    "type": "address"
                }
            ],
            "name": "isTrustedForwarder",
            "outputs": [
                {
                    "internalType": "bool",
                    "name": "",
                    "type": "bool"
                }
            ],
            "stateMutability": "view",
            "type": "function"
        },
        {
            "inputs": [],
            "name": "lastId",
            "outputs": [
                {
                    "internalType": "uint256",
                    "name": "",
                    "type": "uint256"
                }
            ],
            "stateMutability": "view",
            "type": "function"
        },
        {
            "inputs": [],
            "name": "name",
            "outputs": [
                {
                    "internalType": "string",
                    "name": "",
                    "type": "string"
                }
            ],
            "stateMutability": "view",
            "type": "function"
        },
        {
            "inputs": [
                {
                    "internalType": "uint256",
                    "name": "tokenId",
                    "type": "uint256"
                }
            ],
            "name": "ownerOf",
            "outputs": [
                {
                    "internalType": "address",
                    "name": "",
                    "type": "address"
                }
            ],
            "stateMutability": "view",
            "type": "function"
        },
        {
            "inputs": [],
            "name": "pause",
            "outputs": [],
            "stateMutability": "nonpayable",
            "type": "function"
        },
        {
            "inputs": [],
            "name": "paused",
            "outputs": [
                {
                    "internalType": "bool",
                    "name": "",
                    "type": "bool"
                }
            ],
            "stateMutability": "view",
            "type": "function"
        },
        {
            "inputs": [],
            "name": "proxiableUUID",
            "outputs": [
                {
                    "internalType": "bytes32",
                    "name": "",
                    "type": "bytes32"
                }
            ],
            "stateMutability": "view",
            "type": "function"
        },
        {
            "inputs": [
                {
                    "internalType": "string",
                    "name": "communityName",
                    "type": "string"
                },
                {
                    "internalType": "address[]",
                    "name": "approvers",
                    "type": "address[]"
                }
            ],
            "name": "register",
            "outputs": [],
            "stateMutability": "nonpayable",
            "type": "function"
        },
        {
            "inputs": [
                {
                    "internalType": "uint256",
                    "name": "communityId",
                    "type": "uint256"
                },
                {
                    "internalType": "address",
                    "name": "account",
                    "type": "address"
                }
            ],
            "name": "removeApprover",
            "outputs": [],
            "stateMutability": "nonpayable",
            "type": "function"
        },
        {
            "inputs": [
                {
                    "internalType": "bytes32",
                    "name": "role",
                    "type": "bytes32"
                },
                {
                    "internalType": "address",
                    "name": "account",
                    "type": "address"
                }
            ],
            "name": "renounceRole",
            "outputs": [],
            "stateMutability": "nonpayable",
            "type": "function"
        },
        {
            "inputs": [
                {
                    "internalType": "bytes32",
                    "name": "role",
                    "type": "bytes32"
                },
                {
                    "internalType": "address",
                    "name": "account",
                    "type": "address"
                }
            ],
            "name": "revokeRole",
            "outputs": [],
            "stateMutability": "nonpayable",
            "type": "function"
        },
        {
            "inputs": [
                {
                    "internalType": "address",
                    "name": "to",
                    "type": "address"
                },
                {
                    "internalType": "uint256",
                    "name": "tokenId",
                    "type": "uint256"
                }
            ],
            "name": "safeMint",
            "outputs": [],
            "stateMutability": "nonpayable",
            "type": "function"
        },
        {
            "inputs": [
                {
                    "internalType": "address",
                    "name": "from",
                    "type": "address"
                },
                {
                    "internalType": "address",
                    "name": "to",
                    "type": "address"
                },
                {
                    "internalType": "uint256",
                    "name": "tokenId",
                    "type": "uint256"
                }
            ],
            "name": "safeTransferFrom",
            "outputs": [],
            "stateMutability": "nonpayable",
            "type": "function"
        },
        {
            "inputs": [
                {
                    "internalType": "address",
                    "name": "from",
                    "type": "address"
                },
                {
                    "internalType": "address",
                    "name": "to",
                    "type": "address"
                },
                {
                    "internalType": "uint256",
                    "name": "tokenId",
                    "type": "uint256"
                },
                {
                    "internalType": "bytes",
                    "name": "_data",
                    "type": "bytes"
                }
            ],
            "name": "safeTransferFrom",
            "outputs": [],
            "stateMutability": "nonpayable",
            "type": "function"
        },
        {
            "inputs": [
                {
                    "internalType": "address",
                    "name": "operator",
                    "type": "address"
                },
                {
                    "internalType": "bool",
                    "name": "approved",
                    "type": "bool"
                }
            ],
            "name": "setApprovalForAll",
            "outputs": [],
            "stateMutability": "nonpayable",
            "type": "function"
        },
        {
            "inputs": [
                {
                    "internalType": "bytes4",
                    "name": "interfaceId",
                    "type": "bytes4"
                }
            ],
            "name": "supportsInterface",
            "outputs": [
                {
                    "internalType": "bool",
                    "name": "",
                    "type": "bool"
                }
            ],
            "stateMutability": "view",
            "type": "function"
        },
        {
            "inputs": [],
            "name": "symbol",
            "outputs": [
                {
                    "internalType": "string",
                    "name": "",
                    "type": "string"
                }
            ],
            "stateMutability": "view",
            "type": "function"
        },
        {
            "inputs": [
                {
                    "internalType": "uint256",
                    "name": "index",
                    "type": "uint256"
                }
            ],
            "name": "tokenByIndex",
            "outputs": [
                {
                    "internalType": "uint256",
                    "name": "",
                    "type": "uint256"
                }
            ],
            "stateMutability": "view",
            "type": "function"
        },
        {
            "inputs": [
                {
                    "internalType": "address",
                    "name": "owner",
                    "type": "address"
                },
                {
                    "internalType": "uint256",
                    "name": "index",
                    "type": "uint256"
                }
            ],
            "name": "tokenOfOwnerByIndex",
            "outputs": [
                {
                    "internalType": "uint256",
                    "name": "",
                    "type": "uint256"
                }
            ],
            "stateMutability": "view",
            "type": "function"
        },
        {
            "inputs": [
                {
                    "internalType": "uint256",
                    "name": "tokenId",
                    "type": "uint256"
                }
            ],
            "name": "tokenURI",
            "outputs": [
                {
                    "internalType": "string",
                    "name": "",
                    "type": "string"
                }
            ],
            "stateMutability": "view",
            "type": "function"
        },
        {
            "inputs": [],
            "name": "totalCommunities",
            "outputs": [
                {
                    "internalType": "uint256",
                    "name": "",
                    "type": "uint256"
                }
            ],
            "stateMutability": "view",
            "type": "function"
        },
        {
            "inputs": [],
            "name": "totalSupply",
            "outputs": [
                {
                    "internalType": "uint256",
                    "name": "",
                    "type": "uint256"
                }
            ],
            "stateMutability": "view",
            "type": "function"
        },
        {
            "inputs": [
                {
                    "internalType": "address",
                    "name": "from",
                    "type": "address"
                },
                {
                    "internalType": "address",
                    "name": "to",
                    "type": "address"
                },
                {
                    "internalType": "uint256",
                    "name": "tokenId",
                    "type": "uint256"
                }
            ],
            "name": "transferFrom",
            "outputs": [],
            "stateMutability": "nonpayable",
            "type": "function"
        },
        {
            "inputs": [],
            "name": "unpause",
            "outputs": [],
            "stateMutability": "nonpayable",
            "type": "function"
        },
        {
            "inputs": [
                {
                    "internalType": "address",
                    "name": "newImplementation",
                    "type": "address"
                }
            ],
            "name": "upgradeTo",
            "outputs": [],
            "stateMutability": "nonpayable",
            "type": "function"
        },
        {
            "inputs": [
                {
                    "internalType": "address",
                    "name": "newImplementation",
                    "type": "address"
                },
                {
                    "internalType": "bytes",
                    "name": "data",
                    "type": "bytes"
                }
            ],
            "name": "upgradeToAndCall",
            "outputs": [],
            "stateMutability": "payable",
            "type": "function"
        },
        {
            "inputs": [
                {
                    "internalType": "uint8",
                    "name": "tokenId",
                    "type": "uint8"
                }
            ],
            "name": "userBadge",
            "outputs": [
                {
                    "components": [
                        {
                            "internalType": "string",
                            "name": "uri",
                            "type": "string"
                        },
                        {
                            "internalType": "address",
                            "name": "approvedBy",
                            "type": "address"
                        },
                        {
                            "internalType": "bool",
                            "name": "claimed",
                            "type": "bool"
                        },
                        {
                            "internalType": "bool",
                            "name": "initiated",
                            "type": "bool"
                        },
                        {
                            "internalType": "uint256",
                            "name": "communityId",
                            "type": "uint256"
                        }
                    ],
                    "internalType": "struct POCP.Badge",
                    "name": "badge",
                    "type": "tuple"
                }
            ],
            "stateMutability": "view",
            "type": "function"
        },
        {
            "inputs": [],
            "name": "userBadgeIds",
            "outputs": [
                {
                    "internalType": "uint256[]",
                    "name": "badgeIds",
                    "type": "uint256[]"
                }
            ],
            "stateMutability": "view",
            "type": "function"
        }
    ],
    "bytecode": "0x60a06040523060601b60805234801561001757600080fd5b5060805160601c61404c610052600039600081816111cb0152818161120b015281816112ce0152818161130e015261143e015261404c6000f3fe6080604052600436106102885760003560e01c80636352211e1161015a578063c3759eb8116100c1578063d547741f1161007a578063d547741f146107a0578063dc349a3b146107c0578063e63ab1e9146107ed578063e985e9c51461080f578063f72c0d8b14610858578063fcb4d2061461088c57600080fd5b8063c3759eb8146106df578063c4d66de8146106ff578063c87b56dd1461071f578063c9ab9cf61461073f578063ce1b815f14610761578063d3e4047a1461078057600080fd5b8063a144819411610113578063a144819414610638578063a217fddf14610658578063a22cb4651461066d578063b88d4fde1461068d578063bb6c352c146106a8578063c1292cc3146106c857600080fd5b80636352211e1461058e5780636ba4c138146105ae57806370a08231146105ce5780638456cb59146105ee57806391d148541461060357806395d89b411461062357600080fd5b80632fa2cc4e116101fe5780634f1ef286116101b75780634f1ef286146104de5780634f6ccce7146104f157806352d1902d146105115780635317234e14610526578063572b6c05146105465780635c975abb1461057657600080fd5b80632fa2cc4e1461043b5780632faf59d41461046957806336568abe146104895780633659cfe6146104a95780633f4ba83a146104c957806342842e0e146103aa57600080fd5b806318160ddd1161025057806318160ddd1461036b5780632070fea51461038a57806323b872dd146103aa578063248a9ca3146103ca5780632f2ff15d146103fb5780632f745c591461041b57600080fd5b806301ffc9a71461028d57806306fdde03146102c2578063081812fc146102e4578063095ea7b31461031c57806314de72d41461033e575b600080fd5b34801561029957600080fd5b506102ad6102a8366004613847565b6108a3565b60405190151581526020015b60405180910390f35b3480156102ce57600080fd5b506102d76108b4565b6040516102b99190613b3e565b3480156102f057600080fd5b506103046102ff3660046137f5565b610946565b6040516001600160a01b0390911681526020016102b9565b34801561032857600080fd5b5061033c61033736600461378c565b6109e0565b005b34801561034a57600080fd5b5061035e6103593660046137f5565b610b08565b6040516102b99190613d2e565b34801561037757600080fd5b506099545b6040519081526020016102b9565b34801561039657600080fd5b5061033c6103a536600461394d565b610bde565b3480156103b657600080fd5b5061033c6103c5366004613665565b610f2c565b3480156103d657600080fd5b5061037c6103e53660046137f5565b60009081526101c6602052604090206001015490565b34801561040757600080fd5b5061033c610416366004613825565b610f6b565b34801561042757600080fd5b5061037c61043636600461378c565b610f99565b34801561044757600080fd5b5061037c6104563660046137f5565b61012d6020526000908152604090205481565b34801561047557600080fd5b5061033c610484366004613863565b61102f565b34801561049557600080fd5b5061033c6104a4366004613825565b611132565b3480156104b557600080fd5b5061033c6104c4366004613619565b6111c0565b3480156104d557600080fd5b5061033c6112a0565b61033c6104ec366004613740565b6112c3565b3480156104fd57600080fd5b5061037c61050c3660046137f5565b611390565b34801561051d57600080fd5b5061037c611431565b34801561053257600080fd5b5061033c610541366004613825565b6114e4565b34801561055257600080fd5b506102ad610561366004613619565b61022b546001600160a01b0391821691161490565b34801561058257600080fd5b5060fb5460ff166102ad565b34801561059a57600080fd5b506103046105a93660046137f5565b611541565b3480156105ba57600080fd5b5061033c6105c93660046137b5565b6115b8565b3480156105da57600080fd5b5061037c6105e9366004613619565b61181d565b3480156105fa57600080fd5b5061033c6118a4565b34801561060f57600080fd5b506102ad61061e366004613825565b6118c7565b34801561062f57600080fd5b506102d76118f3565b34801561064457600080fd5b5061033c61065336600461378c565b611902565b34801561066457600080fd5b5061037c600081565b34801561067957600080fd5b5061033c610688366004613706565b61193d565b34801561069957600080fd5b5061033c6103c53660046136a0565b3480156106b457600080fd5b5061033c6106c3366004613825565b61194f565b3480156106d457600080fd5b5061037c6102315481565b3480156106eb57600080fd5b506102ad6106fa366004613825565b6119a6565b34801561070b57600080fd5b5061033c61071a366004613619565b6119d2565b34801561072b57600080fd5b506102d761073a3660046137f5565b611b25565b34801561074b57600080fd5b50610754611b30565b6040516102b99190613afa565b34801561076d57600080fd5b5061022b546001600160a01b0316610304565b34801561078c57600080fd5b5061075461079b3660046137f5565b611bb2565b3480156107ac57600080fd5b5061033c6107bb366004613825565b611c15565b3480156107cc57600080fd5b506107e06107db3660046139ed565b611c3e565b6040516102b99190613cd2565b3480156107f957600080fd5b5061037c600080516020613fd083398151915281565b34801561081b57600080fd5b506102ad61082a366004613633565b6001600160a01b039182166000908152606a6020908152604080832093909416825291909152205460ff1690565b34801561086457600080fd5b5061037c7f189ab7a9244df0848122154315af71fe140f3db0fe014031783b0946b8c9d2e381565b34801561089857600080fd5b5061037c61022d5481565b60006108ae82611d8e565b92915050565b6060606580546108c390613eed565b80601f01602080910402602001604051908101604052809291908181526020018280546108ef90613eed565b801561093c5780601f106109115761010080835404028352916020019161093c565b820191906000526020600020905b81548152906001019060200180831161091f57829003601f168201915b5050505050905090565b6000818152606760205260408120546001600160a01b03166109c45760405162461bcd60e51b815260206004820152602c60248201527f4552433732313a20617070726f76656420717565727920666f72206e6f6e657860448201526b34b9ba32b73a103a37b5b2b760a11b60648201526084015b60405180910390fd5b506000908152606960205260409020546001600160a01b031690565b60006109eb82611541565b9050806001600160a01b0316836001600160a01b03161415610a595760405162461bcd60e51b815260206004820152602160248201527f4552433732313a20617070726f76616c20746f2063757272656e74206f776e656044820152603960f91b60648201526084016109bb565b806001600160a01b0316610a6b611db3565b6001600160a01b03161480610a875750610a878161082a611db3565b610af95760405162461bcd60e51b815260206004820152603860248201527f4552433732313a20617070726f76652063616c6c6572206973206e6f74206f7760448201527f6e6572206e6f7220617070726f76656420666f7220616c6c000000000000000060648201526084016109bb565b610b038383611ddc565b505050565b604080518082019091526060815260006020820152600082815261022c6020526040908190208151808301909252805482908290610b4590613eed565b80601f0160208091040260200160405190810160405280929190818152602001828054610b7190613eed565b8015610bbe5780601f10610b9357610100808354040283529160200191610bbe565b820191906000526020600020905b815481529060010190602001808311610ba157829003601f168201915b50505091835250506001919091015460ff16151560209091015292915050565b60fb5460ff1615610c015760405162461bcd60e51b81526004016109bb90613be9565b86610c0a611db3565b610c1482826119a6565b80610c32575060008281526101f8602052604090206001015460ff16155b610c4e5760405162461bcd60e51b81526004016109bb90613c61565b8685148015610c5c57508483145b610c9f5760405162461bcd60e51b815260206004820152601460248201527320b933bab6b2b73a1034b7383aba1032b93937b960611b60448201526064016109bb565b60005b87811015610f20576040518060a00160405280888884818110610cd557634e487b7160e01b600052603260045260246000fd5b9050602002810190610ce79190613dd2565b8080601f016020809104026020016040519081016040528093929190818152602001838380828437600092019190915250505090825250602001610d29611db3565b6001600160a01b031681526000602082018190526001604083015260609091018c905261022f908b8b85818110610d7057634e487b7160e01b600052603260045260246000fd5b9050602002016020810190610d859190613619565b6001600160a01b0316815260208082019290925260409081016000908120610231548252835220825180519192610dc1928492909101906134a3565b506020820151600182018054604085015160608601511515600160a81b0260ff60a81b19911515600160a01b026001600160a81b03199093166001600160a01b0390951694909417919091171691909117905560809091015160029091015561023060008a8a84818110610e4557634e487b7160e01b600052603260045260246000fd5b9050602002016020810190610e5a9190613619565b6001600160a01b0316815260208082019290925260400160009081206102315481546001810183559183529290912001557fb8f7809d63e43e2392764e5ad5996eadadc7dd8a5b1edda5d7e0dbd0cfec2e5a8a868684818110610ecd57634e487b7160e01b600052603260045260246000fd5b9050602002810190610edf9190613dd2565b61023154604051610ef39493929190613d62565b60405180910390a161023154610f0a906001613e48565b6102315580610f1881613f28565b915050610ca2565b50505050505050505050565b60405162461bcd60e51b8152602060048201526014602482015273151c985b9cd9995c881b9bdd08105b1b1bddd95960621b60448201526064016109bb565b60008281526101c66020526040902060010154610f8f81610f8a611db3565b611e4a565b610b038383611eae565b6000610fa48361181d565b82106110065760405162461bcd60e51b815260206004820152602b60248201527f455243373231456e756d657261626c653a206f776e657220696e646578206f7560448201526a74206f6620626f756e647360a81b60648201526084016109bb565b506001600160a01b03919091166000908152609760209081526040808320938352929052205490565b61022d546040805180820182528481526001602080830191909152600084815261022c825292909220815180519293849361106d92849201906134a3565b50602091909101516001918201805460ff191691151591909117905561022d5461109691613e48565b61022d5560005b83518110156110e9576110d7838583815181106110ca57634e487b7160e01b600052603260045260246000fd5b60200260200101516114e4565b806110e181613f28565b91505061109d565b507face92cf234a98ee3719291804162de627309cddd21cca99a54eae87cce7a98bf8285611115611db3565b60405161112493929190613da1565b60405180910390a150505050565b61113a611db3565b6001600160a01b0316816001600160a01b0316146111b25760405162461bcd60e51b815260206004820152602f60248201527f416363657373436f6e74726f6c3a2063616e206f6e6c792072656e6f756e636560448201526e103937b632b9903337b91039b2b63360891b60648201526084016109bb565b6111bc8282611f36565b5050565b306001600160a01b037f00000000000000000000000000000000000000000000000000000000000000001614156112095760405162461bcd60e51b81526004016109bb90613b51565b7f00000000000000000000000000000000000000000000000000000000000000006001600160a01b0316611252600080516020613fb0833981519152546001600160a01b031690565b6001600160a01b0316146112785760405162461bcd60e51b81526004016109bb90613b9d565b61128181611fbc565b6040805160008082526020820190925261129d91839190611fe9565b50565b600080516020613fd08339815191526112bb81610f8a611db3565b61129d612163565b306001600160a01b037f000000000000000000000000000000000000000000000000000000000000000016141561130c5760405162461bcd60e51b81526004016109bb90613b51565b7f00000000000000000000000000000000000000000000000000000000000000006001600160a01b0316611355600080516020613fb0833981519152546001600160a01b031690565b6001600160a01b03161461137b5760405162461bcd60e51b81526004016109bb90613b9d565b61138482611fbc565b6111bc82826001611fe9565b600061139b60995490565b82106113fe5760405162461bcd60e51b815260206004820152602c60248201527f455243373231456e756d657261626c653a20676c6f62616c20696e646578206f60448201526b7574206f6620626f756e647360a01b60648201526084016109bb565b6099828154811061141f57634e487b7160e01b600052603260045260246000fd5b90600052602060002001549050919050565b6000306001600160a01b037f000000000000000000000000000000000000000000000000000000000000000016146114d15760405162461bcd60e51b815260206004820152603860248201527f555550535570677261646561626c653a206d757374206e6f742062652063616c60448201527f6c6564207468726f7567682064656c656761746563616c6c000000000000000060648201526084016109bb565b50600080516020613fb083398151915290565b816114ed611db3565b6114f782826119a6565b80611515575060008281526101f8602052604090206001015460ff16155b6115315760405162461bcd60e51b81526004016109bb90613c61565b61153b84846121fc565b50505050565b6000818152606760205260408120546001600160a01b0316806108ae5760405162461bcd60e51b815260206004820152602960248201527f4552433732313a206f776e657220717565727920666f72206e6f6e657869737460448201526832b73a103a37b5b2b760b91b60648201526084016109bb565b60fb5460ff16156115db5760405162461bcd60e51b81526004016109bb90613be9565b806116215760405162461bcd60e51b8152602060048201526016602482015275746f6b656e496473206c69737420697320656d70747960501b60448201526064016109bb565b60005b81811015610b0357600083838381811061164e57634e487b7160e01b600052603260045260246000fd5b905060200201359050600061022f6000611666611db3565b6001600160a01b031681526020808201929092526040908101600090812085825290925290206001810154909150600160a01b900460ff161580156116ba5750600181810154600160a81b900460ff161515145b156118085760018101546116d7906001600160a01b031683612281565b61176d828260000180546116ea90613eed565b80601f016020809104026020016040519081016040528092919081815260200182805461171690613eed565b80156117635780601f1061173857610100808354040283529160200191611763565b820191906000526020600020905b81548152906001019060200180831161174657829003601f168201915b50505050506123cf565b60028101546040805184815260208101929092527f0c86f3fbd292584ffcc982f3252f26626221d8953c2d1a00ce6ef24a906cb720910160405180910390a160018101546117cc906001600160a01b03166117c6611db3565b84612469565b6001818101805460ff60a01b1916600160a01b1790556002820154600090815261022e6020908152604082208054938401815582529020018290555b5050808061181590613f28565b915050611624565b60006001600160a01b0382166118885760405162461bcd60e51b815260206004820152602a60248201527f4552433732313a2062616c616e636520717565727920666f7220746865207a65604482015269726f206164647265737360b01b60648201526084016109bb565b506001600160a01b031660009081526068602052604090205490565b600080516020613fd08339815191526118bf81610f8a611db3565b61129d612610565b60009182526101c6602090815260408084206001600160a01b0393909316845291905290205460ff1690565b6060606680546108c390613eed565b60405162461bcd60e51b815260206004820152601060248201526f135a5b9d081b9bdd08105b1b1bddd95960821b60448201526064016109bb565b6111bc611948611db3565b8383612669565b81611958611db3565b61196282826119a6565b80611980575060008281526101f8602052604090206001015460ff16155b61199c5760405162461bcd60e51b81526004016109bb90613c61565b61153b8484612738565b60009182526101f8602090815260408084206001600160a01b0393909316845291905290205460ff1690565b600054610100900460ff166119ed5760005460ff16156119f1565b303b155b611a0d5760405162461bcd60e51b81526004016109bb90613c13565b600054610100900460ff16158015611a2f576000805461ffff19166101011790555b611a71604051806040016040528060048152602001630504f43560e41b815250604051806040016040528060048152602001630504f43560e41b8152506127a0565b611a796127d1565b611a816127d1565b611a896127fa565b611a916127d1565b611ae06040518060400160405280601081526020016f26b4b734b6b0b62337b93bb0b93232b960811b81525060405180604001604052806005815260200164302e302e3160d81b815250612829565b611ae861285a565b61022b80546001600160a01b0319166001600160a01b038416179055600061022d5560016102315580156111bc576000805461ff00191690555050565b60606108ae8261292b565b60606102306000611b3f611db3565b6001600160a01b03166001600160a01b0316815260200190815260200160002080548060200260200160405190810160405280929190818152602001828054801561093c57602002820191906000526020600020905b815481526020019060010190808311611b95575050505050905090565b600081815261022e6020908152604091829020805483518184028101840190945280845260609392830182828015611c0957602002820191906000526020600020905b815481526020019060010190808311611bf5575b50505050509050919050565b60008281526101c66020526040902060010154611c3481610f8a611db3565b610b038383611f36565b6040805160a08101825260608082526000602083018190529282018390528101829052608081019190915261022f6000611c76611db3565b6001600160a01b03166001600160a01b0316815260200190815260200160002060008360ff1681526020019081526020016000206040518060a0016040529081600082018054611cc590613eed565b80601f0160208091040260200160405190810160405280929190818152602001828054611cf190613eed565b8015611d3e5780601f10611d1357610100808354040283529160200191611d3e565b820191906000526020600020905b815481529060010190602001808311611d2157829003601f168201915b505050918352505060018201546001600160a01b038116602083015260ff600160a01b8204811615156040840152600160a81b909104161515606082015260029091015460809091015292915050565b60006001600160e01b03198216637965db0b60e01b14806108ae57506108ae82612ab2565b61022b546000906001600160a01b0316331415611dd7575060131936013560601c90565b503390565b600081815260696020526040902080546001600160a01b0319166001600160a01b0384169081179091558190611e1182611541565b6001600160a01b03167f8c5be1e5ebec7d5bd14f71427d1e84f3dd0314c0f7b2291e5b200ac8c7c3b92560405160405180910390a45050565b611e5482826118c7565b6111bc57611e6c816001600160a01b03166014612ad7565b611e77836020612ad7565b604051602001611e88929190613a85565b60408051601f198184030181529082905262461bcd60e51b82526109bb91600401613b3e565b611eb882826118c7565b6111bc5760008281526101c6602090815260408083206001600160a01b03851684529091529020805460ff19166001179055611ef2611db3565b6001600160a01b0316816001600160a01b0316837f2f8788117e7eff1d82e926ec794901d17c78024a50270940304540a733656f0d60405160405180910390a45050565b611f4082826118c7565b156111bc5760008281526101c6602090815260408083206001600160a01b03851684529091529020805460ff19169055611f78611db3565b6001600160a01b0316816001600160a01b0316837ff6391f5c32d9c69d2a47ea670b442974b53935d1edc7fd64eb21e047a839171b60405160405180910390a45050565b7f189ab7a9244df0848122154315af71fe140f3db0fe014031783b0946b8c9d2e36111bc81610f8a611db3565b7f4910fdfa16fed3260ed0e7147f7cc6da11a60208b5b9406d12a635614ffd91435460ff161561201c57610b0383612cc0565b826001600160a01b03166352d1902d6040518163ffffffff1660e01b815260040160206040518083038186803b15801561205557600080fd5b505afa925050508015612085575060408051601f3d908101601f191682019092526120829181019061380d565b60015b6120e85760405162461bcd60e51b815260206004820152602e60248201527f45524331393637557067726164653a206e657720696d706c656d656e7461746960448201526d6f6e206973206e6f74205555505360901b60648201526084016109bb565b600080516020613fb083398151915281146121575760405162461bcd60e51b815260206004820152602960248201527f45524331393637557067726164653a20756e737570706f727465642070726f786044820152681a58589b195555525160ba1b60648201526084016109bb565b50610b03838383612d5c565b60fb5460ff166121ac5760405162461bcd60e51b815260206004820152601460248201527314185d5cd8589b194e881b9bdd081c185d5cd95960621b60448201526064016109bb565b60fb805460ff191690557f5db9ee0a495bf2e6ff9c91a7834c1ba4fdd244a5e8aa4e537bd38aeae4b073aa6121df611db3565b6040516001600160a01b03909116815260200160405180910390a1565b61220682826119a6565b6111bc5760008281526101f8602081815260408084206001600160a01b0386168086528184528286208054600160ff1991821681179092558988529590945290830180549094169092179092559051909184917feca5cd72207e44a6cfefd583fd8df9a5498c3930b1c274e1a1c6d6318ba0cac49190a35050565b6001600160a01b0382166122d75760405162461bcd60e51b815260206004820181905260248201527f4552433732313a206d696e7420746f20746865207a65726f206164647265737360448201526064016109bb565b6000818152606760205260409020546001600160a01b03161561233c5760405162461bcd60e51b815260206004820152601c60248201527f4552433732313a20746f6b656e20616c7265616479206d696e7465640000000060448201526064016109bb565b61234860008383612d81565b6001600160a01b0382166000908152606860205260408120805460019290612371908490613e48565b909155505060008181526067602052604080822080546001600160a01b0319166001600160a01b03861690811790915590518392907fddf252ad1be2c89b69c2b068fc378daa952ba7f163c4a11628f55a4df523b3ef908290a45050565b6000828152606760205260409020546001600160a01b031661244a5760405162461bcd60e51b815260206004820152602e60248201527f45524337323155524953746f726167653a2055524920736574206f66206e6f6e60448201526d32bc34b9ba32b73a103a37b5b2b760911b60648201526084016109bb565b600082815260c9602090815260409091208251610b03928401906134a3565b826001600160a01b031661247c82611541565b6001600160a01b0316146124e05760405162461bcd60e51b815260206004820152602560248201527f4552433732313a207472616e736665722066726f6d20696e636f72726563742060448201526437bbb732b960d91b60648201526084016109bb565b6001600160a01b0382166125425760405162461bcd60e51b8152602060048201526024808201527f4552433732313a207472616e7366657220746f20746865207a65726f206164646044820152637265737360e01b60648201526084016109bb565b61254d838383612d81565b612558600082611ddc565b6001600160a01b0383166000908152606860205260408120805460019290612581908490613e93565b90915550506001600160a01b03821660009081526068602052604081208054600192906125af908490613e48565b909155505060008181526067602052604080822080546001600160a01b0319166001600160a01b0386811691821790925591518493918716917fddf252ad1be2c89b69c2b068fc378daa952ba7f163c4a11628f55a4df523b3ef91a4505050565b60fb5460ff16156126335760405162461bcd60e51b81526004016109bb90613be9565b60fb805460ff191660011790557f62e78cea01bee320cd4e420270b5ea74000d11b0c9f74754ebdbfc544b05a2586121df611db3565b816001600160a01b0316836001600160a01b031614156126cb5760405162461bcd60e51b815260206004820152601960248201527f4552433732313a20617070726f766520746f2063616c6c65720000000000000060448201526064016109bb565b6001600160a01b038381166000818152606a6020908152604080832094871680845294825291829020805460ff191686151590811790915591519182527f17307eab39ab6107e8899845ad3d59bd9653f200f220920489ca2b5937696c31910160405180910390a3505050565b61274282826119a6565b156111bc5760008281526101f8602090815260408083206001600160a01b0385168085529252808320805460ff1916905551909184917f708f1c3522caddc3f4266f87a63148078e0803ccc35ab7b4bc729f5863f463539190a35050565b600054610100900460ff166127c75760405162461bcd60e51b81526004016109bb90613c87565b6111bc8282612daf565b600054610100900460ff166127f85760405162461bcd60e51b81526004016109bb90613c87565b565b600054610100900460ff166128215760405162461bcd60e51b81526004016109bb90613c87565b6127f8612dfd565b600054610100900460ff166128505760405162461bcd60e51b81526004016109bb90613c87565b6111bc8282612e30565b600054610100900460ff166128755760005460ff1615612879565b303b155b6128955760405162461bcd60e51b81526004016109bb90613c13565b600054610100900460ff161580156128b7576000805461ffff19166101011790555b6128bf6127d1565b6128d160006128cc611db3565b611eae565b6128eb600080516020613fd08339815191526128cc611db3565b6129177f189ab7a9244df0848122154315af71fe140f3db0fe014031783b0946b8c9d2e36128cc611db3565b801561129d576000805461ff001916905550565b6000818152606760205260409020546060906001600160a01b03166129ac5760405162461bcd60e51b815260206004820152603160248201527f45524337323155524953746f726167653a2055524920717565727920666f72206044820152703737b732bc34b9ba32b73a103a37b5b2b760791b60648201526084016109bb565b600082815260c96020526040812080546129c590613eed565b80601f01602080910402602001604051908101604052809291908181526020018280546129f190613eed565b8015612a3e5780601f10612a1357610100808354040283529160200191612a3e565b820191906000526020600020905b815481529060010190602001808311612a2157829003601f168201915b505050505090506000612a5c60408051602081019091526000815290565b9050805160001415612a6f575092915050565b815115612aa1578082604051602001612a89929190613a56565b60405160208183030381529060405292505050919050565b612aaa84612e73565b949350505050565b60006001600160e01b0319821663780e9d6360e01b14806108ae57506108ae82612f5a565b60606000612ae6836002613e74565b612af1906002613e48565b67ffffffffffffffff811115612b1757634e487b7160e01b600052604160045260246000fd5b6040519080825280601f01601f191660200182016040528015612b41576020820181803683370190505b509050600360fc1b81600081518110612b6a57634e487b7160e01b600052603260045260246000fd5b60200101906001600160f81b031916908160001a905350600f60fb1b81600181518110612ba757634e487b7160e01b600052603260045260246000fd5b60200101906001600160f81b031916908160001a9053506000612bcb846002613e74565b612bd6906001613e48565b90505b6001811115612c6a576f181899199a1a9b1b9c1cb0b131b232b360811b85600f1660108110612c1857634e487b7160e01b600052603260045260246000fd5b1a60f81b828281518110612c3c57634e487b7160e01b600052603260045260246000fd5b60200101906001600160f81b031916908160001a90535060049490941c93612c6381613ed6565b9050612bd9565b508315612cb95760405162461bcd60e51b815260206004820181905260248201527f537472696e67733a20686578206c656e67746820696e73756666696369656e7460448201526064016109bb565b9392505050565b6001600160a01b0381163b612d2d5760405162461bcd60e51b815260206004820152602d60248201527f455243313936373a206e657720696d706c656d656e746174696f6e206973206e60448201526c1bdd08184818dbdb9d1c9858dd609a1b60648201526084016109bb565b600080516020613fb083398151915280546001600160a01b0319166001600160a01b0392909216919091179055565b612d6583612faa565b600082511180612d725750805b15610b035761153b8383612fea565b60fb5460ff1615612da45760405162461bcd60e51b81526004016109bb90613be9565b610b038383836130de565b600054610100900460ff16612dd65760405162461bcd60e51b81526004016109bb90613c87565b8151612de99060659060208501906134a3565b508051610b039060669060208401906134a3565b600054610100900460ff16612e245760405162461bcd60e51b81526004016109bb90613c87565b60fb805460ff19169055565b600054610100900460ff16612e575760405162461bcd60e51b81526004016109bb90613c87565b8151602092830120815191909201206101929190915561019355565b6000818152606760205260409020546060906001600160a01b0316612ef25760405162461bcd60e51b815260206004820152602f60248201527f4552433732314d657461646174613a2055524920717565727920666f72206e6f60448201526e3732bc34b9ba32b73a103a37b5b2b760891b60648201526084016109bb565b6000612f0960408051602081019091526000815290565b90506000815111612f295760405180602001604052806000815250612cb9565b80612f3384613196565b604051602001612f44929190613a56565b6040516020818303038152906040529392505050565b60006001600160e01b031982166380ac58cd60e01b1480612f8b57506001600160e01b03198216635b5e139f60e01b145b806108ae57506301ffc9a760e01b6001600160e01b03198316146108ae565b612fb381612cc0565b6040516001600160a01b038216907fbc7cd75a20ee27fd9adebab32041f755214dbc6bffa90cc0225b39da2e5c2d3b90600090a250565b60606001600160a01b0383163b6130525760405162461bcd60e51b815260206004820152602660248201527f416464726573733a2064656c65676174652063616c6c20746f206e6f6e2d636f6044820152651b9d1c9858dd60d21b60648201526084016109bb565b600080846001600160a01b03168460405161306d9190613a3a565b600060405180830381855af49150503d80600081146130a8576040519150601f19603f3d011682016040523d82523d6000602084013e6130ad565b606091505b50915091506130d58282604051806060016040528060278152602001613ff0602791396132b0565b95945050505050565b6001600160a01b0383166131395761313481609980546000838152609a60205260408120829055600182018355919091527f72a152ddfb8e864297c917af52ea6c1c68aead0fee1a62673fcc7e0c94979d000155565b61315c565b816001600160a01b0316836001600160a01b03161461315c5761315c83826132e9565b6001600160a01b03821661317357610b0381613386565b826001600160a01b0316826001600160a01b031614610b0357610b03828261345f565b6060816131ba5750506040805180820190915260018152600360fc1b602082015290565b8160005b81156131e457806131ce81613f28565b91506131dd9050600a83613e60565b91506131be565b60008167ffffffffffffffff81111561320d57634e487b7160e01b600052604160045260246000fd5b6040519080825280601f01601f191660200182016040528015613237576020820181803683370190505b5090505b8415612aaa5761324c600183613e93565b9150613259600a86613f43565b613264906030613e48565b60f81b81838151811061328757634e487b7160e01b600052603260045260246000fd5b60200101906001600160f81b031916908160001a9053506132a9600a86613e60565b945061323b565b606083156132bf575081612cb9565b8251156132cf5782518084602001fd5b8160405162461bcd60e51b81526004016109bb9190613b3e565b600060016132f68461181d565b6133009190613e93565b600083815260986020526040902054909150808214613353576001600160a01b03841660009081526097602090815260408083208584528252808320548484528184208190558352609890915290208190555b5060009182526098602090815260408084208490556001600160a01b039094168352609781528383209183525290812055565b60995460009061339890600190613e93565b6000838152609a6020526040812054609980549394509092849081106133ce57634e487b7160e01b600052603260045260246000fd5b9060005260206000200154905080609983815481106133fd57634e487b7160e01b600052603260045260246000fd5b6000918252602080832090910192909255828152609a9091526040808220849055858252812055609980548061344357634e487b7160e01b600052603160045260246000fd5b6001900381819060005260206000200160009055905550505050565b600061346a8361181d565b6001600160a01b039093166000908152609760209081526040808320868452825280832085905593825260989052919091209190915550565b8280546134af90613eed565b90600052602060002090601f0160209004810192826134d15760008555613517565b82601f106134ea57805160ff1916838001178555613517565b82800160010185558215613517579182015b828111156135175782518255916020019190600101906134fc565b50613523929150613527565b5090565b5b808211156135235760008155600101613528565b600067ffffffffffffffff83111561355657613556613f83565b613569601f8401601f1916602001613e17565b905082815283838301111561357d57600080fd5b828260208301376000602084830101529392505050565b80356001600160a01b03811681146135ab57600080fd5b919050565b60008083601f8401126135c1578182fd5b50813567ffffffffffffffff8111156135d8578182fd5b6020830191508360208260051b85010111156135f357600080fd5b9250929050565b600082601f83011261360a578081fd5b612cb98383356020850161353c565b60006020828403121561362a578081fd5b612cb982613594565b60008060408385031215613645578081fd5b61364e83613594565b915061365c60208401613594565b90509250929050565b600080600060608486031215613679578081fd5b61368284613594565b925061369060208501613594565b9150604084013590509250925092565b600080600080608085870312156136b5578081fd5b6136be85613594565b93506136cc60208601613594565b925060408501359150606085013567ffffffffffffffff8111156136ee578182fd5b6136fa878288016135fa565b91505092959194509250565b60008060408385031215613718578182fd5b61372183613594565b915060208301358015158114613735578182fd5b809150509250929050565b60008060408385031215613752578182fd5b61375b83613594565b9150602083013567ffffffffffffffff811115613776578182fd5b613782858286016135fa565b9150509250929050565b6000806040838503121561379e578182fd5b6137a783613594565b946020939093013593505050565b600080602083850312156137c7578081fd5b823567ffffffffffffffff8111156137dd578182fd5b6137e9858286016135b0565b90969095509350505050565b600060208284031215613806578081fd5b5035919050565b60006020828403121561381e578081fd5b5051919050565b60008060408385031215613837578182fd5b8235915061365c60208401613594565b600060208284031215613858578081fd5b8135612cb981613f99565b60008060408385031215613875578182fd5b823567ffffffffffffffff8082111561388c578384fd5b818501915085601f83011261389f578384fd5b60206138af87843583860161353c565b9450808601359250818311156138c3578384fd5b828601925086601f8401126138d6578384fd5b8235828111156138e8576138e8613f83565b8060051b92506138f9828401613e17565b8181528281019085840185870185018b1015613913578788fd5b8796505b8387101561393c5761392881613594565b835260019690960195918401918401613917565b508096505050505050509250929050565b60008060008060008060006080888a031215613967578485fd5b87359650602088013567ffffffffffffffff80821115613985578687fd5b6139918b838c016135b0565b909850965060408a01359150808211156139a9578485fd5b6139b58b838c016135b0565b909650945060608a01359150808211156139cd578384fd5b506139da8a828b016135b0565b989b979a50959850939692959293505050565b6000602082840312156139fe578081fd5b813560ff81168114612cb9578182fd5b60008151808452613a26816020860160208601613eaa565b601f01601f19169290920160200192915050565b60008251613a4c818460208701613eaa565b9190910192915050565b60008351613a68818460208801613eaa565b835190830190613a7c818360208801613eaa565b01949350505050565b7f416363657373436f6e74726f6c3a206163636f756e7420000000000000000000815260008351613abd816017850160208801613eaa565b7001034b99036b4b9b9b4b733903937b6329607d1b6017918401918201528351613aee816028840160208801613eaa565b01602801949350505050565b6020808252825182820181905260009190848201906040850190845b81811015613b3257835183529284019291840191600101613b16565b50909695505050505050565b602081526000612cb96020830184613a0e565b6020808252602c908201527f46756e6374696f6e206d7573742062652063616c6c6564207468726f7567682060408201526b19195b1959d85d1958d85b1b60a21b606082015260800190565b6020808252602c908201527f46756e6374696f6e206d7573742062652063616c6c6564207468726f7567682060408201526b6163746976652070726f787960a01b606082015260800190565b60208082526010908201526f14185d5cd8589b194e881c185d5cd95960821b604082015260600190565b6020808252602e908201527f496e697469616c697a61626c653a20636f6e747261637420697320616c72656160408201526d191e481a5b9a5d1a585b1a5e995960921b606082015260800190565b6020808252600c908201526b2737ba1020b8383937bb32b960a11b604082015260600190565b6020808252602b908201527f496e697469616c697a61626c653a20636f6e7472616374206973206e6f74206960408201526a6e697469616c697a696e6760a81b606082015260800190565b602081526000825160a06020840152613cee60c0840182613a0e565b905060018060a01b036020850151166040840152604084015115156060840152606084015115156080840152608084015160a08401528091505092915050565b602081526000825160406020840152613d4a6060840182613a0e565b90506020840151151560408401528091505092915050565b8481526060602082015282606082015282846080830137600080608085840101526080601f19601f860116830101905082604083015295945050505050565b838152606060208201526000613dba6060830185613a0e565b905060018060a01b0383166040830152949350505050565b6000808335601e19843603018112613de8578283fd5b83018035915067ffffffffffffffff821115613e02578283fd5b6020019150368190038213156135f357600080fd5b604051601f8201601f1916810167ffffffffffffffff81118282101715613e4057613e40613f83565b604052919050565b60008219821115613e5b57613e5b613f57565b500190565b600082613e6f57613e6f613f6d565b500490565b6000816000190483118215151615613e8e57613e8e613f57565b500290565b600082821015613ea557613ea5613f57565b500390565b60005b83811015613ec5578181015183820152602001613ead565b8381111561153b5750506000910152565b600081613ee557613ee5613f57565b506000190190565b600181811c90821680613f0157607f821691505b60208210811415613f2257634e487b7160e01b600052602260045260246000fd5b50919050565b6000600019821415613f3c57613f3c613f57565b5060010190565b600082613f5257613f52613f6d565b500690565b634e487b7160e01b600052601160045260246000fd5b634e487b7160e01b600052601260045260246000fd5b634e487b7160e01b600052604160045260246000fd5b6001600160e01b03198116811461129d57600080fdfe360894a13ba1a3210667c828492db98dca3e2076cc3735a920a3ca505d382bbc65d7a28e3265b37a6474929f336521b332c1681b933f6cb9f3376673440d862a416464726573733a206c6f772d6c6576656c2064656c65676174652063616c6c206661696c6564a26469706673582212203c64b54a664a0efd889b648c3eda5d4be81ee6169276aac4a728789886c6779a64736f6c63430008040033",
    "linkReferences": {},
    "deployedLinkReferences": {}
}